:020000041000EA
:10000000002008205D0100101B0100101D010010E0
:100010001101001011010010110100101101001058
:100020001901001019010010190100101F01001022
:10003000110100101901001021010010230100100E
:100040001101001011010010110100101101001028
:100050001101001011010010110100101101001018
:100060001101001011010010110100101101001008
:1000700011010010110100101101001011010010F8
:1000800011010010110100101101001011010010E8
:1000900011010010110100101101001011010010D8
:1000A00011010010110100101101001011010010C8
:1000B00011010010110100101101001011010010B8
:1000C00011010010110100101101001011010010A8
:1000D0001101001011010010110100101101001098
:1000E0001101001011010010110100101101001088
:1000F0001101001011010010110100101101001078
:100100001101001011010010110100101101001067
:10011000EFF30580103800BE00BE00BE00BE00BE7A
:1001200000BE00BEF2EB8871509900107C9900105F
:10013000A001001090A31AE7D3DEFFFF42012110B7
:10014000FF01000090AE0000793512AB4FF00000C7
:100150001E49086006C881F3088810474FF05040D8
:10016000006810B14FF00000F2E70DA40ECC00299A
:1001700002D000F012F8F9E71549164A002000E015
:1001800001C19142FCD11449884714498847144958
:10019000884700BEFDE701C901C29A42FBD3704700
:1001A0007C990010100100205C170020C8AF0010DF
:1001B0000000082000000820C8AF00100010082030
:1001C00000100820000000007047000008ED00E06B
:1001D0005C1700206C270020114C0010AD020010AD
:1001E000094C0010F8B500BF0348044B834202D00D
:1001F000034B03B1184770475C1700205C170020C1
:1002000000000000064B0749C91A891048BF013198
:10021000491003D0044B0BB101481847704700BF89
:100220005C1700205C1700200000000010B5064C91
:10023000237843B9FFF7D8FF044B13B10448AFF359
:1002400000800123237010BDE01900200000000091
:100250009C8E001008B5044B1BB104490448AFF351
:100260000080BDE80840CDE700000000E419002050
:100270009C8E0010044A0421137883F0010313704C
:1002800043EC4010012070476727002038B5052552
:10029000054C204600F04AFF40EC40504FF4FA7005
:1002A00002F018FAF5E700BF381100202DE9F047F9
:1002B00088B09A4807AB06AA05A902F029FD18B92B
:1002C0009649974801F03CFA0598DDE9061202F0DC
:1002D0005DFC042001F010FA04254FF0010343EC0B
:1002E0004450002404F0010343EC405064200134E6
:1002F00002F0F0F9062CF5D14FF0000343EC40502A
:1003000004F0F0FD874804F07DFE042001F0F4F9CC
:100310004FF0010646EC4450052001F0EDF90524AC
:1003200046EC4440804D284600F02EF917217F48C6
:1003300004F0EAFE204602F023FC07EE900A1624A1
:10034000F8EE677A012317220021CDED017A784873
:10035000009400F0FDFE012002F0BCF9754804F0A5
:1003600051FE284600F036F9642002F0B3F9284621
:1003700000F016FC002800F0A780297B6E4804F0EE
:10038000C3FE6E4804F03EFE6D4804F03BFE4FF4A1
:1003900000420021284600F09BFA002405E00A20D4
:1003A000013402F097F9642C0BD00021284600F0AC
:1003B00029F90304F3D40A21624804FB01F104F093
:1003C000A3FE0025322002F085F940F2E1115E48DB
:1003D00004F09AFE40F2E1120421534800F078FA4A
:1003E0000A2002F077F94FF49051584804F08CFE3F
:1003F0004FF4905200214C4800F06AFA0A2002F0B3
:1004000069F9534804F0FEFD2C46474FDFF8709120
:10041000DFF8708111E0BAF1000F05D00123294601
:100420004C48009604F070FE0A20013402F052F9A4
:10043000B4F5FA7F05F10A056CD00121384600F0C9
:10044000E1F80121384600F0DDF809FB04F1B8EBD2
:10045000710F024600F0040AC0F3800300F020068A
:100460004AD2002ED7D001213A480091294604F003
:100470004BFEBAF1000FD7D00A21374804FB01F137
:1004800004F042FE0021284800F0BCF80121044697
:10049000254800F0B7F802210546234800F0B2F8DD
:1004A00003210646204800F0ADF807462B4804F02B
:1004B000A9FD3A4631462A4804F026FE2A4621463E
:1004C000284804F021FE02E0274804F09BFD0024A8
:1004D000154801F0BDF8254D01F0C0F801F06CFFA2
:1004E00023490023CDE90145224A009102F066F933
:1004F000214807F0E5FAFEE7311E18BF0121154833
:100500000091294604F000FE002E8DD0BAF1000FB4
:100510008AD0B1E7194804F075FDB3E7400D030038
:10052000A08E0010D48E001038110020008F001013
:1005300000002050248F0010508F0010788F001082
:10054000948F0010AC8F0010C88F00100090001026
:100550003890001070900010A090001004910010CE
:10056000189100103891001054910010A819002023
:100570007502001020A107008D020010D490001019
:10058000295C8FC251B81E0570B50446406801F061
:10059000B3F84FF00106636846EC44304FF00005B5
:1005A00045EC4030206801F0A7F8206846EC400098
:1005B00045EC44000022012101F08AF8A068431CA8
:1005C00000D170BD01F098F8A36846EC443045ECCA
:1005D000403070BD83685A1C12D010B54FF0000235
:1005E000044642EC40300A2002F074F84FF0010259
:1005F000A36842EC40301920BDE8104002F06AB810
:10060000704700BF2DE9F04720274FF001064FF05B
:10061000000504468846206846EC400045EC44004E
:100620000022012101F054F80120002102F03AF8E3
:10063000636846EC40300120002102F033F8636823
:1006400045EC40300120002102F02CF8013FE2D1BE
:10065000236846EC443045EC40300120002102F094
:1006600021F8636846EC40300120002102F01AF8BE
:10067000636845EC40300120002102F013F8206847
:1006800046EC400045EC440001213A4601F020F8D8
:100690000120002102F006F8636846EC403001209A
:1006A000002101F0FFFF636845EC4030012000218C
:1006B00001F0F8FF206846EC400045EC44000121C1
:1006C0003A4601F005F80120002101F0EBFF6368D4
:1006D00046EC40300120002101F0E4FF636845EC66
:1006E00040300120002101F0DDFF236846EC44305A
:1006F00045EC40300120002101F0D4FF636846EC56
:1007000040300120002101F0CDFF636845EC40300E
:100710000120002101F0C6FF277B042607F01F07F8
:1007200017E049EC440045EC40000120002101F0B5
:10073000B9FF636849EC40300120002101F0B2FFAD
:10074000636845EC40300120002101F0ABFF013E21
:1007500012D327FA06F313F001054FF001092068C0
:10076000DFD049EC40004FF0000545EC440000228A
:10077000012100F0ADFFD8E704254FF001074FF04D
:10078000000608F01F0817E047EC440046EC400064
:100790000120002101F086FF636847EC4030012012
:1007A000002101F07FFF636846EC4030012000210A
:1007B00001F078FF013D0DD328FA05F3DB0720682F
:1007C000E2D547EC400046EC44000022012100F055
:1007D0007FFFDDE720684FF0010646EC40004FF058
:1007E000000545EC44000022012100F071FF0120CA
:1007F000002101F057FF636846EC40304FF050474E
:100800000120002101F04EFF63687A6845EC40301A
:100810000120002101F046FF206846EC400045EC35
:1008200044000022012100F053FF0120002101F0CB
:1008300039FF636846EC40300120002101F032FFAF
:100840007B68636845EC403000250120002101F001
:1008500029FF10264FF001082F466D004FF00109C7
:100860002068ADB249EC400047EC44000022012171
:1008700000F02EFF0120002101F014FF636849EC15
:1008800040300120002101F00DFF4FF0504223685D
:10089000526808FA03F303EA020A636847EC40303F
:1008A0000120002101F0FEFEBAF1000F18BF45F053
:1008B0000105013ED1D1206849EC400047EC4400DD
:1008C0000121324600F004FF2846BDE8F08700BF52
:1008D0002DE9F04F20254FF001074FF000060446A8
:1008E000914683B00191206847EC400046EC4400FB
:1008F0000022012100F0ECFE0120002101F0D2FED7
:10090000636847EC40300120002101F0CBFE6368B2
:1009100046EC40300120002101F0C4FE013DE2D14F
:10092000236847EC443046EC40300120002101F0C0
:10093000B9FE636847EC40300120002101F0B2FEAF
:10094000636846EC40300120002101F0ABFE2068D6
:1009500047EC400046EC440001212A4600F0B8FE76
:100960000120002101F09EFE636847EC4030012029
:10097000002101F097FE636846EC40300120002121
:1009800001F090FE236847EC443046EC40300120F3
:10099000002101F087FE636847EC40300120002110
:1009A00001F080FE636846EC40300120002101F038
:1009B00079FE206847EC400046EC440001212A46BD
:1009C00000F086FE0120002101F06CFE636847EC18
:1009D00040300120002101F065FE636846EC4030A4
:1009E0000120002101F05EFE277B04264FF0010A62
:1009F00007F01F0717E04AEC440045EC40000120D7
:100A0000002101F04FFE63684AEC403001200021D4
:100A100001F048FE636845EC40300120002101F000
:100A200041FE013E1FD327FA06F3D9072068E2D51D
:100A30004FF0010848EC40004FF0000B4BEC440035
:100A40000022012100F044FE0120002101F02AFED5
:100A5000626848EC40200120002101F023FE636819
:100A60004BEC4030D9E7019B04254FF001074FF0D4
:100A7000000603F01F0817E047EC440046EC400076
:100A80000120002101F00EFE636847EC4030012098
:100A9000002101F007FE636846EC40300120002190
:100AA00001F000FE013D0DD328FA05F3DA072068B6
:100AB000E2D547EC400046EC44000022012100F062
:100AC00007FEDDE74FF00107206847EC40004FF0DC
:100AD000000646EC44000022012100F0F9FD01204F
:100AE000002101F0DFFD636847EC40300120002168
:100AF00001F0D8FD636846EC40300120002101F090
:100B0000D1FD236847EC443046EC40300120002101
:100B100001F0C8FD636847EC40300120002101F07E
:100B2000C1FD636846EC40300120002101F0BAFDB0
:100B30000F2517E047EC440046EC4000012000215F
:100B400001F0B0FD636847EC40300120002101F066
:100B5000A9FD636846EC40300120002101F0A2FDB0
:100B6000013D0DD329FA05F3DB072068E2D547ECF8
:100B7000400046EC44000022012100F0A9FDDDE721
:100B80004FF00103206843EC40004FF0000343ECBA
:100B900044000022012103B0BDE8F04F00F098BDF1
:100BA00000232DE9F04F4FF001064FF001080446F5
:100BB0001D4683B001932027019B2373206846ECD8
:100BC000400045EC44000022012100F081FD01209D
:100BD000002101F067FD636846EC403001200021F0
:100BE00001F060FD636845EC40300120002101F018
:100BF00059FD013FE2D1236846EC443045EC4030DA
:100C00000120002101F04EFD636846EC40300120D8
:100C1000002101F047FD636845EC403001200021D0
:100C200001F040FD206846EC400045EC4400012105
:100C30003A4600F04DFD0120002101F033FD6368CC
:100C400046EC40300120002101F02CFD636845ECAA
:100C500040300120002101F025FD206846EC4000D5
:100C600045EC440001213A4600F032FD012000210C
:100C700001F018FD636846EC40300120002101F0CE
:100C800011FD636845EC40300120002101F00AFDB0
:100C9000236846EC443045EC40300120002101F04F
:100CA00001FD636846EC40300120002101F0FAFCB0
:100CB000636845EC40300120002101F0F3FC94F81A
:100CC0000CA004270AF01F0A17E046EC440045EC8C
:100CD00040000120002101F0E5FC636846EC403053
:100CE0000120002101F0DEFC636845EC403001206A
:100CF000002101F0D7FC013F0DD32AFA07F3DB07EF
:100D00002068E2D546EC400045EC44000022012179
:100D100000F0DEFCDDE704274FF0020A17E046ECA6
:100D2000440045EC40000120002101F0BBFC636859
:100D300046EC40300120002101F0B4FC636845EC32
:100D400040300120002101F0ADFC013F0DD32AFA13
:100D500007F3D9072068E2D546EC400045EC440093
:100D60000022012100F0B4FCDDE7206846EC4000E1
:100D700045EC44000022012100F0AAFC01200021E2
:100D800001F090FC636846EC40304FF05047012082
:100D9000002101F087FC63687A6845EC403001204F
:100DA000002101F07FFC206846EC400045EC440047
:100DB0000022012100F08CFC0120002101F072FCD6
:100DC000636846EC40300120002101F06BFC7B6839
:100DD000636845EC40300120002101F063FC4FF0D6
:100DE000100B4FF0000A4FEA4A0A4FF00107206843
:100DF0001FFA8AFA47EC400045EC4400002201212A
:100E000000F066FC0120002101F04CFC636847EC17
:100E100040300120002101F045FC4FF05042236892
:100E2000526808FA03F303EA0209626845EC4020BD
:100E30000120002101F036FCB9F1000F18BF4AF083
:100E4000010ABBF1010BCED1206847EC400045EC14
:100E5000440001215A4600F03BFC2027206846EC64
:100E6000400045EC44000022012100F031FC01204B
:100E7000002101F017FC636846EC4030012000219E
:100E800001F010FC636845EC40300120002101F0C6
:100E900009FC013FE2D1236846EC443045EC403088
:100EA0000120002101F0FEFB636846EC4030012088
:100EB000002101F0F7FB636845EC40300120002180
:100EC00001F0F0FB206846EC400045EC44000121B5
:100ED0003A4600F0FDFB0120002101F0E3FB6368CE
:100EE00046EC40300120002101F0DCFB636845EC5A
:100EF00040300120002101F0D5FB206846EC400085
:100F000045EC440001213A4600F0E2FB01200021BB
:100F100001F0C8FB636846EC40300120002101F07D
:100F2000C1FB636845EC40300120002101F0BAFBB1
:100F3000236846EC443045EC40300120002101F0AC
:100F4000B1FB636846EC40300120002101F0AAFBB0
:100F5000636845EC40300120002101F0A3FB94F8C8
:100F60000CB004270BF01F0B17E046EC440045ECD7
:100F700040000120002101F095FB636846EC403001
:100F80000120002101F08EFB636845EC4030012018
:100F9000002101F087FB013F0DD32BFA07F3DA079D
:100FA0002068E2D546EC400045EC440000220121D7
:100FB00000F08EFBDDE704274FF0030B17E046EC53
:100FC000440045EC40000120002101F06BFB636808
:100FD00046EC40300120002101F064FB636845ECE1
:100FE00040300120002101F05DFB013F0DD32BFAC1
:100FF00007F3DB072068E2D546EC400045EC4400EF
:101000000022012100F064FBDDE7206846EC40008F
:1010100045EC44000022012100F05AFB0120002190
:1010200001F040FB636846EC40304FF05047012030
:10103000002101F037FB63687A6845EC40300120FD
:10104000002101F02FFB206846EC400045EC4400F5
:101050000022012100F03CFB0120002101F022FBD5
:10106000636846EC40300120002101F01BFB7B68E7
:10107000636845EC40300120002101F013FB4FF084
:10108000100900277F004FF0010B2068BFB24BEC26
:10109000400045EC44000022012100F019FB012032
:1010A000002101F0FFFA62684BEC40200120002192
:1010B00001F0F8FA4FF050412268496808FA02F24C
:1010C0000A400092616845EC40100120002101F0C7
:1010D000E9FA009A002A18BF47F00107B9F101099F
:1010E000D0D120684BEC400045EC440001214A4639
:1010F00000F0EEFA4FF6FD720AF1FF3A1FFA8AFA93
:10110000924507D8013FBBB2934203D8012003B0F8
:10111000BDE8F08F019B0133202B01937FF44BAD91
:10112000FF230020237303B0BDE8F08F10B5044601
:101130000121FFF767FA01212046FFF763FA00F06B
:101140002400A0F12400B0FA80F0400910BD00BFD7
:101150002DE9F04F0D468DB04A4990469B46064614
:1011600006F0D2FCDFED486ADDED177A9FED477A95
:10117000C7EEA67A77EE877A4FF44023BCEEE77A83
:1011800006934FEA882303F4F84343F08043079320
:10119000421CC30143EA023323F0C04343F08043BF
:1011A0000293059317EE103A9BB28146002B3CD078
:1011B00007EE103AB8EE477ADFED356A77EEC77A78
:1011C00067EEA67AFCEEE77ACDED037A9DF80C2067
:1011D0001202012706F12F4404F56004240D0634A1
:1011E00042EA034A4046E4B2CDF810A000F084FA87
:1011F0002146404600F04EFA294642463B463046DC
:10120000009706F0FDFC294604AB4A46304606F03E
:101210003DFD336807FA05F51D43BBF1030F35604B
:1012200005D901200DB0BDE8F08F1A46D1E7029B29
:101230001698CDE908A34FF440230A93169B07FAAA
:101240000BFA9B0203F4F84343F080430B9300F046
:1012500053FA2146169800F01DFA3B465946169A55
:101260003046009706F0CCFC08AB4A46594630465B
:1012700006F00CFD012033684AEA030333600DB029
:10128000BDE8F08FC895001020BCBE4C0000003BAC
:10129000000080432DE9F04FB24EB34FDFF83483A6
:1012A00087B0002003F026FE831C044655D0002C96
:1012B000F7DDA4F120035E2B3AD90A2CF1D00D2CD6
:1012C0004FD0AA4D2B687E2B3DDD0021A84AD1547A
:1012D0001368B34257D0BB4259D01368434500F05E
:1012E000B880A44B1168994200F08980A14B116825
:1012F000994200F0C980A04B1168994200F00E811C
:101300009E4B1168994200F0E5809D4B116899420F
:1013100000F062819B4B1168994200F089819A48E4
:1013200003F070FE994B1B68986806F007FE27E0F3
:1013300003F026FE954B8D4D1B68986806F0FEFD68
:101340002B687E2BC1DC8A4A591C0020D4542960AA
:1013500003F0D0FD831C0446A9D1012007B0BDE8ED
:10136000F08F0A2003F00CFE884B804D1B689868B4
:1013700006F0E4FD00212B687D4A8B42D154A7DCA6
:1013800000232B608DE7824803F03CFEF8E747F22C
:101390007531804B188888429FD19C78002C9CD155
:1013A000DFF804A2DAF8000000285AD00221FFF783
:1013B00029F903218346DAF80000FFF723F92146D3
:1013C0000590DAF80000FFF71DF901218146DAF8EF
:1013D0000000FFF717F90446DAF80020059B117B9F
:1013E000CDF800900194C9F30039C4F380045A4643
:1013F000CDF80C900294684803F086FEC0E7654B78
:101400006649186888427FF471AF1C79002C7FF41C
:101410006DAFDFF89491D9F8000010B34FF4045287
:101420002146FFF755FA642001F054F92146D9F816
:101430000000FFF7E7F801210446D9F80000FFF7A4
:10144000E1F802462146C2F38003554803F05CFEF2
:1014500096E7544B516899427FF443AF524C206851
:1014600018B9524803F0CEFD8AE740F2E112042198
:10147000FFF72EFA20684FF490520021FFF728FA68
:101480004B4803F0BFFD7BE74A4B516899427FF41C
:1014900032AFDFF81491D9F800000028E1D04FF402
:1014A00080720021FFF714FA642001F013F9002183
:1014B000D9F80000FFF7A6F801210446D9F800008A
:1014C000FFF7A0F802462146C2F380033A4803F032
:1014D0001BFE55E72F4B3949186888427FF415AF3A
:1014E0001C79002C7FF411AFDFF8BC90D9F8000014
:1014F000A0B32146FFF786F840F480422146D9F890
:10150000000092B2FFF7E4F92146D9F80000FFF796
:1015100079F801462A4803F0F7FD03E79388312B59
:101520007FF4EEAE204B186800289AD01F21FFF7F9
:1015300069F804462348214603F0E6FDC4F3800120
:10154000214803F0E1FDC4F30011204803F0DCFD65
:10155000C4F341111E4803F0D7FD11E7134803F00F
:1015600051FDDFE647455420737461747C260020EA
:1015700084260020666F7263726567336C6F6F70CC
:101580006E6F6C6F68656C70DC9300100012002049
:10159000D4950010882600207C91001065313030F1
:1015A000109200106E65670074220020CC9100102C
:1015B000E0910010653130004C9200106261636B65
:1015C0001C93001088920010A8920010BC9200108A
:1015D000E49200106175746F184B194918688842BD
:1015E0007FF498AE46F6633133F8040F88427FF4F7
:1015F00091AE9C78002C7FF48DAEDFF85090D9F836
:1016000000000028AAD02146FEF7FCFF20F480420B
:101610002146D9F8000092B2FFF75AF92146D9F8CD
:101620000000FEF7EFFF0146064803F06DFD79E686
:101630001379002B7FF473AE034871E688260020EF
:101640006F70626150930010849300107422002028
:10165000014B1860704700BF7422002030B5002491
:1016600085B000F0A9FE074D07490023CDE90145EB
:10167000064A009101F0A2F8054805B0BDE83040E7
:1016800003F0C0BCC819002095120010A08601000C
:101690000494001010B44FF480740C4B53F82020C5
:1016A00003EB8003C00082F0400200F1804003F5AC
:1016B000805C02F0C00200F5203003F54053CCF806
:1016C000002041601C605DF8044B704704800340BB
:1016D00010B4084CC90041EA820154F8202004EB00
:1016E0008003514003F5805301F00C015DF8044B79
:1016F000196070470480034030B44FF0000343EC9E
:10170000440043EC400005254FF480740B4BC200AD
:1017100053F8201003EB800081F0400102F1804378
:1017200003F5203301F0C00200F5805100F5405070
:101730000A605D60046030BC704700BF04800340F5
:101740000FB400B583B0049C074803F05BFC3CB1C8
:1017500005A92046019103F001FA044803F052FC68
:10176000012003F013FA00BF289400100C9300101E
:10177000EFF3108072B6064BD3E8CF1F0122002989
:10178000FAD1C3E8412F0029F6D1BFF35F8F70472C
:10179000EB1D00200023034AC2E88F3F80F310882E
:1017A000704700BFEB1D002070B58646EFF3108533
:1017B00072B6124CD4E8CF6F0120002EFAD1C4E8E3
:1017C000460F002EF6D1BFF35F8F4FF0010CC80813
:1017D00001F007030CFA03F31EF800C01CEA03062D
:1017E00008D14CEA030C0EF800C0C4E88F6F85F3F3
:1017F000108870BD1046FFF7A3FF00BFEB1D00204F
:10180000F8B5EFF3108572B6234CD4E8CF7F0126EC
:10181000002FFAD1C4E8476F002FF6D1BFF35F8FD6
:101820009A4227D80126D70810F807E002F0070CE3
:1018300006FA0CFC1EEA0C0F00EBD2070DD125E0D6
:101840004FEAD20E10F80EE002F0070C06FA0CFC7C
:101850001EEA0C0F00EBD20718D001329342EFD2F0
:101860004FF0FF300023C4E88F3F85F31088984283
:1018700007DBF8BD0023C4E88F3F85F310884FF0E5
:10188000FF300029F5D00698FFF75AFF4EEA0C0EFC
:10189000104687F800E0E5E7EB1D0020044A1078C9
:1018A000431CDBB2182B28BF10231370704700BFF6
:1018B0004811002010B5054C82B001461F231822A4
:1018C00000940348FFF79CFF02B010BD389400104D
:1018D000102200204FF0E022936843F00053936001
:1018E000704700BF0021044B03F12002C3E88F1FA3
:1018F00001339342FAD17047E01D00204FF0E023FE
:101900004FF08032C3F80024C3F80424C3F808243D
:10191000C3F80C24C3F81024C3F81424C3F8182403
:10192000C3F81C24C3F82024C3F82424C3F82824B3
:10193000C3F82C24C3F8302462B67047012300F0AA
:101940001F029340400941B1800000F1604000F562
:101950006140C0F8803103607047024A203042F88D
:101960002030704700E100E00123064A410952F8A7
:10197000212000F01F008340134214BF01200020EB
:10198000704700BF00E100E001224309034900F075
:101990001F008240403341F82320704700E100E0FF
:1019A000054A10309268054B52F82000C01A2F28C3
:1019B0008CBF00200120704700ED00E04C1100209A
:1019C000F8B50D46EFF3108772B6124ED6E8CF2F5A
:1019D0000123002AFAD1C6E8423F002AF6D1BFF31C
:1019E0005F8F0D4B00F110049B680C4A53F82430B4
:1019F000934203D0994201D001F05CFB064B9B68F7
:101A000043F82450BFF35F8F0023C6E88F3F87F36E
:101A10001088F8BDE91D002000ED00E01101001064
:101A20002DE9F04F81468B46164683B0EFF31083C5
:101A300072B6DFF8D0A10093DAE8CF1F01230029A6
:101A4000FAD1CAE8413F0029F6D1BFF35F8F664B58
:101A500093F90040002CC0F2A080644D04EB4407D1
:101A600005EB870898F8061009F110091970604B0A
:101A7000BF009B6853F829006300411B2F292FD911
:101A80005C49884240F0A4801C445B4B02372F44E1
:101A9000043BDB1BC3F34A036FEAC3434FF421410A
:101AA0006FEAD34325F8241005EB840463804BF6DA
:101AB0000153A380FF2348F00100E671C4F808B089
:101AC000A3714B4B9B6843F82900BFF35F8F002342
:101AD000CAE88F3F009B83F3108803B0BDE8F08F06
:101AE00020F0010E9EF80710B1422ED84FF421438A
:101AF000EB53414BB91C2944043B04375B1A2F4478
:101B0000AEF104013D4CC91BC1F34A012143A8F8C1
:101B10000410C3F34A033A492343A8F802304AF6B3
:101B2000AA2073465B1B5B415843000D88F8076091
:101B300088F80600C8F808B048F00100CEF8001098
:101B4000BFE7D179B1422ED996469EF906C00CEB7B
:101B50004C02BCF1000F05EB8202F2DA4BF60151A8
:101B60000EF10402A8F10407BF1AC7F34A076FEA8F
:101B7000C7476FEAD7478EF8064003EB0408204CAE
:101B800005EB8803AEF8047045F82840998083F887
:101B900006C0DE71C3F808B093E701F08BFA124B70
:101BA00093F9004059E7724632F8041F490514D4EE
:101BB0004915023102EB410101916FF00701C91B88
:101BC000019F491B3944C1F34A0141F46041C9E70F
:101BD000019301F06FFA019B56E701F5FF1101F542
:101BE000FF511F31E4E700BF642700204C110020A3
:101BF00000ED00E0110100107C11002000E0FFFF6B
:101C000001488047E91D00202DE9F04F83B0EFF334
:101C1000108A72B6744ED6E8CF2F0123002AFAD16B
:101C2000C6E8423F002AF6D1BFF35F8F6F4B00F149
:101C300010089B686E4A53F8285095423FD08D4259
:101C40000C464AD06B4FEB1B2F2B38D801214FEAA3
:101C500050194FEA890909F1604909F5614900F015
:101C60001F0301FA03F0D9F80030C9F8800000EA38
:101C7000030BBFF35F8FEFF30581C9B279B38845DA
:101C800077D125F0010EDEF808C0644505D17CE06F
:101C9000D3F808C0644532D09E469EF9062002EB78
:101CA0004203002A07EB8303F2DA644500F08180E7
:101CB000BBF1000F20D0C9F88001C9F800004B4BE0
:101CC0009B6843F82850BFF35F8F0023C6E88F3F1F
:101CD0008AF3108803B0BDE8F08F1546EFE725F0D2
:101CE000010EDEF808C06445D7D19EF90640734660
:101CF000002C08DA154666E0C9F88000DFE793F9A2
:101D00000640002C56DB04EB440C07EB8C0CDCF893
:101D1000082061009A609CF80720DA719CF906207F
:101D2000002A9A715DDBBCF80420520504D502F547
:101D3000FF1202F5FF521F32521502F1020C4FF052
:101D4000040E0C2212FB04E202EB4C026FF0070CB3
:101D50003A44ACEB030C6244C2F34A0242F46042E0
:101D60009A80254B21441A7807EB81011C708A71F7
:101D70009EE7CDE9000101F09DF9DDE9000125F0C4
:101D8000010EDEF808C0644587D19EF9064073460F
:101D9000002CB8DA194A1A4CD21A083AC2F30A319E
:101DA0006FEA01516FEA115144EA5202DA809980D8
:101DB0007EE773460029EDD1FF228EF806204BF610
:101DC0000152AEF804200C4C4AF6AA2294F800C046
:101DD0001946C91B49414A43120D83F806C02270B7
:101DE00066E74BF60152BBE7E91D002000ED00E07D
:101DF000110100104C1100206427002086110020E2
:101E000000F8FFFFF0B5EFF30585EDB2EFF3108CAE
:101E100072B62649D1E8CF2F0123002AFAD1C1E8B2
:101E2000423F002AF6D1BFF35F8F214E40F0010EF2
:101E3000B4684AF6AA2354F825701E4A0446A41A28
:101E4000644163431B0D77455BB21BD092F906409A
:101E50009C421CD092F912409C4223D092F91E4021
:101E60009C4221D092F92A409C4208BF03240FD003
:101E7000114A0024157813708571C1E88F4F8CF3D7
:101E80001088F0BDB2680D4C42F82540F0E7002400
:101E900004EB440402EB8402FF2494714BF60154DA
:101EA0009480E5E70124F3E70224F1E7E91D00202F
:101EB00000ED00E04C11002064270020110100100B
:101EC00010B5074C82B00146052300220094054856
:101ED000FFF796FC0028A8BFC0F1330002B010BD88
:101EE0005494001069270020014B0B440360704795
:101EF000E01D002070B5104C104DAC420ED2FF26F4
:101F0000236863B1FFF7CAFC01462046FFF7ECFFE8
:101F1000A680BFF35F8F0834AC42F1D370BDFFF7EA
:101F2000BDFC01462046FFF7DFFF2671BFF35F8F40
:101F30000834AC42E4D370BD441700205C17002085
:101F400010B50446FFF7AAFC01462046FFF7CCFF78
:101F5000FF232371BFF35F8F10BD00BF10B5044690
:101F60000120FFF7A7FC034B03442360BFF35F8FFF
:101F700010BD00BFE01D0020024B0B440360BFF307
:101F80005F8F7047E01D00200D4B1A68EFF3108142
:101F900072B6D2E8CFCF0120BCF1000FF9D1C2E870
:101FA0004C0FBCF1000FF4D1BFF35F8F00221B6810
:101FB000C3E88F2F81F3108840BF002000217047B5
:101FC0003C270020000000002DE9F04F2DED028B92
:101FD00085B0EFF30583DBB2103B9A0818BF0122EE
:101FE0004FF0010103F0030018BFAF4DAF4B08BF26
:101FF000AF4D00EB820253F8226001FA00FB05F5B9
:1020000041539FEDA78B0190C3F804B02EE0B38835
:10201000180440F19280B379002B40F0DC80B6F9CF
:1020200008100029C0F21D81736901EB410103EB27
:10203000C103D3E90247B7F1FF3F08BFB4F1FF3F47
:102040000DD0019B05EB8301AB6A0A69D21AE31A32
:10205000934203D32B6A13EA0B0F00D10C6128467D
:1020600000F04EFCA042B941C0F2FB80B6F9083046
:10207000C5F83CB0002B0093C9DBD6F8149003EBF5
:10208000430A284609EBCA07D7E9024800F038FCA2
:10209000A04271EB0801BADBB8F1000FC0F2C380B7
:1020A000D7E90431834A934200F0ED807A88B6F98B
:1020B000080092B242EA0040984702460B4652EAB4
:1020C000030100F0B080002B80F2D180B4EB020E4F
:1020D00068EB030839F93A30C7E902E8002B96DBD0
:1020E000716903EB430201EBC202D2E90270BE4503
:1020F00078EB000C4FEA430289DBB4462CF8083F2A
:102100000BE031F93230A446002B0DDB03EB43002A
:1021100001EBC0005A00D0E90270BE451A4478EBCA
:10212000000001EBC204ECDA29F83A30009BACF86D
:102130000030B38818043FF56EAF3369EFF31082B7
:1021400072B6D3E8CF0F01210028FAD1C3E8401FAF
:102150000028F6D1BFF35F8F4FF6FF74B0880023DD
:10216000316900B2B480C1E88F3F82F31088984291
:10217000FFF651AF0746A946746906F1080807EB58
:10218000470E04EBCE03D3E90250B6F90830C4463B
:10219000002B13DBB246009704E034F93630944646
:1021A000002B09DB03EB430604EBC602D2E9027104
:1021B000BD4270EB0101F0DA5646009FACF80070AA
:1021C00034F93E7024F83E30002FD8DAB3794D460A
:1021D000002B3FF424AF0023B371B6F9083006F1A9
:1021E0000808591C3DD01946776903E080465A1CFF
:1021F0003FF417AF03EB430207EBC200B0F802C095
:102200001C461CF4004F9E4637F93230EED08C420B
:1022100080ED028B05D0A8F80030318927F8321004
:1022200034817146E3E739F83A3033813369EFF3AB
:10223000108272B6D3E8CF0F01210028FAD1C3E88B
:10224000401F0028F6D1BFF35F8F7388316929F8EA
:102250003A30009B73800023C1E88F3F82F31088DF
:10226000D5E640BF05B0BDEC028BBDE8F08F284637
:10227000CDE9022300F044FB029A039B10EB020E0F
:1022800043EB010826E708460B69029198470028AE
:10229000C9D00299D1E9002311E700BFAFF3008054
:1022A000FFFFFFFFFFFFFFFF00800B401427002010
:1022B00000000B40C91F00102DE9F84F364C25696E
:1022C0002DB1BDE8F84F0A213448FFF70DBEDFF805
:1022D000E4800321404600F001FB0326C4F80C8093
:1022E000FFF7DCFA4FF0504C2D4B2670034423616E
:1022F000DCF800300F216370636961801D834FF04B
:102300000405A3F878504FF00505A3F890504FF05E
:102310000605A3F8A8504FF007050E214FF6FF72EF
:1023200008274FF00A0EA3F8C0504FF001094FF0F4
:102330000C0C4FF0020B4FF0090A0D204FF00B056B
:10234000A3F868111749A280A3F808E1A160A3F8D7
:1023500048B0A3F8F0A0A3F82051A3F838C1A3F81F
:102360005001A3F83090A3F86060A3F8D8701A80E9
:102370000D4B3046C8F820700C49DC60FFF720FB9D
:1023800049463046FFF7DAFA094B0A211F64034831
:10239000BDE8F84FFFF7A8BD941100203C270020AE
:1023A000E01D0020FFFF100014270020C91F0010AF
:1023B00000200B4000000B400048704794110020A3
:1023C000F8B59DF82070044616461D4637B900F052
:1023D0009FFA864265EB010100295CDB2369EFF37C
:1023E000108772B6D3E8CF1F01220029FAD1C3E8C3
:1023F000412F0029F6D1BFF35F8FB4F902C06369A2
:102400000CEB4C01BCF1000F4FEAC10203EBC10120
:1024100038DB985A4FF0000E60802069C0E88FEFDB
:1024200087F310880698C1E902650861079848613A
:1024300048880130C0F30E00012838BF01204880D1
:1024400040EA0C402169EFF3108572B6D1E8CF7FE6
:102450000126002FFAD1C1E8476F002FF6D1BFF354
:102460005F8FA1889952A4F804C02369C3E88FEF55
:1024700085F310880122E368217803F501538A402F
:102480005A60F8BD00232269C2E88F3F87F31088A5
:102490004FF0FF30F8BD3846F8BD00BF0146F0B53B
:1024A0000069EFF3108772B6D0E8CF5F0124002DEA
:1024B000FAD1C0E8454F002DF6D1BFF35F8FB1F9D7
:1024C00002E04C690EEB4E0CBEF1000F4FEACC055A
:1024D00004EBCC0C3DDB605B002648800869C0E85B
:1024E0008F6F87F31088BCF80200CCE9022301301B
:1024F000C0F30E00012838BF0120059BACF8020094
:10250000CCF81030069B40EA0E40CCF814300B6932
:10251000EFF3108272B6D3E8CFCF0127BCF1000FE2
:10252000F9D1C3E84C7FBCF1000FF4D1BFF35F8F4A
:102530008B886353A1F804E00B69C3E88F6F82F3C3
:1025400010880122CB68097803F501538A405A604C
:10255000F0BD00230A69C2E88F3F87F310884FF06F
:10256000FF30F0BD03464089B0EB214F37DD58699D
:102570000A1402EB420210B500EBC2001C69EFF333
:10258000108C72B6D4E8CFEF0122BEF1000FF9D162
:10259000C4E84E2FBEF1000FF4D1BFF35F8F428825
:1025A00089B292B28A4207D000221B69C3E88F2FFA
:1025B0008CF31088002010BD42F4004242800121BB
:1025C000002218699971C0E88F2F8CF310881C784D
:1025D000DA68084602F50153A140596010BD002099
:1025E000704700BF407870472DE9F041861F41F1E8
:1025F000FF35B04271EB050338BF002682B038BF0B
:10260000354604460F4600F083F9301A65EB0103A6
:10261000012873F1000306DA2046394602B0BDE80E
:10262000F04100F0B1B900F073F9864265EB0101A9
:1026300000290ADB0021174B3246009316482B462F
:102640000191FFF72BFF0028E6DB4FF0000C134849
:10265000134A436A9D4204D8816AB142DCD29D424A
:10266000DAD11368EFF3108172B6D3E8CF8F5FF041
:10267000010EB8F1000FF8D1C3E848EFB8F1000F30
:10268000F3D1BFF35F8F1368C3E88FCF81F3108856
:1026900020BFDEE7891F00109411002000000B40CE
:1026A0003C27002038B504460D4600F031F94FF0C4
:1026B000FF326FF00043201845EB0101824273EBBB
:1026C000010438BF1946BDE8384038BF1046FFF74F
:1026D0008BBF00BF10B5044600F01AF94FF47A73AF
:1026E0004FF0FF3C6FF00042E4FB0301BDE81040F7
:1026F000844572EB01033CBF60461146FFF774BF8F
:102700002DE9F04306460D4683B0EFF30584E4B2AD
:102710003CB1274B586AA8421CD2002003B0BDE848
:10272000F083244FD7F80C9097F80080484600F0CB
:10273000E7F808F1040859F828301B1A301A65EB3D
:102740000101984271F1000111DB20BF184B586A5A
:10275000A842E2D39B6AB34203D3012003B0BDE891
:10276000F083401B18BF012003B0BDE8F08300F0E8
:10277000CFF8864265EB01010029CADB0E4B3846D3
:10278000CDE9003432462B46FFF788FE011EC0DD3E
:10279000074B5A6AAA4208D39B6AB34203D305483F
:1027A000FFF7E0FEB5E7AA42F9D120BFF7E700BF87
:1027B00000000B4094110020891F00102DE9F0410A
:1027C0000446DDE9071552EA030070D0002B1646D7
:1027D0001F4671DB0698C5E900232861AC6069617A
:1027E00000F096F84FF0FF326FF00043801947EB8E
:1027F0000107824273EB07013CBF1F461046236965
:10280000EFF3108872B6D3E8CF1F01220029FAD166
:10281000C3E8412F0029F6D1BFF35F8FB4F90260FE
:10282000616906EB4603002E4FEAC30C01EBC303BC
:1028300046DB31F80C204FF0000E62802269C2E8BE
:102840008FEF88F310885A88C3E902070132C2F378
:102850000E02012A38BF01221F485A805D611861AB
:1028600042EA06422369EFF3108072B6D3E8CF8FB5
:102870000127B8F1000FF9D1C3E8487FB8F1000F84
:10288000F4D1BFF35F8FA38821F80C30A6802369B1
:10289000C3E88FEF80F3108801202178E36800FA05
:1028A00001F103F501535960EA60BDE8F0810126AA
:1028B000002732463B468DE7564263EB430789E7E4
:1028C00000202369C3E88F0F88F310884FF0FF3290
:1028D000EA60BDE8F08100BFC91F001010B4054BCD
:1028E000054C064AA04214BF1846581C5DF8044B1C
:1028F000FEF75ABF1422002000800B407094001095
:102900000346416A0A46986A596A8A42FAD1704770
:10291000034B596A0A46986A596A9142FAD170473C
:1029200000000B4010B4174A536A9C46946A536ADD
:102930006345FAD1001959414FF0000228BF012226
:102940000346CAB10F4B596A4B1C08BF0B4608D04F
:102950004FF0FF310B460B48426A8A42FCD38A4251
:1029600007D1084A02E0506A884202D1906A984230
:10297000F9D35DF8044B7047024A526A9142EAD893
:10298000EDE700BF00000B40074A536A9942FCD8AC
:10299000994207D1044B02E05A6A914202D19A6AE5
:1029A0008242F9D3704700BF00000B40F8B50546DE
:1029B00006200E4600F0E4F8002842D0354A36489A
:1029C000954214BF4FF080624FF00062334B3449A0
:1029D00002601A608C6832EA0404FBD12D4B4FF47C
:1029E0008071EB1AB3FA83F32E4A5B09062022F8B2
:1029F000131000F0C5F8C300B3FBF6F30133DA0996
:102A000020D1402601216962AA622F6BFB0722D4E4
:102A10002B46002253F82C1F062003F58054226019
:102A20002F6300F0ADF840F2013103228000B0FBCB
:102A3000F6F0EB6A83F0700303F07E0323602963F2
:102A4000AA64F8BD4FF6FE718A421BD922464FF6A2
:102A5000FF71154ED7E740F2013205F540531A6376
:102A60006B6AAC6A062004EB831400F089F80F4B04
:102A7000A402A3FB0023DB0A0021B4FBF3F0FFF761
:102A800051FFC5E7C3F34503114603EB82161A460F
:102A9000B9E700BF0080074000200240003002403C
:102AA0000000024048270020C0FF3F00757B2B8FAD
:102AB00000EB400C4FEA8C0C0CF1804C0CF5803C88
:102AC000F0B51646DCF80420051FB2F5803F38BF8C
:102AD0004FF48032EDB238BFCCF80420012D2AD952
:102AE0004FF40067254C0CF54052176054F8202035
:102AF000B2B9DCF80020012D82EA461202F0E002B1
:102B00000CF5805632602AD94FF4006144F8203029
:102B10004FF480330CF500521160CCF80430F0BD56
:102B20006769B7FBF2FE0EF1010E0EEB4E0EBEF121
:102B3000030EFCD2DDE70129D2D103240CF540526B
:102B40001460DCF80820D207FBD5DCF800200B4C21
:102B500082EA461202F0E0020CF580563260012251
:102B6000DCF800504D4005F00305356002FA01F134
:102B7000DCF808200A42FBD0C6E700BF182200207C
:102B8000014B53F82000704718220020584B2DE9C4
:102B9000F0431C6C1746B4F5803F38BF4FF48032C9
:102BA0000E464FF00301804638BF1A64514A504B1D
:102BB00083B0D1635C6CE507FCD5DA6B4E4982F0DB
:102BC000200202F0E002CA63DB6B494D83F001038F
:102BD00003F00303CB636C6CA407FCD54FF40062D5
:102BE0004FF48039454B464CDA63464B42466361AD
:102BF00001213346C5F840904348009700F056F94C
:102C00004FF400616B6B07FB06F64B4538BFC5F808
:102C10003490384B2269B8FBF6F619633AB1636910
:102C2000B3FBF2F3013303EB4303033BFDD2304B21
:102C300031491A6B02F0E0020A631A6B82F0020259
:102C400002F003020A63996B4807FCD54FF4006554
:102C50004FF4803229490D632C495A632161196C64
:102C600091424FF0030138BF1A64224B204AD963C6
:102C7000536CD907FCD5D36B1F4D03F0E003EB6316
:102C8000D36B1B4983F0010303F00303EB634B6C2D
:102C90009B07FCD54FF480334FF40065174A6661FB
:102CA000D5630B64CA6C9A4238BFCB644FF40061A1
:102CB000104BA26999643AB16369B3FBF2F3013333
:102CC00003EB4303033BFDD24FF400604FF480312C
:102CD000074A094D936C83F0400303F0E003AB64B3
:102CE000064B084DA5619864D16403B0BDE8F0833C
:102CF0000000014000300140001001400020014070
:102D000018220020006CDC0200000540001BB70008
:102D10002DE9F04F4FF4A078994685B0CDE9021225
:102D20005F4CDFF884A154450AD908F1FF38A4F5B7
:102D30003B54B8F10F0FA4F12004F4D1002069E056
:102D4000072304F53722019403FB03F402F5D8723C
:102D5000B2FBF4FE70454FF0010C4FF002074FF04C
:102D600003064FF004054FF005013FD0B3F1010E0B
:102D700000F094800EFB03F4B2FBF4FB58454CD0FA
:102D800019B301FB03F4B2FBF4FB58454FD0E5B196
:102D900005FB03F4B2FBF4FB584553D0AEB106FB80
:102DA00003F4B2FBF4FB584557D077B107FB03F4AB
:102DB000B2FBF4FB58455BD0BCF1000F05D00CFB17
:102DC00003F4B2FBF4FB83455DD0734603FB03F4CD
:102DD000B2FBF4FE704501F1FF3105F1FF3506F15C
:102DE000FF3607F1FF370CF1FF3CBFD104FB102485
:102DF000002CBBD19E464A46DDF808B0DDF80C90A9
:102E00000120284901FB08F1CBF80010C9F8003077
:102E1000C2F800E005B0BDE8F08F04FB1024002CE0
:102E2000AED14A46DDF808B0DDF80C90E8E704FBC7
:102E30001024002CABD14A468E46DDF808B0DDF8F0
:102E40000C90DDE704FB1024002CA7D14A46AE46C7
:102E5000DDF808B0DDF80C90D2E704FB1024002C5C
:102E6000A3D14A46B646DDF808B0DDF80C90C7E7B6
:102E700004FB1024002C9FD14A46BE46DDF808B062
:102E8000DDF80C90BCE704FB1024002C9DD14A46D1
:102E9000E646DDF808B0DDF80C90B1E7019C44E7A8
:102EA00050262F00001BB70050F80C0070B4039D93
:102EB00004682D0345EA03451B4B002CB3FBF1F3DB
:102EC000B2FBF3F61FDB194A194B904214BF4FF4C3
:102ED00080424FF40042174C1A6003F580531A6089
:102EE000A36832EA0303FBD1212200F540530433E7
:102EF000016086601A600268002AFCDA0822C56058
:102F00001A6070BC7047036803F03F038B42DAD14C
:102F10008368C3F30B03B342D5D1C36803F4EE2334
:102F2000AB42D0D1EDE700BF001BB70000800540E9
:102F3000002002400000024030B44FF080441C4B9F
:102F40001C60E0B11B4CA3F54053DC611A4C40F00F
:102F5000010044401C62596298624FF080454FF076
:102F6000E061134B1548164C1D60846019604AB926
:102F700030BC4FF00042A3F580531A607047114BEC
:102F8000D861EAE74FF47A7303FB02F2B2F1807F73
:102F90002ABF6FF07F4313461A464FF080410A4C18
:102FA00008482360094B426030BC1960704700BF7D
:102FB00000B00D40D3C007B02D3FF84F00A0014036
:102FC000F3FFFF0100800D400427002000A00D400A
:102FD000012300EB4000800000F1804000F58410E8
:102FE00041600360704700BF002370B5DB8A044670
:102FF0000D46002242E800F2520254BF1021042183
:1030000044F25220984786462B462246F446BDE8B5
:1030100070400A214FF48170604700BF0023DB8AB3
:10302000002242E800F2520201D410211847042184
:10303000184700BF08B503460846191E02DB1AB13F
:1030400040F03000FFF7D0FF40F02000FAE700BF6B
:10305000034AD2F82838002BFBD0BFF35F8F7047AC
:1030600000000E400021044B044ABFF35F8F43F879
:10307000041B9342F9D170470C080E402C080E40F7
:1030800010B44FF48D704FF42A64064A064B07497A
:103090001460D06019605368002BFCDA5DF8044BB3
:1030A000704700BF0080044000A0044000B0FA0058
:1030B000704700BF08B50148FEF742FB949400102A
:1030C00038B5054C054DAC4204D254F8043B984742
:1030D000AC42FAD338BD00BF508E0010908E001065
:1030E00038B5054C054DAC4204D254F8043B984722
:1030F000AC42FAD338BD00BF7C8E0010908E001019
:1031000010B40748074C084B084A094904601A6084
:103110008B6832EA0303FBD15DF8044B704700BFB4
:10312000002002407F3BEFEF00300240F6FFF30348
:1031300000000240044BDB6CB3F5004F03D14FF4A9
:103140008022024BDA6470470000115000201150B9
:103150004FF0E022044BD2F8881D0B43C2F8883DA3
:1031600010EE3004704700BF030330006FF0604181
:10317000044B054A19609368DB4333F06043FAD18E
:10318000704700BF003002400000024010B545F219
:103190005320FFF743FFBDE81040034604201847C3
:1031A00010B545F25320FFF739FFBDE81040034644
:1031B00001201847FEF796BB70B51449144C154D05
:1031C000641AA610442E324628BF44222846920094
:1031D00005F0DAFAB4F5867F13D80F4AC6F1440138
:1031E00012D02B19480803EBC000C3E900220833B2
:1031F0008342FAD1CB0704D521F00103334445F8CB
:103200002320064B9D6070BD4323F8E700000010AB
:1032100010010010000000201101001000ED00E07E
:10322000002370B52B4C82B0C4F88430FFF728FF20
:103230000122294BDA63636C012BFCD10321264A5E
:10324000244B11639C6B012CFCD1022605252146E1
:103250000523224A22480096FFF728FE21462B46E6
:10326000204A21480095FFF721FE00220420314624
:103270001E4BFFF71DFC2146284600221C4BFFF782
:1032800017FC0022082011461A4BFFF711FC002200
:1032900009201146174BFFF70BFC002206201146B0
:1032A000134BFFF705FC0022114B07201146FFF7D7
:1032B000FFFB0420FFF764FC00240F4BA3FB003549
:1032C000AD0CE0B229460134FFF782FE062CF8D19E
:1032D00002B070BD0000014000300140002F68596D
:1032E00000000540008C864700800540001BB700A9
:1032F00080D1F008006CDC0283DE1B4386B003B48F
:1033000051FC0804CDE9020151FC0904CDE9040196
:1033100051EC0A04CDE9060103BCF047BDE80050BA
:103320004EEC00C4BDE800504EEC01C4BDE80050B6
:103330004EEC02C400BD000000B5FFF7DFFF02E065
:1033400010FE30F4F8D441EC100443EC112400EEEC
:10335000010410EE010480EE200451EC10047047CB
:1033600000B5FFF7CBFF02E010FE30F4F8D441ECDB
:10337000100443EC112400EE010410EE210480EE51
:10338000200451EC3004704700B5FFF7B7FF02E0AE
:1033900010FE30F4F8D410B541EC100443EC1124C5
:1033A00051EC040453EC0524A0FB024C5FF0000E2A
:1033B000E0FB03CEE1FB02CE4CEC20440024E1FB19
:1033C00003E444EC30E480EE200451EC5004BDE80A
:1033D0001040704700B5FFF791FF02E010FE30F497
:1033E000F8D441EC100443EC112451EC2104A0FB6F
:1033F00001126FEA820252FB100052FB12F252FBE2
:103400001000A0EBD07C53EC04245CFB13F153ECD4
:103410001524A1FB022001FB030053EC4424A2EB82
:10342000000050FB1CF24FEA111312EB017043EB4A
:10343000E27140EA515020EA915020F0070053EC2D
:103440007524A0FB023C53EC752400FB03CC01FB6C
:1034500002CC53EC0424ACEB824C40EA5C70A0F14B
:10346000010041EC400480EE200451EC70047047F0
:1034700000B5FFF743FF02E010FE30F4F8D440EC53
:10348000700400EE010410EE210480EE200451ECE3
:103490003004704700B5FFF731FF02E010FE30F452
:1034A000F8D440EC600400EE010410EE210480EE3C
:1034B000200451EC3004704700B5FFF71FFF02E015
:1034C00010FE30F4F8D441EC800400EE010410EE5C
:1034D000010480EE400410EE1304704700B5FFF7BE
:1034E0000DFF02E010FE30F4F8D441EC800400EE51
:1034F000010410EE010480EE400410EE3304704726
:1035000000B5FFF7FBFE02E010FE30F4F8D441EC0A
:10351000100443EC112400EE010410EE3004C0F35B
:103520000070704700B5FFF7E9FE02E010FE30F4CE
:10353000F8D443EC102441EC110400EE010410EE29
:1035400030F48CBF01200020704700BF00B5FFF7AA
:10355000D5FE02E010FE30F4F8D441EC100443EC48
:10356000112400EE010410EE30F42CBF01200020E5
:10357000704700BF00B5FFF7C1FE02E010FE30F457
:10358000F8D441EC100443EC112400EE010410EED9
:1035900030F48CBF01200020704700BF704700BF8F
:1035A0002DE9F04F83B09946DDE90DAB0F9B8846BE
:1035B00011469A07074616D1DA453AD20C460D460F
:1035C000ABEB0A060E4422464B464146202001340E
:1035D000B847B442F7D12946BAF1000F08D12046C6
:1035E00003B0BDE8F08F0C46BAF1000F10D00E46C4
:1035F00055460C9B2E449A440191721B4B46013D4B
:1036000041461AF8010D3446B847002DF5D101990D
:103610000F9B9B07E3D5651AAB45E0D922464B4685
:10362000414620200135B8475D4504F10104F5D33A
:10363000D5E7BAF1000FDAD10C46D0E72DE9F04F0B
:103640000F9FDDF824E017F0020F0A9C9DF82C90E4
:103650000E9DDDE90C8629D1002D6FD1B44225D213
:10366000202C07F0010B00F0128104F1FF3C4FF019
:10367000300AF44401E0202C7AD00134A6420CF840
:1036800001AFF8D8BBF1000F10D0AC420ED2202C05
:1036900074D004F1FF3C4FF0300AF44401E0202CD8
:1036A00029D00134AC420CF801AFF8D117F0100F5B
:1036B0003AD017F4806F28D11CBBB8F1100F00F07E
:1036C000CA80B8F1020F00F0D48030248EF8004098
:1036D0000124B9F1000F67D17E0740F1AA802B26A3
:1036E0000EF804600134CDE90B57CDE909E4BDE8DB
:1036F000F04FFFF755BFFC0640F189807C0535D4BB
:103700002024A6426AD0AC4268D0B8F1100F00F075
:103710008780B8F1020F5AD0202CE4D0264601341D
:103720004FF0300C0EF806C0202CD2D1CDE90B574B
:10373000CDE909E4BDE8F04FFFF732BF17F0010B08
:103740003ED0B9F1000F47D117F00C0F44D1B4426D
:103750009BD2202C89D1202D10D8FC0657D57C0572
:1037600055D4202E00F0B980202D10D02024CCE795
:10377000BBF1000F00F0A580202DBCD9FC0646D57A
:103780007C0544D4202E00F0A880202D3FD12C466B
:103790001F26B8F1100F7FD0B8F1020FC0D14FF043
:1037A000620C0EF806C0B7E72D260EF8046001344F
:1037B000CDE90B57CDE909E4BDE8F04FFFF7F0BEC6
:1037C000B442BFF473AF202C7FF44FAFD6E7202C68
:1037D00089D026460134E2E7013DB8E7661ED8D11C
:1037E000B8F1100F64D0B8F1020F7FF46EAF62260B
:1037F0008EF80060302644468EF80160B9F1000F63
:103800003FF46AAFD0E7B8F1100F7FF46CAF20241B
:10381000CDE90B57CDE909E4BDE8F04FFFF7C0BE95
:10382000BE060ED4202CF2D078260EF804600134A7
:1038300072E73E077FF557AF20260EF8046001348B
:1038400051E7202CE3D04FF0580C0EEB040686F81D
:1038500000C0013460E7BE0617D558248EF800403A
:1038600030248EF801400224B9F1000F3FF434AF48
:103870009AE762248EF8004030248EF8014002243A
:10388000B9F1000F3FF428AF8EE77824F2E7BBF1DF
:10389000000F7FF462AF71E717F0200F0CBF4FF0FD
:1038A000780C4FF0580CA61E0EF806C0013C35E708
:1038B000BC06EAD558248EF8004030248EF801402A
:1038C000DDE717F0100F3FF40EAF17F4806F9AD1B9
:1038D000202E7FF418AF1F265BE734461F2658E7DB
:1038E00000B9704701F04CBB10B1D1E90031184765
:1038F000704700BF000000002DE9F04F9FB09DED24
:10390000287BDDE92AA558EC177B83461E460D91DE
:10391000109243463A46384641468DED087B2C9C32
:10392000FFF7F2FD002840F0D880384641464FF0BE
:10393000FF32754BFFF722FE002840F0CE8038465C
:1039400041464FF0FF326FF48013FFF7EFFD002880
:1039500040F0C380DDE90878002238464146002364
:10396000FFF7E4FD002840F0C081CDE90A78DDE9E9
:103970000A2390461F4614F4806308BF4FF0060ADE
:10398000139304F4006258EA0703119240F0C080D8
:10399000002A00F0A2819FED5A7B00278DED0E7B5F
:1039A0004FF00009BA45CCBFAAEB070A4FF0000A56
:1039B0004F46C8BF0AF1FF3A44F480644D4594BFB6
:1039C0004FF00008A5EB090814F00203119304D08E
:1039D000B9F1000F18BF4FF000083FB1DDE90A014F
:1039E000DDE90E23FFF7FAFCCDE90A01DDE9080164
:1039F00000220023FFF79AFD30B1DDE90A010246FB
:103A000001F10043CDE90A239DED0A7BCDE902A82F
:103A1000DDF834A024F4006304938DED007B33467D
:103A200051465846109A00F097F98046B9F1000FB8
:103A30004FD014F0200F024600F1010433460CBFB2
:103A4000652045205146D84709F1FF3087EAE77CD9
:103A50000DF1580900224B46DFF8B080ACEBE77C53
:103A60004FEAD77E01E0202A10D0E246A8FB0C7175
:103A7000C90801EB8107ACEB47073037BAF1090FF2
:103A80008C4602F1010203F8017BECD80523059076
:103A9000069300200A230D9FCDE90330CDE9012EC6
:103AA0003346224639465846CDF80090FFF7C6FD0A
:103AB000119B80466BB1109BC41AA54209D942469E
:103AC0003346394620200134D847A54208F1010881
:103AD000F5D840461FB0BDE8F08F9DED087B33461A
:103AE0005846109A0D998DED287BCDE92B54CDF8D1
:103AF000A8A01FB0BDE8F04F00F02EB9AFF30080D2
:103B00000000000000000000FFFFEF7FCDCCCCCC18
:103B1000C7F30A50A0F2FF30FFF7AEFC8AA3D3E947
:103B20000023FFF735FC8AA3D3E90023FFF708FC45
:103B3000C7F31307CDE90E0147F07F51404600223D
:103B40007B4B41F44011FFF70FFC6BA3D3E900233B
:103B5000FFF71EFC02460B46DDE90E01FFF7F0FB06
:103B6000FFF7AEFC0746FFF787FC65A3D3E9002308
:103B700080468946FFF70CFC00226E4BFFF7E0FB06
:103B8000FFF79EFC03464946404612935EA3D3E9E5
:103B90000023FFF7FDFB804612988946FFF76CFC77
:103BA0005BA3D3E90023FFF7F3FB02460B46404635
:103BB0004946FFF7D9FB02460B4680468946FFF788
:103BC000E7FB42464B46CDE90E0140464946FFF72A
:103BD000B7FB0022CDE91401DDE90E01564BFFF7DA
:103BE000FDFB0022554BFFF7ABFB02460B46DDE920
:103BF0000E01FFF7F3FB0022514BFFF7A1FB02463A
:103C00000B46DDE90E01FFF7E9FB42464B468046D5
:103C1000894600204FF08041FFF7A6FB02460B4685
:103C200040464946FFF78CFB02460B46DDE914018E
:103C3000FFF7D4FB0022434BFFF782FB129B0022CD
:103C400003F2FF3C4FEA0C53FFF7A2FB8046894684
:103C5000DDE90A0142464B46CDE90E89FFF766FCD5
:103C600068BB4346494607F16302C62A119A8CBFD6
:103C70004FF005094FF00409002A3FF49FAE0B43B3
:103C80003FF48EAEDDE90A0123A3D3E90023FFF759
:103C900061FC48B1DDE90A0121A3D3E90023FFF764
:103CA00045FC00287FF47CAEBAF1000F3FF486AEED
:103CB000139B002B3FF482AE0AF1FF3A7EE600220E
:103CC0001E4B40464946FFF789FB0A46014603461C
:103CD000CDE90E12013F1146C5E79FED137B174654
:103CE0004FF004098DED0E7B68E608F100430A975A
:103CF0000B933CE6AFF3008061436F63A787D23F2D
:103D000071A379094F930A401655B5BBB16B0240B8
:103D1000EF39FAFE422EE63F2D431CEBE2361A3F06
:103D20000000000080842E41000000000000000020
:103D30000000F83F0000E03F00002C40000024405D
:103D4000000018400000F03FFB799F501344D33F20
:103D5000B3C8608B288AC63F2DE9F04F97B0DDE9E4
:103D60002089CDE90401DDE9224BCDE90623404657
:103D700042464B464946DDF890A0FFF7C5FB0028B8
:103D800040F0C581404649464FF0FF326FF4801342
:103D9000FFF7CCFB002840F01D81404649464FF01C
:103DA000FF32C14BFFF7EAFB002840F0E380B8A3E5
:103DB000D3E9002340464946FFF7E0FB002840F0E6
:103DC000CB80B5A3D3E9002340464946FFF7AEFBBD
:103DD000002840F0C1804046494600220023FFF7FA
:103DE000A5FB002840F0E0801AF480650D9000F0FB
:103DF000E980092C40F296810EAB1A460C933021D3
:103E00000023A4F109050133202B02F8011BA4EBC8
:103E1000030600F03A81AB42F5D19FED9D7B8DED1D
:103E2000087B49464046FFF74BFB0446FFF724FB5F
:103E300002460B4640464946FFF796FADDE908235D
:103E4000FFF7A6FA02460B46CDE90A23FFF74AFB25
:103E50000746FFF723FB02460B46DDE90A01FFF7A1
:103E600083FA02460B46CDE90A2300228F4BFFF767
:103E700085FB002800F0DB8001373846FFF70EFB9A
:103E8000DDE90823FFF766FB08B100270134002EA7
:103E900040F0B1802046FFF7EFFA02460B4640465D
:103EA0004946FFF761FA0022804B06460F46FFF7AE
:103EB0003DFB40B93046394600227C4BFFF75EFBA4
:103EC000002800F015810C9B691E7948194410E008
:103ED00080FB0462C3EBA20303EB8302A4EB420466
:103EE00004F1300201351C4601F8012F002B00F0CF
:103EF000AB80202D4FEAE473EAD10AF00303012BD3
:103F00001CD1BBF1000F19D00D9B002B40F0F980A4
:103F10001AF00C0F40F0F580AB4540F2D380202D15
:103F20000BD030220C996B1E0B4401355D4503F814
:103F3000012F00F08D80202DF7D12025DDE906230B
:103F4000DDE904010C9CCDE902BA01950094FFF76C
:103F500027FB17B0BDE8F08FCDE92089DDE9062306
:103F6000DDE90401CDE923BA229417B0BDE8F04F92
:103F7000FFF7C2BC4F4DCDF88CA00AF0040ABAF18D
:103F8000000F4D4C18BF2C46DDE90623DDE9040186
:103F900020940CBF03240424CDF888B0219417B0DA
:103FA000BDE8F04FFFF7FCBA4B4642460020002127
:103FB000FFF7DAF901231AF48065804689460D93EC
:103FC0007FF417AF9FED367B0EAB06268DED087B99
:103FD0000C9326E70424DDE90623DDE90401374DCF
:103FE000CDF88CA0CDF888B02095219417B0BDE80D
:103FF000F04FFFF7D5BA0C9B681EDFF8C4C0184419
:104000000DE0ACFB0721C90801EB8102A7EB4202DE
:104010003032092F00F8012F27D90F461D46202DD9
:1040200005F1010306F1FF36EBD120254BE7002215
:10403000DDE90A011D4BFFF779FA00287FF427AF6D
:10404000002F5AD1013722E70AF00303012B75D064
:10405000202D3FF473AF0D9BBBB32D2205F1580308
:104060006B4403F8202C013568E7202BDDD0AEB37C
:104070000C9A1E441544302201E0B3422ED0013385
:10408000202B05F8012FF8D1CFE71D46C5E600BF6C
:104090000000000065CDCD410000000065CDCDC120
:1040A0000000000080842E41FFFFEF7F0000E03F12
:1040B00067666666E8940010F0940010F8940010AB
:1040C000CDCCCCCC202D3FF439AF1AF0040F0DD15C
:1040D0001AF0080F3FF432AF2022BFE72E2103F180
:1040E00058026A4402F8201C5D1CECE62B22B5E75E
:1040F000E3077FF5E8AE0134E5E6FA077FF5C7AEE2
:10410000A0E70BF1FF3BAB453FF609AFA0E7032467
:10411000DDE90623DDE904010A4DCDF88CA0CDF8D8
:1041200088B061E7084B264603EBC40393ED007BA0
:104130000EAB8DED087B00250C9372E6BBF1000FF2
:1041400086D0E1E6F4940010209700102DE9F04F9E
:104150009A469BB0249C964D0B94964C0B1E18BF10
:10416000834625609AF80000934C0A9308BFA34643
:104170000992002800F0BC824FF000090AE04A468C
:10418000099B0A9909F10109D8479AF8000000280B
:1041900000F0CE8025280AF1010AF0D10023524612
:1041A00012F8010BA0F1200110290AD8DFE801F074
:1041B0004009093C090909090909093809340909AB
:1041C0003000A0F13001092940F28C802A2800F04B
:1041D000F58000210C912E2800F099800027A0F195
:1041E000680112292DD8DFE811F057012C00510188
:1041F0002C0045012C002C002C002C002C002C0045
:104200002C0027002C002C002C002C002C00270058
:10421000924643F00103C2E7924643F00203BEE731
:10422000924643F00403BAE7924643F01003B6E720
:10423000924643F00803B2E79AF8010043F4807312
:1042400001326728924600F28280242840F2C6801C
:10425000A0F12502422A00F2C180DFE812F05F01DE
:10426000BF00BF00BF00BF00BF00BF00BF00BF0056
:10427000BF00BF00BF00BF00BF00BF00BF00BF0046
:10428000BF00BF00BF00BF00BF00BF00BF00BF0036
:10429000BF00BF00BF00BF00BF00BF00BF002601BE
:1042A00045012601BF00BF00BF00BF00BF00BF0027
:1042B000BF00BF00BF00BF00BF00BF00BF00BF0006
:1042C000BF00BF00D301BF00BF00BF00BF00BF00E1
:1042D000BF00BF00BF00BF00D3016701D3012601AB
:1042E00045012601002100E0013201EB810100EBD4
:1042F000410110789246A0F13004092CA1F130015F
:10430000F2D92E280C9102F101027FF467AF9AF8DE
:1043100001001146A0F13006092E43F4806340F2FB
:1043200031812A2800F03E8192460027013256E76B
:104330004C46099B994501D303F1FF394A460020B9
:10434000099B0A99D84720461BB0BDE8F08FA0F121
:104350006902D2B20F2A41D8012649F241019640A2
:104360000E4040F001810A2A3FD0072A36D10B9C2B
:1043700054F8042B002A00F0288143F021010DF1AC
:10438000480E704603E0202E00F029811A4602F004
:104390000F052B46092D94BF303337330F2A00F811
:1043A000013B06F101064FEA1213ECD817E100BFFA
:1043B0004D410010802600209D3500100B9C9AF87E
:1043C000010054F8045B9246002DBDBF694243F0E2
:1043D00002030C910C950B940132FCE64A46099BB2
:1043E0000A9909F10109D847CFE60B9951F8048BD6
:1043F00098F800201046002F40F0E18072B16FF075
:10440000010C0CF1010C4646C44401E0664503D0A2
:1044100016F8014F002CF9D1A6EB080613F4806CB6
:1044200002D0BE4228BF3E4613F0020400F087814E
:10443000002A00F02B81BCF1000F00F041810B94A9
:104440000D964A46DDE909540E464F4408E02B46D6
:104450002146D84718F8010F09F1010910B14A4661
:104460004F45F4D131460B9C0D9E002C40F00E813F
:104470000B918AE69AF801006C287FF4DFAE9AF877
:10448000020043F440730AF10302DAE69AF80100ED
:1044900043F400730132D4E69AF80100682800F072
:1044A000208143F080030132CBE6672800F0E780EB
:1044B000472800F00081452800F0FF800B9C049302
:1044C0000C9B0734CDE9027324F007031C46DDE999
:1044D0000931F4E802674A465846CDE900670B9473
:1044E000FFF70AFA814650E646280B9C08BF43F0C6
:1044F000200304930C9B0734CDE9027324F00703D7
:104500001C46DDE90931F4E802674A465846CDE920
:1045100000670B94FFF720FC814636E64A462520CB
:10452000099B0A9909F10109D8472EE60B9A9C07C5
:1045300002F1040709F1010640F1E6801078099BB9
:104540004A460A99D8470C9B012B40F22C81DDE9A1
:104550000954994432462B46214620200136D8473B
:104560004E45F7D10B9710E66F2800F08B8040F294
:104570006581782800F008814FF00A0823F01003C5
:10458000C44647E0002707EB870700EB4700A0F190
:10459000300711F8010FA0F13002092AF3D98A4639
:1045A0004A1C1CE60B9C9AF8020054F8047B0AF1A2
:1045B000020A0AF101020B9427EAE7770FE6002AC4
:1045C0003FF42CAF07F1FF3C1BE723F0100113F47D
:1045D000806241F021013FF4D2AE0DF1480E082374
:1045E0001020059300234A46CDE902300691584633
:1045F000DDE90931CDE900E60497FFF71FF80B94D8
:104600008146C2E5582879D0622840F051824FF0A7
:104610000208C44613F480606DD123F00C0313F438
:10462000007240F0C2800B9904310D9113F4807137
:1046300040F02E825E060B9A40F1AA801278002A82
:1046400040F0DA8023F01003002800F0D5801146F6
:104650000DF1480E06930C9BCDF80CC0CDE9047308
:10466000019100234A4602935846DDE90931CDF80D
:1046700000E0FEF7E3FF0D9B81460B9385E543F4D5
:1046800000631BE74FF00808C446C3E70C9B4C4689
:10469000B3427FF6EDAE0F464B44A3EB0609DDE9CE
:1046A000096522463346294620200134D8474C4527
:1046B000F7D13946DCE643F4006343F02003FDE61E
:1046C0000F460B94DDE909544A462B462146D8474C
:1046D00018F8010F09F101090028F5D139460B9CA2
:1046E000C3E69AF8020043F0C0030AF10302A8E50A
:1046F000044681461DE623F00D0390E74FF01008B5
:1047000043F02003C44685E70C9B012B45D9DDE926
:1047100009544E4609F1FF38984432462B4621464B
:1047200020200136D8474645F7D10C9B32469944A4
:104730000B9B1878DDE90931D8470B9725E50C9BD1
:10474000B34240F2EE81CDE90D48DDE909548846D7
:104750004B449E1BCDF82CC04A462B4621462020B8
:1047600009F10109D847B145F6D14146DDF8388055
:104770000C9BDDF82CC00D9C98F800205E1C1046A8
:10478000002A7FF458AE73E64FF01008C44641E7A4
:104790001D064CBF1288126851E713464A46187826
:1047A000DDE90931D847B146DCE60B9C073424F03B
:1047B00007042246656852F8084B0B9254EA05023A
:1047C00040F02C8123F01003002800F02781002600
:1047D0000DF1480E06930C9B4A46CDE90473002365
:1047E000CDE900E6CDF80CC002935846DDE9093169
:1047F000FEF724FF8146C8E413F0200F14BF4120C8
:1048000061200DF1480E7646A0F10A0803E0202948
:104810003FF420AF2246B2FBFCF40CFB1425E8B2B7
:10482000092D00F130058ABF4044E8B2C0B26245AC
:1048300006F8010B01F10101E9D20BE723F01002A8
:1048400069280D9240F06F8113F4806204D04FF418
:10485000806223F011030D930D9B13F4007640D179
:104860000B9B03F104080D9B13F4807040F09880BB
:10487000590640F1C6800B9B19780C46CB0F0029D6
:1048800000F0B98022460DF1480E74461646DFF856
:10489000A0C201E020280FD03546ACFB0621C90894
:1048A00001EB8102A6EB42023032092D0E4600F1E7
:1048B000010004F8012BEDD80D9ACDE90103069211
:1048C0000C9ACDE904720A234A4603935846DDE95F
:1048D0000931CDF800E0FEF7B1FECDF82C8081461D
:1048E00053E40B9C073424F0070421460846636810
:1048F00050F8081BDC0F0B9051EA030000F0C38056
:104900000A46191E48DB13460DF1480EF4460026F0
:10491000CDE90E94DFF8188201E0202E2DD05A1830
:1049200042F10002A8FB025929F0030505EB9905A5
:10493000521B1C469B1A61F1000508464FF0CC3112
:1049400001FB03F108FB0511A3FB085319440523E0
:1049500005F00109A9FB03399B180A2C03F1300368
:104960004FEA550570F100000CF8013B06F1010615
:1049700045EAC1734FEA5101CFD2DDE90E940D9B98
:104980004A4606930C9BCDE90164CDE904730A23E2
:10499000CDF800E0039328E7524261EB4101B2E712
:1049A0000B9B1968CB0F002900F0AB8081EAE17204
:1049B000A2EBE1720DF1480E7046DFF874C101E020
:1049C000202E10D01546ACFB0241C90801EB810432
:1049D000A2EB440404F13002092D00F8012B06F18A
:1049E00001060A46ECD80D9ACDE9016306920C9AAD
:1049F000CDE9047267E7002A3FF445AF0DF1480E98
:104A00005AE713F0800F0B9B00F08180B3F9001080
:104A100081EAE174A4EBE174A4B22FE713F0200F54
:104A200014BF412261220DF1480E0A3ACDE90D97DB
:104A3000CDF844B000267746F3469146CDE90F3CC9
:104A400003E0202E17D004460D4629464246002397
:104A5000204604F0E5F9D2B2092A02F1300388BFFA
:104A600002EB09034445DBB275F1000507F8013B91
:104A700006F10106E5D2DE46DDE90D97DDE90F3CE2
:104A8000DDF844B0A6E6002A47D1134611463BE7BD
:104A90000B990968A1B923F0100388B10DF1480EF4
:104AA00006930C9BCDF80CC0CDE904730192D8E5B8
:104AB00013F480627FF4CBAE23F010030D93CBE6AA
:104AC00013F0200F14BF412061200DF1480E7646EF
:104AD000A0F10A0802E0202AE2D02146B1FBFCF452
:104AE0000CFB1415E8B2092D00F130058ABF4044D3
:104AF000E8B2C0B2614506F8010B02F10102EAD248
:104B0000CEE7002A3FF456AF0DF1480E6BE7196867
:104B100081EAE174A4EBE174B0E600260DF1480EE1
:104B20002DE701362BE64FF00A081346C44671E51F
:104B3000CDCCCCCC70B594461E4605460C4684B010
:104B40004FF0FF32634602A900960348CDE90254B4
:104B5000FFF7FCFA04B070BDE938001010B5094B3E
:104B600084B01C684CB1034600914FF0FF3203A99A
:104B70000548A047012004B010BD00F043FA2046CC
:104B800004B010BD80260020E138001000BEFDE713
:104B9000074A0346106838B1064903448B428CBF6C
:104BA0004FF0FF3013607047034908461160F3E788
:104BB00078220020000008206C27002003460846C9
:104BC000114623B9034BD3E9002300F035B94FF068
:104BD000FF307047C0960010431E012B09D810B556
:104BE0001446084601230022214600F0ADF8204675
:104BF00010BD4FF0FF3070474FF0FF30704700BFDF
:104C00004FF0FF30704700BF08B5FFF7BFFF00BF90
:104C100038B5064C064DFEF753FAAC4204D254F8B0
:104C2000043B9847AC42FAD338BD00BF908E0010C9
:104C30009C8E00100368084611461847437D2DE9F5
:104C4000F04781460F461646002B43D0002A3BDD35
:104C5000037D00204D1E014615F8012FDFF88480EA
:104C60000A2A01F101040ED0A6421CD02B7821465D
:104C7000A3F10D03B3FA83F315F8012F5B090A2A98
:104C800001F10104F0D1002BEED18142A1EB000132
:104C900038441BDC02214046D9F800309847A64230
:104CA00008D02046E2E7864204DD311AD9F8003008
:104CB00038449847374417F8013CA3F10D03B3FA81
:104CC00083F35B0989F81430BDE8F087D9F8003028
:104CD0009847DFE73846D9F800301146BDE8F0477D
:104CE000184700BF709700100B682DE9F041802B2A
:104CF0000D46064605D05A1C2B442A601E71BDE89D
:104D0000F0810F4B1C68A4B10E4F01F1040801E0C3
:104D1000246974B12368002BFAD03B680BB1A3421D
:104D2000F6D1204641462A68FFF788FF2469002C07
:104D3000F0D1002301222B442A601E71BDE8F081CE
:104D400068220020702200202DE9F04782B00D4635
:104D5000924699460746FDF7DBFD4FF0FF366FF0B0
:104D600000442F4A821841F10003964274EB03017C
:104D70003CBF324623462B4804F062F86B1C804649
:104D800003D1384603F0A0FE0546274B274E1C688A
:104D9000274BB9F1000F18BF1E46B4B1BAF1000F8E
:104DA0001AD1DFF8909001E0246974B12368002BD8
:104DB000FAD0D9F800300BB19C42F5D120462A46F2
:104DC0003946B0472469002CF0D1B8F1000F1FD14B
:104DD000284602B0BDE8F0874FF00A0ADFF8549089
:104DE00002E02469002CF0D02368002BF9D0D9F818
:104DF00000300BB1A342F4D12A4639462046B047D1
:104E0000012220460DF107018DF807A0B047E8E721
:104E1000044804F009F8284602B0BDE8F08700BF56
:104E200040420F004C17002068220020354C001033
:104E30003D4C0010702200202DE9F04F98460746A7
:104E40000E4683B0DFF860B0DFF86090DFF860A056
:104E50000192DBF8004014B911E024697CB1D9F863
:104E600000500DB1A542F8D1A268002AF5D0314614
:104E7000384690470028F0DD03B0BDE8F08FDAF83F
:104E8000242090450BD8DAF82810019B994204D3CE
:104E90006FF0010003B0BDE8F08F9045F8D101201C
:104EA0000021FDF73FFDD4E768220020702200209A
:104EB00000000B400A4A13684BB1834202D109E05B
:104EC000984207D003F110021B69002BF8D101B101
:104ED000106070470029FCD10369136001617047BD
:104EE0006822002008B500F0EDF900F023FC012055
:104EF00008BD00BF2DE9F04182B00646FDF708FD70
:104F00004FF0FF326FF00043361841F10007B24214
:104F100073EB07013CBF16461F46DFF86080154D56
:104F2000D8F8004014B912E0246984B12B680BB1A1
:104F30009C42F9D1A368002BF6D0012101A8984723
:104F40000028F1DD9DF8040002B0BDE8F0810A4BB5
:104F50005A6A974209D89B6AB34204D36FF00100A2
:104F600002B0BDE8F0819742F8D101200021FDF7A1
:104F7000D9FCD5E77022002000000B4068220020F9
:104F8000F0B583B006468DF80700FDF7C1FC4FF081
:104F9000FF356FF00044174A821841F10003954233
:104FA00074EB03013CBF23462A46134803F048FF35
:104FB000124B07461C689CB1114D01E024697CB17D
:104FC0002368002BFAD02B680BB19C42F6D1204607
:104FD00001220DF10701FFF731FE2469002CEFD10A
:104FE00017B9304603B0F0BD034803F01DFF30464B
:104FF00003B0F0BD40420F004C1700206822002093
:105000007022002038B5044603F05EFD01230546FA
:105010001A4620462946FFF797FE084B1C682CB11C
:1050200063682BB198472469002CF9D1284638BD14
:105030002469002CF4D1284638BD00BF6822002026
:105040002DE9F041A2B004460D46FDF761FC4FF09A
:10505000FF376FF00046274A821841F1000397425C
:1050600076EB03013CBF3A463346234803F0E8FEA3
:1050700000262B4607462246204801A90196FFF745
:1050800059FD019B06467BB91D4B1C682CB163681A
:1050900043B198472469002CF9D10FBB304622B0A8
:1050A000BDE8F0812469F1E7DFF85480D8F80050BA
:1050B000EDB1144C01E02D6975B12B68002BFAD0CD
:1050C00023680BB1AB42F6D12846019A02A9FFF73B
:1050D000B5FD2D69002DF0D1D8F800400195D5E738
:1050E000054803F0A1FE304622B0BDE8F0810195ED
:1050F000D3E700BF40420F004C170020E94C0010DE
:1051000068220020702200200FB400B583B004A9EB
:1051100051F8040B0191FFF793FF03B05DF804EB26
:1051200004B07047B1F1000C1DDD0F4A0F4B12683F
:1051300030B5D31AB3FA83F30D240D4D5B09411E2C
:1051400035F913E08C4411F8010F864506D09369B8
:105150009B06FCD461451060F5D130BD93699D0676
:10516000FCD41460F3E770474C2700200080074010
:1051700048270020224BB1F1000C10B41C682EDD32
:10518000034600201F4A591E12689369DB0617D494
:1051900001309369DB06FCD41368844501F8013FB4
:1051A000F3D14CB150211346916353F8342F02F0E0
:1051B000380203F580531A6060465DF8044B70476F
:1051C0004CB150211346916353F8342F02F038024A
:1051D00003F580531A6078B15DF8044B70475CB1F9
:1051E000084B50211A681346916353F8342F02F08C
:1051F000380203F580531A606FF00200ECE700BF3D
:10520000002200204C270020054B1B6833B10021F1
:10521000044A05481268006891631847704700BF48
:10522000002200204C27002008220020024B1A6890
:1052300093691B07FCD470474C270020F8B51C4F1E
:105240001C4D3A681C4EAA4214BF21252225044653
:10525000D6F800C018B1BCF1000F10D0F8BDBCF1F9
:10526000000FFBD0014690632846FCF767FB2846F9
:105270001249FCF7C9FC124B34601C60F8BD0B46A8
:105280000F4A0E49306028461360FCF799FB012154
:105290002846FCF753FB3A6850211346916353F8B4
:1052A000342F02F0380203F580531A60F8BD00BFB6
:1052B0004C270020008007400022002009520010E7
:1052C0000822002010B50E490E4C0F480F4A104B13
:1052D000007821600020022112781B78FCF7DAF9AF
:1052E00002210120FCF7D6F94FF4E1312068FDF7E7
:1052F0005DFBBDE8104001210648FFF7DBBD00BFA4
:10530000000007404C27002074990010709900108D
:105310006C990010AC110020704700BF0022014BB7
:105320001A707047652700204B79FF2B0BD18879C5
:1053300048B9CB79012B07D1082A05D9034B8A78C4
:1053400009201A7070470020704700BF65270020B1
:1053500001207047012901D00120704708B5104B8A
:1053600091881B78994201D0002008BD5378012B09
:1053700008D0022BF8D1002164220846FDF7DCFD9D
:10538000012008BD5188CB054BBF4A0A4A0A104686
:105390004FF0FF3002F0010201F07F01FDF74AFEFD
:1053A000652700200048704758980010012907D150
:1053B0005378012B02D19388072B03D0002070472C
:1053C000012070471146A623014A01F041BA00BFEF
:1053D000B09700100346012201481A70704700BFC1
:1053E0009097001008B50B68B3F5966F00D008BD14
:1053F00000224FF0FF301146FDF71CFE024A034B1E
:1054000010601960704700BF042200200C220020A9
:10541000184B70B51A68002A28D0EFF3108172B6C5
:10542000D2E8CF4F0120002CFAD1C2E8440F002C63
:10543000F6D1BFF35F8F00220F4C186859602270BD
:10544000C0E88F2F81F31088002400250B4E3078A0
:10545000FCF78AFA20B9002400252046294670BDB1
:105460003078FCF791FA2046294670BD4FF47A74E3
:105470000025EBE70C270020682700206627002086
:10548000014B1878FCF780BA6627002038B504462F
:1054900000200D4601F008FBA8B3002001F01AFB24
:1054A00088B3FDF735FA4FF0FF3E6FF0004C174A16
:1054B000821841F1000396457CEB03013CBF724624
:1054C0006346134803F0BCFCE8B1002001F0ECFA9D
:1054D00058B900214FF0FF3000F012FD6FF00204C8
:1054E0000B4803F0A1FC204638BD002001F0F2FA81
:1054F0000028EED021462A46002001F0F7FA0446A3
:105500000028EDD1EAE76FF00204ECE740420F001B
:105510004027002008B5FDF7FBF94FF0FF3E6FF084
:10552000004C0F4A821841F1000396457CEB0301C1
:105530003CBF724663460B4803F082FC70B14FF0EB
:10554000FF30002100F0DCFC002001F015FB0028FA
:10555000F5D1BDE80840034803F066BC08BD00BFB4
:1055600040420F00402700202DE9F84307460E4631
:10557000FDF7CEF94FF0FF356FF00044334A821843
:1055800041F10003954274EB03013CBF2A462346D8
:105590002F4803F055FC08B9BDE8F883002001F05E
:1055A00083FA002848D0002E41DD0025DFF8A480D2
:1055B000DFF8A49013E02246002001F023FB002135
:1055C00004464FF0FF3000F09BFC002001F0D4FABD
:1055D000FDF79EF9C8E900012544AE4227DD002011
:1055E00001F032FB741B8442A8BF04467919002CD9
:1055F000E1D121464FF0FF3000F082FC204601F05F
:10560000BBFA204601F050FA88B1204601F01CFB9D
:105610000028E2D1FDF77CF9D8F80030D8F8042052
:1056200013EB090342F1000283428A41D5D20848B4
:10563000BDE8F84303F0F8BB00200021054BC3E9A7
:105640000001BDE8F843024803F0EEBB40420F0002
:1056500040270020C019002020A1070030B50021FC
:1056600085B02E4803F0F0FBF0B92D4B1A68CAB193
:10567000EFF3108172B6D2E8CF5F0124002DFAD18A
:10568000C2E8454F002DF6D1BFF35F8F254C1D6852
:1056900022785960D3B201222270C5E88F0F81F3BE
:1056A0001088CBB105B030BD00214FF0FF3000F0C5
:1056B00027FC002001F00EFA0446184803F0B4FB62
:1056C000002CEFD0184B1B68002BEBD0174A10684A
:1056D00005B0BDE830401847FCF76EFE0446FDF704
:1056E00017F94FF0FF3C6FF0004510F57A7241F169
:1056F0000003944575EB030138BF2B464FF00001C2
:105700004FF0010520460A4C38BF6246CDE901152D
:105710000094FCF755FE05B030BD00BF40270020C7
:105720000C27002068270020042200200C220020E3
:10573000115400104FF0504330B585B01C68FCF791
:105740003BFEFCF74FFFA04202D0002005B030BD69
:1057500000212A4B08461B7801F046FD28480368C3
:10576000002B47D00120FCF7ABFB0346254C264914
:10577000C0B22370FCF724F920780121FCF7DEF891
:105780000E20FCF70DF940BB204B0125C3E90000BA
:10579000FCF712FE0446FDF7BBF84FF0FF3E6FF03A
:1057A000004C10F57A7241F1000396457CEB030141
:1057B0004FF000012046164C3CBF72466346CDE9CF
:1057C00001150094FCF7FCFD0028BEDB0121114807
:1057D000FFF770FB012005B030BD0120FCF76AF82F
:1057E00001460A48FCF7C8FB00220E200A49FCF7D4
:1057F00017F9EBE7FCF7A4FBB4E700BF78990010BA
:1058000040270020662700205D5600100C2700204E
:1058100011540010C411002081540010004870473A
:10582000F498001000487047A098001038B5184B45
:1058300004461A780AB344B940F209424FF441735E
:10584000144D6A8013482B8038BD052C1AD8124B92
:10585000104D53F8241028460023013903E0132B80
:1058600020F8022F10D011F8012F0133DBB2002AEB
:10587000F5D15B0043F44073E4E71121184600F0D2
:1058800025F8D8E7002038BD4FF44A73DAE700BFA7
:1058900050270020402200208898001000B545F2D3
:1058A00047308BB0FDF7BAFB01220346092101A85E
:1058B0009847DDE90332044912BA1BBAC1E9002353
:1058C0000BB05DF804FB00BF34270020012901F173
:1058D000FF3300F0B3805D490A784FEA121C9F2A1B
:1058E0008CBF0CF1370C0CF1300C012B80F800C090
:1058F00000F0A78002F00F02092A8CBF3732303245
:10590000022B427000F09D804A784FEA121C9F2AB9
:105910008CBF0CF1370C0CF1300C032B80F802C05B
:1059200000F08F8002F00F02092A8CBF373230322C
:10593000042BC27000F085808A784FEA121C9F2ADF
:105940008CBF0CF1370C0CF1300C052B80F804C027
:1059500077D002F00F02092A8CBF37323032062B83
:1059600042716ED0CA784FEA121C9F2A8CBF0CF18C
:10597000370C0CF1300C072B80F806C061D002F018
:105980000F02092A8CBF37323032082BC27158D02F
:105990000A794FEA121C9F2A8CBF0CF1370C0CF1CC
:1059A000300C092B80F808C04BD002F00F02092AF6
:1059B0008CBF373230320A2B427242D04A794FEADA
:1059C000121C9F2A8CBF0CF1370C0CF1300C0B2BE6
:1059D00080F80AC035D002F00F02092A8CBF373296
:1059E00030320C2BC2722CD08A794FEA121C9F2ABB
:1059F0008CBF0CF1370C0CF1300C0D2B80F80CC067
:105A00001FD002F00F02092A8CBF373230320E2B22
:105A1000427316D0CA7911099F2A8CBF37313031B1
:105A20000F2B81730DD002F00F02092A94BF303280
:105A30003732102BC27318BF103002D0002303700E
:105A40007047184400230370704700BF34270020BC
:105A500070B500F033F90C2340261B4CFF22A367DE
:105A60000E201A49FBF7DCFF194B3246002118467D
:105A700002F060F90346002101258020154A588470
:105A80009A60843A5D701E831E875960C2F8841044
:105A9000C2F8801002F58072DA60DA62803A83F828
:105AA000211083F83B1059629A624FF0005603F0C0
:105AB000B3F94FF480320849084B25642846E66460
:105AC000C4F89010DA6470BD00001150A9030020E2
:105AD0007C2200208400105010D0010000201150C2
