:020000041000EA
:10000000002008205D0100101B0100101D010010E0
:100010001101001011010010110100101101001058
:100020001901001019010010190100101F01001022
:10003000110100101901001021010010230100100E
:100040001101001011010010110100101101001028
:100050001101001011010010110100101101001018
:100060001101001011010010110100101101001008
:1000700011010010110100101101001011010010F8
:1000800011010010110100101101001011010010E8
:1000900011010010110100101101001011010010D8
:1000A00011010010110100101101001011010010C8
:1000B00011010010110100101101001011010010B8
:1000C00011010010110100101101001011010010A8
:1000D0001101001011010010110100101101001098
:1000E0001101001011010010110100101101001088
:1000F0001101001011010010110100101101001078
:100100001101001011010010110100101101001067
:10011000EFF30580103800BE00BE00BE00BE00BE7A
:1001200000BE00BEF2EB8871703301109C330110E9
:10013000A001001090A31AE7D3DEFFFF42012110B7
:10014000FF010000543F0100793512AB4FF0000071
:100150001E49086006C881F3088810474FF05040D8
:10016000006810B14FF00000F2E70DA40ECC00299A
:1001700002D000F012F8F9E71549164A002000E015
:1001800001C19142FCD11449884714498847144958
:10019000884700BEFDE701C901C29A42FBD3704700
:1001A0009C33011010010020000E00208C40011033
:1001B00000000820000008208C40011000100820DA
:1001C00000100820000000007047000008ED00E06B
:1001D000000E002088A8012071450010E1090010E0
:1001E00069450010F8B500BF0348044B834202D0B4
:1001F000034B03B118477047000E0020000E00208B
:1002000000000000064B0749C91A891048BF013198
:10021000491003D0044B0BB101481847704700BF89
:10022000000E0020000E00200000000010B5064C5B
:10023000237843B9FFF7D8FF044B13B10448AFF359
:1002400000800123237010BDD8220120000000008F
:100250002C20011008B5044B1BB104490448AFF32E
:100260000080BDE80840CDE700000000DC2201204E
:100270002C200110044A0421137883F00103137029
:1002800043EC4010012070477DA80120044A05215D
:10029000137883F00103137043EC40100120704782
:1002A0007EA80120024692F83920044B12F0040F78
:1002B0000349044818BF194604F052BB302001100E
:1002C000382001104020011008B5043010F0FEFD68
:1002D000BDE808400146014804F042BB602001101F
:1002E0002DE98048A94EDFF80CB3A94FA94C85B081
:1002F00008F000FAA84BD3F8009000F059FC3368DE
:10030000C51AC5F30B05B5F5406F40F2F980A34956
:10031000A0F500600A68C0F30B03A2F500622A444E
:100320004FF400650A609E490A6801320A60BBF812
:100330000020C2F1F001A9428E4628BFAE46BEF1B0
:10034000000F49D002EB4200400019303844CDF88C
:100350000C909C4681460EEB03080021CCF30B0366
:100360005B0054F82300013354F823304FEA204A4D
:100370006AF307014FEA206A001209F8010C6AF3D8
:100380000F21181260F317410CF1010C181460F3DF
:100390001F611B16E045C9F8001089F8043009F107
:1003A0000609DAD1724492B2C8F30B03EF2ADDF8E2
:1003B0000C90A5EB0E053360ABF8002013D8002D90
:1003C00096D0C2F1F001A94228BF294602EB4200B3
:1003D0008E4633684000B8E7C3F30B03EF2A33605F
:1003E000ABF80020EFD96F4B1B6843B1B9F1000F98
:1003F00005D099F8393003F00503052B07D06A4A78
:100400001368013313600022ABF80020D7E7D9F856
:10041000040008F025FC8046D9F8080008F020FC0C
:10042000B8F1000FEBD00028E9D0604B1B78002B0F
:10043000E5D001F037FF002900F09B8000234FF446
:100440007A7211F0B5FD034640F6B8325849096892
:100450005B1A934200F29280544B1B78002BCED053
:10046000504B494618680DF00FFF5249524B0A682D
:100470001B689A4209D050480B6010F027FD41F2EA
:10048000573102464D4804F06BFA4D4A4D4B4FF43C
:10049000B761C7E90023F0234B4A7B61136836201C
:1004A000FB6001331360494B4FF4C1729B6A3B619F
:1004B000474BBB6009F010F98046002837D04FF455
:1004C000B762334909F0B8FB8246E8B909F1040381
:1004D00034480193CDF80090414641F25733364AF3
:1004E00000680DF0F9FD01464046884609F062FAC1
:1004F000B8F1000F2DD1374A13680133136082E73A
:10050000002D7FF414AFF3E6404609F053FA264A73
:1005100051461368304801331360304A1368013381
:1005200013602F4BC3F800A004F01AFA6BE74FF0EA
:10053000FF321D492B480B6801330B6027490B68BC
:1005400001330B60264B4FF4B7611A6004F008FAD0
:1005500059E7154A414613682348013313601F4A7F
:100560001368013313601E4BC3F8008004F0F8F9E0
:1005700049E71E4AA2FB00239B0965E71C4804F0DB
:100580006DF90023094A137039E700BF34310120A7
:10059000742B012000800020DCA70120642B0120A7
:1005A00038310120483101202C31012071A801206F
:1005B0006C2B0120682B012044310120AC2001105C
:1005C00041554430010203014031012000000B403D
:1005D00000EE020030310120002101103C310120E9
:1005E000702B0120DC20011020210110D34D62105E
:1005F0007C2001105CA80120002A30D0F8B51D46EF
:100600001D4B144619782A68D9B11C4E37683260E0
:10061000BF1A4FF0010218BF01271A7001F042FE05
:10062000C1B14FF47A72002311F0C2FC144B32684E
:100630001860144B1A609FB92046BDE8F84009F0D5
:10064000B9B90E4E0127326001221A7001F02AFE5C
:100650000029E6D10C4BA3FB00308009E6E7704788
:10066000284610F033FC0146084804F079F920468A
:10067000BDE8F84009F09EB971A80120443101207D
:100680006C2B0120682B0120D34D621048210110F2
:1006900010B50446044804F063F924B12046BDE8CF
:1006A000104008F00BBC10BD742101102DE9F04181
:1006B000194C90B0206858B304AE10223146043073
:1006C00010F072FC206808AF10223946083010F094
:1006D0006BFC20680DF13008102241460C3010F000
:1006E00063FC24680D4D94F83940DFF844C014F0E1
:1006F000040F0B4908BF294614F0010F094ACDE940
:10070000017808BF6246084B0848009604F028F9B3
:10071000012010B0BDE8F081DCA7012038200110D5
:10072000302001109021011098210110A02101100A
:100730009421011030B5104A104B114C114D116825
:100740001A6823682D6885B00F48009500680F4D22
:1007500001902D880E48029504F002F9236813B920
:10076000012005B030BD0B4B0B48196804F0F8F8B8
:10077000012005B030BD00BF303101202C310120F7
:100780003C31012038310120642B01205CA801207C
:10079000D4210110702B01202822011038B51446F5
:1007A00022BB081D0D4610F091FB2A8B014615480F
:1007B00004F0D6F8022008F0A9FC0146E0B1284672
:1007C0000C8009F003FF28460F4909F003FF284673
:1007D0000E4909F003FF022228460D4909F00CFFDB
:1007E00028460C4909F0FEFE204638BD11460A484D
:1007F00004F0B6F8204638BD084804F02FF84FF052
:10080000FF3038BD5C2201102108001041090010A2
:100810009109001091060010442201108422011059
:10082000F8B514468BBB07460E46002A3ED0118908
:10083000304804F095F83046218909F02BFC204619
:1008400009F0B8F8002F51D03B7813B100252846A5
:10085000F8BD012428483C7004F000F823466822C3
:10086000304626490CF010F80546D0B930460CF059
:100870008DFE304622497C7009F0B0FE02223046DF
:10088000204909F0B9FE0025E1E719461E481D463A
:1008900004F066F8002CDAD0204609F08BF82846E0
:1008A000F8BD0146194804F05BF8D0E7184803F09A
:1008B000D5FF184803F0D2FF2146304609F086FEE6
:1008C0002146304609F086FE2146304609F086FE74
:1008D00022462146304609F08FFE17B1384608F00F
:1008E000EDFA3046BDE8F8400AF0B0BA6FF0050501
:1008F000ADE700BF10230110342301109C2E01101E
:100900004109001091090010AC2201105C23011074
:10091000C4220110F422011070B584B00E461546B1
:10092000044601F0C5F900234FF47A72CDE9006363
:10093000029584FB022301F0BDFB04B070BD00BF33
:1009400028B138B5437804461BB9002038BD0020D3
:1009500070470D460D4803F081FF2846002109F03D
:1009600035FE2846002109F035FE2846002109F011
:1009700035FE00222846114609F03EFE204608F0CA
:100980009DFA2846BDE838400AF060BAF42201100A
:1009900028B138B5437804461BB9002038BD002083
:1009A00070470D460D4803F059FF2846002109F015
:1009B0000DFE2846002109F00DFE2846002109F011
:1009C0000DFE00222846114609F016FE204608F0CA
:1009D00075FA2846BDE838400AF038BAF42201100A
:1009E00030B5042095B000F003FB4FF00104042360
:1009F00044EC4430052000F0FBFA052344EC44307D
:100A0000514A52496420FFF787FF07F0C7FD50485D
:100A100003F024FF08F018FA03A807F04DFE0028A1
:100A20007CD1044603A807F0FBFD4A4903A808F05F
:100A3000EBFD494903A808F0AFFD03A808F094FDB9
:100A400003A808F097FD6FF07F43444A4449CDE97D
:100A50000023029102AB01AA694603A808F024FD15
:100A600004A810F033FA01463E4803F079FF3E4BEC
:100A70003E4A3F4941F2883003AD1D60FFF74CFF0D
:100A800000F0A6F800F094F802463A4B20461A60AF
:100A90000DF06EFC384D2860002851D041F25732DD
:100AA00036490DF091FA024600283ED128683449B3
:100AB000437A43F0200343720DF024FC41F2573196
:100AC000304803F04DFF4FF4FA602F4A2F49FFF7EB
:100AD00023FF09F0BBFF044670B12849502209F0FA
:100AE000F7F9FF21204609F065FA28B1284909F0F5
:100AF0007DFD284803F0B2FE274806F063FF124848
:100B000001F068FB04234FF0010242EC40304FF447
:100B1000FA700D4A2149FFF7FFFEFEE7204803F077
:100B20009DFE4FF0FF3015B030BD1E4803F096FE1D
:100B300028680DF0F1FB2C601B4803F08FFEC2E724
:100B40001A4803F08BFEF7E7A0220120750200107F
:100B500078230110A5020010C9020010C0A801648A
:100B6000C0A80101C4230110DCA70120B822012084
:100B7000AD060010343101204831012054330110FA
:100B8000F90500101C240110002101203507001078
:100B90009D07001088240110E10200108D02001052
:100BA000A02301100024011048240110E0230110AB
:100BB000044B054A1B689B0103F1A0435868801A47
:100BC000C0087047EC3101200080002000000000C8
:100BD000F0B506208BB000F00BFA072000F008FA01
:100BE000162000F005FA06224FF0010343EC4420E2
:100BF000072243EC4420162243EC4420002343EC1C
:100C0000402042F20F720193019B934205DC019B4D
:100C100001330193019B9342F9DD16224FF001034A
:100C200043EC40200024062244EC4020072743ECFC
:100C30004070374D3749284607F0B2FE3946064620
:100C4000152000F04DF93946132000F049F93946D6
:100C5000142000F045F922462146152000F05EF9E7
:100C600022462146132000F059F92246214614203D
:100C700000F054F94FF480324FF4F8334FF4402130
:100C80009FED217BCDE902230DF1080C05940DF1B8
:100C9000180E049106F1150306FA07F747EA033721
:100CA0009CE80F008EE80F0007979EE80F008CE885
:100CB0000F0063463246214628468DED047B07F03F
:100CC00067FF224621464FF46013284607F0E4FEF2
:100CD000012007F0B1FF4FF0FF310F4F0F4B104ACB
:100CE00003EA403338600F4E0F4C80011A4300F185
:100CF000A0431E605C609960DA602B6843F00103DA
:100D00002B600BB0F0BD00BF0000088000800A001F
:100D100000003050082F0110EC310120FDFF01FCD4
:100D2000491F180020003050008000204FF0504034
:100D30002DE9F84F6549D0F800A0654A654B51F898
:100D40002A70BAF1000F0CBF904698464FB30026A8
:100D5000DFF884B1DFF88491F3080C3358F82340AE
:100D600035460836CCB114F00F0110D05BF82A20BC
:100D700005F00703EA40E8089B00D20701FA03F3F5
:100D800000F18C0C03D4284649F82C30B8472409CC
:100D900005F1010501D0B542E5D3202EDCD1BDE837
:100DA000F88F4D48F90801F10C0358F823303A4602
:100DB0000837002B71D013F00F0508D050F82A40E7
:100DC000D440E40703D4454C8C3144F82150190930
:100DD00063D011F00F010BD050F82A40551CEC40A5
:100DE000E60705D4EC083D4D09018C3445F8241084
:100DF000190A52D011F00F010BD050F82A40951C5F
:100E0000EC40E40705D4EC08344D09028C3445F875
:100E10002410190B41D011F00F0105D050F82A40D1
:100E2000D51CEC40E6073CD5190C36D011F00F016B
:100E300006D0294C54F82A50141DE540ED0737D54B
:100E4000190D2AD011F00F0106D0234C54F82A5066
:100E5000541DE540EE0732D5190E1ED011F00F01DA
:100E60000CD01D4C54F82A50941DE540ED0705D4D4
:100E70001A4DE40809068C3445F824101B0F02F1C2
:100E800007020AD050F82A10D140C90705D41349E7
:100E9000D2081B078C3241F82230202F82D1BDE8C6
:100EA000F88FEC080D4D09038C3445F82410BBE78E
:100EB0000A4DE40809048C3445F82410C0E7074DB6
:100EC000E40809058C3445F82410C5E74C310120AD
:100ED000488202409082024088A6012000800240A1
:100EE00010B44FF480740C4B53F8202003EB8003B4
:100EF000C00082F0400200F1804003F5805C02F007
:100F0000C00200F5203003F54053CCF800204160CA
:100F10001C605DF8044B70470480034010B4084C1B
:100F2000C90041EA820154F8202004EB80035140BB
:100F300003F5805301F00C015DF8044B1960704714
:100F4000048003402DE9F0434FF050491646DFF886
:100F50009C80D9F800201F4658F8223004460D46E0
:100F600083B053B3002F34D04FF0504348F8227071
:100F70001A681B491B4B002A18BF0B46E20804F0F5
:100F80000704A40005FA04F4A1F5247102F18C0011
:100F900041F8204003EB82034EB10121152003F5F7
:100FA00000531C6003B0BDE8F04300F043B903F503
:100FB00040531C6003B0BDE8F083002FD9D048F83F
:100FC000227015201A46084900F0A6F9D9F8002029
:100FD000CFE715200449019200F092FA019AC3E785
:100FE00090820240488202402D0D00104C310120B9
:100FF00030B44FF0000343EC440043EC40000525BF
:101000004FF480740B4BC20053F8201003EB8000A8
:1010100081F0400102F1804303F5203301F0C0026A
:1010200000F5805100F540500A605D60046030BCFE
:10103000704700BF048003400FB400B583B0049C28
:10104000074803F00BFC3CB105A92046019103F0D1
:1010500071FA044803F002FC012003F083FA00BF98
:10106000B0240110D8200110EFF3108072B6064BA7
:10107000D3E8CF1F01220029FAD1C3E8412F00296C
:10108000F6D1BFF35F8F7047332601200023034A58
:10109000C2E88F3F80F31088704700BF33260120DD
:1010A00070B58646EFF3108572B6124CD4E8CF6F58
:1010B0000120002EFAD1C4E8460F002EF6D1BFF36E
:1010C0005F8F4FF0010CC80801F007030CFA03F31F
:1010D0001EF800C01CEA030608D14CEA030C0EF807
:1010E00000C0C4E88F6F85F3108870BD1046FFF70D
:1010F000A3FF00BF33260120F8B5EFF3108572B6C9
:10110000234CD4E8CF7F0126002FFAD1C4E8476FE3
:10111000002FF6D1BFF35F8F9A4227D80126D70858
:1011200010F807E002F0070C06FA0CFC1EEA0C0FA0
:1011300000EBD2070DD125E04FEAD20E10F80EE0F9
:1011400002F0070C06FA0CFC1EEA0C0F00EBD207AB
:1011500018D001329342EFD24FF0FF300023C4E8A1
:101160008F3F85F31088984207DBF8BD0023C4E861
:101170008F3F85F310884FF0FF300029F5D0069897
:10118000FFF75AFF4EEA0C0E104687F800E0E5E73D
:1011900033260120044A1078431CDBB2182B28BFE9
:1011A00010231370704700BF200D002010B5054CB0
:1011B00082B001461F23182200940348FFF79CFFCA
:1011C00002B010BDC0240110643101204FF0E022B4
:1011D000936843F000539360704700BF0021044BB5
:1011E00003F12002C3E88F1F01339342FAD1704705
:1011F000282601204FF0E0234FF08032C3F800246E
:10120000C3F80424C3F80824C3F80C24C3F810243A
:10121000C3F81424C3F81824C3F81C24C3F82024EA
:10122000C3F82424C3F82824C3F82C24C3F830249A
:1012300062B67047012300F01F029340400941B19C
:10124000800000F1604000F56140C0F8803103602B
:101250007047024A203042F82030704700E100E039
:101260000123064A410952F8212000F01F00834063
:10127000134214BF01200020704700BF00E100E0CE
:1012800001224309034900F01F008240403341F826
:101290002320704700E100E0054A10309268054BBA
:1012A00052F82000C01A2F288CBF00200120704760
:1012B00000ED00E0240D0020F8B50D46EFF3108797
:1012C00072B6124ED6E8CF2F0123002AFAD1C6E813
:1012D000423F002AF6D1BFF35F8F0D4B00F110049F
:1012E0009B680C4A53F82430934203D0994201D0B2
:1012F00001F0CCFB064B9B6843F82450BFF35F8F93
:101300000023C6E88F3F87F31088F8BD31260120FF
:1013100000ED00E0110100102DE9F04F81468B46F1
:10132000164683B0EFF3108372B6DFF8D0A10093B6
:10133000DAE8CF1F01230029FAD1CAE8413F00298A
:10134000F6D1BFF35F8F664B93F90040002CC0F2DB
:10135000A080644D04EB440705EB870898F806105D
:1013600009F110091970604BBF009B6853F8290000
:101370006300411B2F292FD95C49884240F0A4808B
:101380001C445B4B02372F44043BDB1BC3F34A0373
:101390006FEAC3434FF421416FEAD34325F8241089
:1013A00005EB840463804BF60153A380FF2348F0D0
:1013B0000100E671C4F808B0A3714B4B9B6843F879
:1013C0002900BFF35F8F0023CAE88F3F009B83F3A0
:1013D000108803B0BDE8F08F20F0010E9EF80710D2
:1013E000B1422ED84FF42143EB53414BB91C294451
:1013F000043B04375B1A2F44AEF104013D4CC91B7A
:10140000C1F34A012143A8F80410C3F34A033A493F
:101410002343A8F802304AF6AA2073465B1B5B41BF
:101420005843000D88F8076088F80600C8F808B02F
:1014300048F00100CEF80010BFE7D179B1422ED9B3
:1014400096469EF906C00CEB4C02BCF1000F05EB72
:101450008202F2DA4BF601510EF10402A8F1040700
:10146000BF1AC7F34A076FEAC7476FEAD7478EF834
:10147000064003EB0408204C05EB8803AEF804702B
:1014800045F82840998083F806C0DE71C3F808B09B
:1014900093E701F0FBFA124B93F9004059E77246CB
:1014A00032F8041F490514D44915023102EB4101F9
:1014B00001916FF00701C91B019F491B3944C1F31A
:1014C0004A0141F46041C9E7019301F0DFFA019B51
:1014D00056E701F5FF1101F5FF511F31E4E700BFA9
:1014E00076A80120240D002000ED00E0110100107D
:1014F000540D002000E0FFFF014880473126012005
:101500002DE9F04F83B0EFF3108A72B6744ED6E82F
:10151000CF2F0123002AFAD1C6E8423F002AF6D194
:10152000BFF35F8F6F4B00F110089B686E4A53F852
:10153000285095423FD08D420C464AD06B4FEB1B52
:101540002F2B38D801214FEA50194FEA890909F1A8
:10155000604909F5614900F01F0301FA03F0D9F869
:101560000030C9F8800000EA030BBFF35F8FEFF390
:101570000581C9B279B3884577D125F0010EDEF82F
:1015800008C0644505D17CE0D3F808C0644532D07A
:101590009E469EF9062002EB4203002A07EB8303D6
:1015A000F2DA644500F08180BBF1000F20D0C9F869
:1015B0008001C9F800004B4B9B6843F82850BFF3EB
:1015C0005F8F0023C6E88F3F8AF3108803B0BDE821
:1015D000F08F1546EFE725F0010EDEF808C06445F0
:1015E000D7D19EF906407346002C08DA154666E00E
:1015F000C9F88000DFE793F90640002C56DB04EBC6
:10160000440C07EB8C0CDCF8082061009A609CF815
:101610000720DA719CF90620002A9A715DDBBCF87C
:101620000420520504D502F5FF1202F5FF521F32C5
:10163000521502F1020C4FF0040E0C2212FB04E2D0
:1016400002EB4C026FF0070C3A44ACEB030C624423
:10165000C2F34A0242F460429A80254B21441A7830
:1016600007EB81011C708A719EE7CDE9000101F052
:101670000DFADDE9000125F0010EDEF808C0644531
:1016800087D19EF906407346002CB8DA194A1A4CE5
:10169000D21A083AC2F30A316FEA01516FEA1151C6
:1016A00044EA5202DA8099807EE773460029EDD140
:1016B000FF228EF806204BF60152AEF804200C4CA7
:1016C0004AF6AA2294F800C01946C91B49414A4368
:1016D000120D83F806C0227066E74BF60152BBE795
:1016E0003126012000ED00E011010010240D002042
:1016F00076A801205E0D002000F8FFFFF0B5EFF3A3
:101700000585EDB2EFF3108C72B62649D1E8CF2FE4
:101710000123002AFAD1C1E8423F002AF6D1BFF3E3
:101720005F8F214E40F0010EB4684AF6AA2354F8A8
:1017300025701E4A0446A41A644163431B0D774575
:101740005BB21BD092F906409C421CD092F9124029
:101750009C4223D092F91E409C4221D092F92A400B
:101760009C4208BF03240FD0114A0024157813703F
:101770008571C1E88F4F8CF31088F0BDB2680D4CB5
:1017800042F82540F0E7002404EB440402EB840215
:10179000FF2494714BF601549480E5E70124F3E7AC
:1017A0000224F1E73126012000ED00E0240D0020A5
:1017B00076A801201101001010B5074C82B0014637
:1017C0000523002200940548FFF796FC0028A8BFD7
:1017D000C0F1330002B010BDDC24011085A8012047
:1017E000014B0B44036070472826012070B5104C54
:1017F000104DAC420ED2FF26236863B1FFF7CAFC3E
:1018000001462046FFF7ECFFA680BFF35F8F083448
:10181000AC42F1D370BDFFF7BDFC01462046FFF797
:10182000DFFF2671BFF35F8F0834AC42E4D370BD95
:10183000E80D0020000E002010B50446FFF7AAFCBA
:1018400001462046FFF7CCFFFF232371BFF35F8FD4
:1018500010BD00BF10B504460120FFF7A7FC034BE5
:1018600003442360BFF35F8F10BD00BF2826012013
:10187000024B0B440360BFF35F8F704728260120A3
:101880000D4B1A68EFF3108172B6D2E8CFCF01206A
:10189000BCF1000FF9D1C2E84C0FBCF1000FF4D13C
:1018A000BFF35F8F00221B68C3E88F2F81F310887E
:1018B00040BF002000217047D8A701200000000091
:1018C0002DE9F04F2DED028B85B0EFF30583DBB2F0
:1018D000103B9A0818BF01224FF0010103F00300EA
:1018E00018BFAF4DAF4B08BFAF4D00EB820253F8AE
:1018F000226001FA00FB05F541539FEDA78B019093
:10190000C3F804B02EE0B388180440F19280B37994
:10191000002B40F0DC80B6F908100029C0F21D81D0
:10192000736901EB410103EBC103D3E90247B7F14E
:10193000FF3F08BFB4F1FF3F0DD0019B05EB8301D2
:10194000AB6A0A69D21AE31A934203D32B6A13EAE9
:101950000B0F00D10C61284600F09CFCA042B9415D
:10196000C0F2FB80B6F90830C5F83CB0002B0093FC
:10197000C9DBD6F8149003EB430A284609EBCA07E3
:10198000D7E9024800F086FCA04271EB0801BADBFF
:10199000B8F1000FC0F2C380D7E90431834A934203
:1019A00000F0ED807A88B6F9080092B242EA004071
:1019B000984702460B4652EA030100F0B080002B24
:1019C00080F2D180B4EB020E68EB030839F93A30AB
:1019D000C7E902E8002B96DB716903EB430201EBD8
:1019E000C202D2E90270BE4578EB000C4FEA430216
:1019F00089DBB4462CF8083F0BE031F93230A446BD
:101A0000002B0DDB03EB430001EBC0005A00D0E9D3
:101A10000270BE451A4478EB000001EBC204ECDA18
:101A200029F83A30009BACF80030B38818043FF531
:101A30006EAF3369EFF3108272B6D3E8CF0F012196
:101A40000028FAD1C3E8401F0028F6D1BFF35F8F0A
:101A50004FF6FF74B0880023316900B2B480C1E84A
:101A60008F3F82F310889842FFF651AF0746A94690
:101A7000746906F1080807EB470E04EBCE03D3E9BF
:101A80000250B6F90830C446002B13DBB24600976B
:101A900004E034F936309446002B09DB03EB4306AF
:101AA00004EBC602D2E90271BD4270EB0101F0DA2B
:101AB0005646009FACF8007034F93E7024F83E3072
:101AC000002FD8DAB3794D46002B3FF424AF002322
:101AD000B371B6F9083006F10808591C3DD0194613
:101AE000776903E080465A1C3FF417AF03EB4302CB
:101AF00007EBC200B0F802C01C461CF4004F9E4623
:101B000037F93230EED08C4280ED028B05D0A8F848
:101B10000030318927F8321034817146E3E739F813
:101B20003A3033813369EFF3108272B6D3E8CF0FC6
:101B300001210028FAD1C3E8401F0028F6D1BFF3E5
:101B40005F8F7388316929F83A30009B73800023D6
:101B5000C1E88F3F82F31088D5E640BF05B0BDECE9
:101B6000028BBDE8F08F2846CDE9022300F092FBFE
:101B7000029A039B10EB020E43EB010826E708468E
:101B80000B69029198470028C9D00299D1E9002336
:101B900011E700BFAFF30080FFFFFFFFFFFFFFFF74
:101BA00000800B400CA0012000000B40C118001069
:101BB0002DE9F84F364C25692DB1BDE8F84F0A21C3
:101BC0003448FFF70DBEDFF8E4800321404600F003
:101BD0004FFB0326C4F80C80FFF7DCFA4FF0504CA3
:101BE0002D4B267003442361DCF800300F21637015
:101BF000636961801D834FF00405A3F878504FF0AE
:101C00000505A3F890504FF00605A3F8A8504FF033
:101C100007050E214FF6FF7208274FF00A0EA3F8B2
:101C2000C0504FF001094FF00C0C4FF0020B4FF079
:101C3000090A0D204FF00B05A3F868111749A2807F
:101C4000A3F808E1A160A3F848B0A3F8F0A0A3F8B6
:101C50002051A3F838C1A3F85001A3F83090A3F89D
:101C60006060A3F8D8701A800D4B3046C8F8207019
:101C70000C49DC60FFF720FB49463046FFF7DAFAF3
:101C8000094B0A211F640348BDE8F84FFFF7A8BDC0
:101C90006C0D0020D8A7012028260120FFFF10008E
:101CA0000CA00120C118001000200B4000000B40C8
:101CB000004870476C0D0020F8B59DF82070044670
:101CC00016461D4637B900F0EDFA864265EB010174
:101CD00000295CDB2369EFF3108772B6D3E8CF1FCE
:101CE00001220029FAD1C3E8412F0029F6D1BFF320
:101CF0005F8FB4F902C063690CEB4C01BCF1000FBB
:101D00004FEAC10203EBC10138DB985A4FF0000ED5
:101D100060802069C0E88FEF87F310880698C1E9DA
:101D2000026508610798486148880130C0F30E00D9
:101D3000012838BF0120488040EA0C402169EFF3B8
:101D4000108572B6D1E8CF7F0126002FFAD1C1E805
:101D5000476F002FF6D1BFF35F8FA1889952A4F887
:101D600004C02369C3E88FEF85F310880122E3687C
:101D7000217803F501538A405A60F8BD0023226997
:101D8000C2E88F3F87F310884FF0FF30F8BD384628
:101D9000F8BD00BF0146F0B50069EFF3108772B6D9
:101DA000D0E8CF5F0124002DFAD1C0E8454F002DC7
:101DB000F6D1BFF35F8FB1F902E04C690EEB4E0C28
:101DC000BEF1000F4FEACC0504EBCC0C3DDB605BB1
:101DD000002648800869C0E88F6F87F31088BCF838
:101DE0000200CCE902230130C0F30E00012838BF05
:101DF0000120059BACF80200CCF81030069B40EAAD
:101E00000E40CCF814300B69EFF3108272B6D3E8B1
:101E1000CFCF0127BCF1000FF9D1C3E84C7FBCF153
:101E2000000FF4D1BFF35F8F8B886353A1F804E0F8
:101E30000B69C3E88F6F82F310880122CB680978A1
:101E400003F501538A405A60F0BD00230A69C2E8D5
:101E50008F3F87F310884FF0FF30F0BD0346408975
:101E6000B0EB214F37DD58690A1402EB420210B57E
:101E700000EBC2001C69EFF3108C72B6D4E8CFEF10
:101E80000122BEF1000FF9D1C4E84E2FBEF1000FC0
:101E9000F4D1BFF35F8F428889B292B28A4207D0F1
:101EA00000221B69C3E88F2F8CF31088002010BD1F
:101EB00042F4004242800121002218699971C0E871
:101EC0008F2F8CF310881C78DA68084602F50153CE
:101ED000A140596010BD0020704700BF4078704796
:101EE0002DE9F041861F41F1FF35B04271EB05034A
:101EF00038BF002682B038BF354604460F4600F092
:101F0000D1F9301A65EB0103012873F1000306DAF9
:101F10002046394602B0BDE8F04100F0FFB900F0BC
:101F2000C1F9864265EB010100290ADB0021174B4C
:101F30003246009316482B460191FFF72BFF0028ED
:101F4000E6DB4FF0000C1348134A436A9D4204D865
:101F5000816AB142DCD29D42DAD11368EFF310817D
:101F600072B6D3E8CF8F5FF0010EB8F1000FF8D151
:101F7000C3E848EFB8F1000FF3D1BFF35F8F1368E8
:101F8000C3E88FCF81F3108820BFDEE781180010EF
:101F90006C0D002000000B40D8A7012038B5044686
:101FA0000D4600F07FF94FF0FF326FF0004320182C
:101FB00045EB0101824273EB010438BF1946BDE8CD
:101FC000384038BF1046FFF78BBF00BF10B504463E
:101FD00000F068F94FF47A734FF0FF3C6FF0004265
:101FE000E4FB0301BDE81040844572EB01033CBFF4
:101FF00060461146FFF774BF2DE9F04306460D46D3
:1020000083B0EFF30584E4B23CB1274B586AA84291
:102010001CD2002003B0BDE8F083244FD7F80C9009
:1020200097F80080484600F035F908F1040859F89F
:1020300028301B1A301A65EB0101984271F100013A
:1020400011DB20BF184B586AA842E2D39B6AB34207
:1020500003D3012003B0BDE8F083401B18BF01206B
:1020600003B0BDE8F08300F01DF9864265EB010185
:102070000029CADB0E4B3846CDE9003432462B46E8
:10208000FFF788FE011EC0DD074B5A6AAA4208D33B
:102090009B6AB34203D30548FFF7E0FEB5E7AA42C7
:1020A000F9D120BFF7E700BF00000B406C0D002006
:1020B000811800102DE9F0410446DDE9071552EAC8
:1020C000030070D0002B16461F4671DB0698C5E949
:1020D00000232861AC60696100F0E4F84FF0FF3242
:1020E0006FF00043801947EB0107824273EB070151
:1020F0003CBF1F4610462369EFF3108872B6D3E841
:10210000CF1F01220029FAD1C3E8412F0029F6D1BF
:10211000BFF35F8FB4F90260616906EB4603002EDE
:102120004FEAC30C01EBC30346DB31F80C204FF040
:10213000000E62802269C2E88FEF88F310885A8807
:10214000C3E902070132C2F30E02012A38BF01229D
:102150001F485A805D61186142EA06422369EFF325
:10216000108072B6D3E8CF8F0127B8F1000FF9D1F4
:10217000C3E8487FB8F1000FF4D1BFF35F8FA388A5
:1021800021F80C30A6802369C3E88FEF80F3108814
:1021900001202178E36800FA01F103F50153596049
:1021A000EA60BDE8F0810126002732463B468DE714
:1021B000564263EB430789E700202369C3E88F0F8A
:1021C00088F310884FF0FF32EA60BDE8F08100BF6D
:1021D000C11800100246C06800B970479168031426
:1021E000B1F80AC0BCEB204F3DDD30B54C6903EBC4
:1021F000430304EBC30C0B69EFF3108E72B6D3E804
:10220000CF5F0124002DFAD1C3E8454F002DF6D150
:10221000BFF35F8F83B2BCF8020080B2834209D063
:1022200000230969C1E88F3F8EF310880023002046
:10223000D36030BD43F40043ACF802304FF0010CE2
:102240000023086981F806C0C0E88F3F8EF310882C
:10225000CB68097803F501530CFA01F159600023AA
:102260006046D36030BD00230020D360704700BFBC
:1022700010B4054B054C064AA04214BF1846581C22
:102280005DF8044BFEF70CBF6831012000800B4065
:10229000F82401100346416A0A46986A596A8A423C
:1022A000FAD17047034B596A0A46986A596A9142B3
:1022B000FAD1704700000B4010B4174A536A9C468D
:1022C000946A536A6345FAD1001959414FF00002EC
:1022D00028BF01220346CAB10F4B596A4B1C08BFE5
:1022E0000B4608D04FF0FF310B460B48426A8A423A
:1022F000FCD38A4207D1084A02E0506A884202D1E0
:10230000906A9842F9D35DF8044B7047024A526ACA
:102310009142EAD8EDE700BF00000B40074A536A3C
:102320009942FCD8994207D1044B02E05A6A914283
:1023300002D19A6A8242F9D3704700BF00000B4075
:10234000F8B5054606200E4600F0E4F8002842D015
:10235000354A3648954214BF4FF080624FF0006214
:10236000334B344902601A608C6832EA0404FBD1B2
:102370002D4B4FF48071EB1AB3FA83F32E4A5B09AD
:10238000062022F8131000F0C5F8C300B3FBF6F3E3
:102390000133DA0920D1402601216962AA622F6B3C
:1023A000FB0722D42B46002253F82C1F062003F5EE
:1023B000805422602F6300F0ADF840F20131032217
:1023C0008000B0FBF6F0EB6A83F0700303F07E034D
:1023D00023602963AA64F8BD4FF6FE718A421BD9B7
:1023E00022464FF6FF71154ED7E740F2013205F550
:1023F00040531A636B6AAC6A062004EB831400F046
:1024000089F80F4BA402A3FB0023DB0A0021B4FBD5
:10241000F3F0FFF751FFC5E7C3F34503114603EBA4
:1024200082161A46B9E700BF00800740002002402C
:1024300000300240000002403CA80120C0FF3F00E5
:10244000757B2B8F00EB400C4FEA8C0C0CF1804C11
:102450000CF5803CF0B51646DCF80420051FB2F5FB
:10246000803F38BF4FF48032EDB238BFCCF8042043
:10247000012D2AD94FF40067254C0CF54052176006
:1024800054F82020B2B9DCF80020012D82EA46126F
:1024900002F0E0020CF5805632602AD94FF4006158
:1024A00044F820304FF480330CF500521160CCF822
:1024B0000430F0BD6769B7FBF2FE0EF1010E0EEBC2
:1024C0004E0EBEF1030EFCD2DDE70129D2D103246A
:1024D0000CF540521460DCF80820D207FBD5DCF87C
:1024E00000200B4C82EA461202F0E0020CF5805606
:1024F00032600122DCF800504D4005F003053560E4
:1025000002FA01F1DCF808200A42FBD0C6E700BF5E
:102510006C310120014B53F8200070476C310120D1
:10252000584B2DE9F0431C6C1746B4F5803F38BF7B
:102530004FF480320E464FF00301804638BF1A64D4
:10254000514A504B83B0D1635C6CE507FCD5DA6B24
:102550004E4982F0200202F0E002CA63DB6B494D73
:1025600083F0010303F00303CB636C6CA407FCD579
:102570004FF400624FF48039454B464CDA63464BCA
:102580004246636101213346C5F8409043480097B5
:1025900000F056F94FF400616B6B07FB06F64B45F4
:1025A00038BFC5F83490384B2269B8FBF6F619638A
:1025B0003AB16369B3FBF2F3013303EB4303033B2B
:1025C000FDD2304B31491A6B02F0E0020A631A6BFC
:1025D00082F0020202F003020A63996B4807FCD5FD
:1025E0004FF400654FF4803229490D632C495A633A
:1025F0002161196C91424FF0030138BF1A64224BDC
:10260000204AD963536CD907FCD5D36B1F4D03F017
:10261000E003EB63D36B1B4983F0010303F0030377
:10262000EB634B6C9B07FCD54FF480334FF4006594
:10263000174A6661D5630B64CA6C9A4238BFCB6493
:102640004FF40061104BA26999643AB16369B3FB1E
:10265000F2F3013303EB4303033BFDD24FF400607D
:102660004FF48031074A094D936C83F0400303F027
:10267000E003AB64064B084DA5619864D16403B0D8
:10268000BDE8F0830000014000300140001001402F
:10269000002001406C310120006CDC02000005408C
:1026A000001BB7002DE9F04F4FF4A078994685B094
:1026B000CDE902125F4CDFF884A154450AD908F134
:1026C000FF38A4F53B54B8F10F0FA4F12004F4D166
:1026D000002069E0072304F53722019403FB03F48B
:1026E00002F5D872B2FBF4FE70454FF0010C4FF0CA
:1026F00002074FF003064FF004054FF005013FD0ED
:10270000B3F1010E00F094800EFB03F4B2FBF4FB76
:1027100058454CD019B301FB03F4B2FBF4FB584508
:102720004FD0E5B105FB03F4B2FBF4FB584553D0A1
:10273000AEB106FB03F4B2FBF4FB584557D077B1BA
:1027400007FB03F4B2FBF4FB58455BD0BCF1000F70
:1027500005D00CFB03F4B2FBF4FB83455DD073465C
:1027600003FB03F4B2FBF4FE704501F1FF3105F108
:10277000FF3506F1FF3607F1FF370CF1FF3CBFD103
:1027800004FB1024002CBBD19E464A46DDF808B05D
:10279000DDF80C900120284901FB08F1CBF800106E
:1027A000C9F80030C2F800E005B0BDE8F08F04FBC6
:1027B0001024002CAED14A46DDF808B0DDF80C90AC
:1027C000E8E704FB1024002CABD14A468E46DDF826
:1027D00008B0DDF80C90DDE704FB1024002CA7D135
:1027E0004A46AE46DDF808B0DDF80C90D2E704FBAF
:1027F0001024002CA3D14A46B646DDF808B0DDF817
:102800000C90C7E704FB1024002C9FD14A46BE461B
:10281000DDF808B0DDF80C90BCE704FB1024002CB8
:102820009DD14A46E646DDF808B0DDF80C90B1E7E8
:10283000019C44E750262F00001BB70050F80C0005
:1028400070B4039D04682D0345EA03451B4B002C1F
:10285000B3FBF1F3B2FBF3F61FDB194A194B9042BD
:1028600014BF4FF480424FF40042174C1A6003F536
:1028700080531A60A36832EA0303FBD1212200F5DA
:1028800040530433016086601A600268002AFCDA53
:102890000822C5601A6070BC7047036803F03F03EC
:1028A0008B42DAD18368C3F30B03B342D5D1C3683B
:1028B00003F4EE23AB42D0D1EDE700BF001BB7001D
:1028C0000080054000200240000002400A4B0B49F6
:1028D0000B4A5960D3681904FCD40A4BD26843EA06
:1028E00000130949534009481940054AC160D3689B
:1028F0001B04FCD4704700BF002010400020FE5A8B
:10290000000010400000FE5AF001FE5A0010104076
:1029100030B44FF080441C4B1C60E0B11B4CA3F55D
:102920004053DC611A4C40F0010044401C62596283
:1029300098624FF080454FF0E061134B1548164CFC
:102940001D60846019604AB930BC4FF00042A3F5A5
:1029500080531A607047114BD861EAE74FF47A73DD
:1029600003FB02F2B2F1807F2ABF6FF07F43134670
:102970001A464FF080410A4C08482360094B4260D8
:1029800030BC1960704700BF00B00D40D3C007B025
:102990002D3FF84F00A00140F3FFFF0100800D40E4
:1029A000B034012000A00D40012300EB4000800066
:1029B00000F1804000F5841041600360704700BF63
:1029C000002370B5DB8A04460D46002242E800F27F
:1029D000520254BF1021042144F2522098478646E7
:1029E0002B462246F446BDE870400A214FF4817020
:1029F000604700BF0023DB8A002242E800F2520257
:102A000001D4102118470421184700BF08B5034618
:102A10000846191E02DB1AB140F03000FFF7D0FF64
:102A200040F02000FAE700BF034AD2F82838002B14
:102A3000FBD0BFF35F8F704700000E400021044BB6
:102A4000044ABFF35F8F43F8041B9342F9D17047E8
:102A50000C080E402C080E4010B44FF48D704FF44B
:102A60002A64064A064B07491460D060196053680F
:102A7000002BFCDA5DF8044B704700BF0080044077
:102A800000A0044000B0FA00704700BF08B501483C
:102A9000FEF7D2FA1C25011038B5054C054DAC42A5
:102AA00004D254F8043B9847AC42FAD338BD00BF77
:102AB000E01F01102020011038B5054C054DAC4237
:102AC00004D254F8043B9847AC42FAD338BD00BF57
:102AD0000C2001102020011010B40748074C084BAF
:102AE000084A094904601A608B6832EA0303FBD183
:102AF0005DF8044B704700BF002002407F3BEFEFC2
:102B000000300240F6FFF30300000240044BDB6C90
:102B1000B3F5004F03D14FF48022024BDA647047C3
:102B200000001150002011504FF0E022044BD2F869
:102B3000881D0B43C2F8883D10EE3004704700BF7B
:102B4000030330006FF06041044B054A196093683D
:102B5000DB4333F06043FAD1704700BF00300240DE
:102B60000000024010B545F25320FFF743FFBDE8D7
:102B7000104003460420184710B545F25320FFF7D4
:102B800039FFBDE81040034601201847FEF726BB79
:102B900070B51449144C154D641AA610442E3246D3
:102BA00028BF4422284692000FF0FEF8B4F5867F35
:102BB00013D80F4AC6F1440112D02B19480803EB71
:102BC000C000C3E9002208338342FAD1CB0704D501
:102BD00021F00103334445F82320064B9D6070BD6E
:102BE0004323F8E70000001010010010000000204F
:102BF0001101001000ED00E0002370B52B4C82B0F5
:102C0000C4F88430FFF728FF0122294BDA63636C94
:102C1000012BFCD10321264A244B11639C6B012C10
:102C2000FCD10226052521460523224A224800968A
:102C3000FFF706FE21462B46204A21480095FFF764
:102C4000FFFD0022042031461E4BFFF7FBFB21460F
:102C5000284600221C4BFFF7F5FB002208201146F6
:102C60001A4BFFF7EFFB002209201146174BFFF725
:102C7000E9FB002206201146134BFFF7E3FB00227D
:102C8000114B07201146FFF7DDFB0420FFF742FC44
:102C900000240F4BA3FB0035AD0CE0B229460134F4
:102CA000FFF782FE062CF8D102B070BD0000014093
:102CB00000300140002F685900000540008C864715
:102CC00000800540001BB70080D1F008006CDC02DA
:102CD00083DE1B4386B003B451FC0804CDE9020136
:102CE00051FC0904CDE9040151EC0A04CDE90601C7
:102CF00003BCF047BDE800504EEC00C4BDE80050F6
:102D00004EEC01C4BDE800504EEC02C400BD000012
:102D100000B5FFF7DFFF02E010FE30F4F8D441EC1D
:102D2000100443EC112400EE010410EE010480EEC7
:102D3000200451EC1004704700B5FFF7CBFF02E010
:102D400010FE30F4F8D441EC100443EC112400EEF2
:102D5000010410EE210480EE200451EC3004704791
:102D600000B5FFF7B7FF02E010FE30F4F8D410B55D
:102D700041EC100443EC112451EC040453EC052401
:102D8000A0FB024C5FF0000EE0FB03CEE1FB02CEA5
:102D90004CEC20440024E1FB03E444EC30E480EEFE
:102DA000200451EC5004BDE81040704700B5FFF717
:102DB00091FF02E010FE30F4F8D441EC100443EC33
:102DC000112451EC2104A0FB01126FEA820252FB94
:102DD000100052FB12F252FB1000A0EBD07C53EC1F
:102DE00004245CFB13F153EC1524A1FB022001FB2E
:102DF000030053EC4424A2EB000050FB1CF24FEA0A
:102E0000111312EB017043EBE27140EA515020EADA
:102E1000915020F0070053EC7524A0FB023C53ECCA
:102E2000752400FB03CC01FB02CC53EC0424ACEB77
:102E3000824C40EA5C70A0F1010041EC400480EE5D
:102E4000200451EC7004704700B5FFF743FF02E027
:102E500010FE30F4F8D440EC700400EE010410EEE3
:102E6000210480EE200451EC3004704700B5FFF7D8
:102E700031FF02E010FE30F4F8D440EC600400EEC4
:102E8000010410EE210480EE200451EC3004704760
:102E900000B5FFF71FFF02E010FE30F4F8D441EC5C
:102EA000800400EE010410EE010480EE400410EEF8
:102EB0001304704700B5FFF70DFF02E010FE30F479
:102EC000F8D441EC800400EE010410EE010480EE21
:102ED000400410EE3304704700B5FFF7FBFE02E03C
:102EE00010FE30F4F8D441EC100443EC112400EE51
:102EF000010410EE3004C0F30070704700B5FFF716
:102F0000E9FE02E010FE30F4F8D443EC102441EC6A
:102F1000110400EE010410EE30F48CBF01200020FB
:102F2000704700BF00B5FFF7D5FE02E010FE30F499
:102F3000F8D441EC100443EC112400EE010410EE2F
:102F400030F42CBF01200020704700BF00B5FFF710
:102F5000C1FE02E010FE30F4F8D441EC100443EC62
:102F6000112400EE010410EE30F48CBF012000208B
:102F7000704700BF704700BF2DE9F04F83B09946FE
:102F8000DDE90DAB0F9B884611469A07074616D11F
:102F9000DA453AD20C460D46ABEB0A060E44224601
:102FA0004B46414620200134B847B442F7D1294668
:102FB000BAF1000F08D1204603B0BDE8F08F0C46EF
:102FC000BAF1000F10D00E4655460C9B2E449A4481
:102FD0000191721B4B46013D41461AF8010D3446E2
:102FE000B847002DF5D101990F9B9B07E3D5651AD2
:102FF000AB45E0D922464B46414620200135B84733
:103000005D4504F10104F5D3D5E7BAF1000FDAD13B
:103010000C46D0E72DE9F04F0F9FDDF824E017F0C4
:10302000020F0A9C9DF82C900E9DDDE90C8629D19B
:10303000002D6FD1B44225D2202C07F0010B00F0F7
:10304000128104F1FF3C4FF0300AF44401E0202CDF
:103050007AD00134A6420CF801AFF8D8BBF1000FCA
:1030600010D0AC420ED2202C74D004F1FF3C4FF0B3
:10307000300AF44401E0202C29D00134AC420CF891
:1030800001AFF8D117F0100F3AD017F4806F28D1A4
:103090001CBBB8F1100F00F0CA80B8F1020F00F0AD
:1030A000D48030248EF800400124B9F1000F67D19C
:1030B0007E0740F1AA802B260EF804600134CDE98A
:1030C0000B57CDE909E4BDE8F04FFFF755BFFC060B
:1030D00040F189807C0535D42024A6426AD0AC42D8
:1030E00068D0B8F1100F00F08780B8F1020F5AD005
:1030F000202CE4D0264601344FF0300C0EF806C0E8
:10310000202CD2D1CDE90B57CDE909E4BDE8F04F31
:10311000FFF732BF17F0010B3ED0B9F1000F47D1D6
:1031200017F00C0F44D1B4429BD2202C89D1202D12
:1031300010D8FC0657D57C0555D4202E00F0B98058
:10314000202D10D02024CCE7BBF1000F00F0A5808B
:10315000202DBCD9FC0646D57C0544D4202E00F099
:10316000A880202D3FD12C461F26B8F1100F7FD00C
:10317000B8F1020FC0D14FF0620C0EF806C0B7E7ED
:103180002D260EF804600134CDE90B57CDE909E492
:10319000BDE8F04FFFF7F0BEB442BFF473AF202C90
:1031A0007FF44FAFD6E7202C89D026460134E2E7E2
:1031B000013DB8E7661ED8D1B8F1100F64D0B8F160
:1031C000020F7FF46EAF62268EF800603026444610
:1031D0008EF80160B9F1000F3FF46AAFD0E7B8F1A3
:1031E000100F7FF46CAF2024CDE90B57CDE909E433
:1031F000BDE8F04FFFF7C0BEBE060ED4202CF2D0C3
:1032000078260EF80460013472E73E077FF557AF69
:1032100020260EF80460013451E7202CE3D04FF053
:10322000580C0EEB040686F800C0013460E7BE06B9
:1032300017D558248EF8004030248EF8014002241F
:10324000B9F1000F3FF434AF9AE762248EF80040E2
:1032500030248EF801400224B9F1000F3FF428AF6A
:103260008EE77824F2E7BBF1000F7FF462AF71E7DD
:1032700017F0200F0CBF4FF0780C4FF0580CA61E23
:103280000EF806C0013C35E7BC06EAD558248EF896
:10329000004030248EF80140DDE717F0100F3FF4B6
:1032A0000EAF17F4806F9AD1202E7FF418AF1F262F
:1032B0005BE734461F2658E700B9704701F08CBA27
:1032C00010B1D1E900311847704700BF000000007D
:1032D0002DE9F04F9FB09DED287BDDE92AA558EC44
:1032E000177B83461E460D91109243463A46384658
:1032F00041468DED087B2C9CFFF7F2FD002840F045
:10330000D880384641464FF0FF32754BFFF722FE1A
:10331000002840F0CE80384641464FF0FF326FF42F
:103320008013FFF7EFFD002840F0C380DDE9087847
:103330000022384641460023FFF7E4FD002840F014
:10334000C081CDE90A78DDE90A2390461F4614F4CE
:10335000806308BF4FF0060A139304F4006258EA32
:103360000703119240F0C080002A00F0A2819FED77
:103370005A7B00278DED0E7B4FF00009BA45CCBF7C
:10338000AAEB070A4FF0000A4F46C8BF0AF1FF3AFE
:1033900044F480644D4594BF4FF00008A5EB090844
:1033A00014F00203119304D0B9F1000F18BF4FF0CD
:1033B00000083FB1DDE90A01DDE90E23FFF7FAFC61
:1033C000CDE90A01DDE9080100220023FFF79AFD9B
:1033D00030B1DDE90A01024601F10043CDE90A23DB
:1033E0009DED0A7BCDE902A8DDF834A024F400634A
:1033F00004938DED007B334651465846109A00F0F9
:1034000097F98046B9F1000F4FD014F0200F024613
:1034100000F1010433460CBF652045205146D847D2
:1034200009F1FF3087EAE77C0DF1580900224B468D
:10343000DFF8B080ACEBE77C4FEAD77E01E0202AD2
:1034400010D0E246A8FB0C71C90801EB8107ACEB78
:1034500047073037BAF1090F8C4602F1010203F831
:10346000017BECD805230590069300200A230D9FCD
:10347000CDE90330CDE9012E334622463946584680
:10348000CDF80090FFF7C6FD119B80466BB1109BF5
:10349000C41AA54209D94246334639462020013490
:1034A000D847A54208F10108F5D840461FB0BDE84D
:1034B000F08F9DED087B33465846109A0D998DED9F
:1034C000287BCDE92B54CDF8A8A01FB0BDE8F04F64
:1034D00000F02EB9AFF300800000000000000000F3
:1034E000FFFFEF7FCDCCCCCCC7F30A50A0F2FF306A
:1034F000FFF7AEFC8AA3D3E90023FFF735FC8AA3CC
:10350000D3E90023FFF708FCC7F31307CDE90E0149
:1035100047F07F51404600227B4B41F44011FFF7BA
:103520000FFC6BA3D3E90023FFF71EFC02460B46FA
:10353000DDE90E01FFF7F0FBFFF7AEFC0746FFF7F2
:1035400087FC65A3D3E9002380468946FFF70CFC7E
:1035500000226E4BFFF7E0FBFFF79EFC0346494657
:10356000404612935EA3D3E90023FFF7FDFB80469C
:1035700012988946FFF76CFC5BA3D3E90023FFF7A1
:10358000F3FB02460B4640464946FFF7D9FB02468D
:103590000B4680468946FFF7E7FB42464B46CDE99E
:1035A0000E0140464946FFF7B7FB0022CDE9140162
:1035B000DDE90E01564BFFF7FDFB0022554BFFF7EF
:1035C000ABFB02460B46DDE90E01FFF7F3FB0022E1
:1035D000514BFFF7A1FB02460B46DDE90E01FFF759
:1035E000E9FB42464B468046894600204FF0804129
:1035F000FFF7A6FB02460B4640464946FFF78CFB09
:1036000002460B46DDE91401FFF7D4FB0022434BD1
:10361000FFF782FB129B002203F2FF3C4FEA0C53A0
:10362000FFF7A2FB80468946DDE90A0142464B4688
:10363000CDE90E89FFF766FC68BB4346494607F1B2
:103640006302C62A119A8CBF4FF005094FF0040996
:10365000002A3FF49FAE0B433FF48EAEDDE90A0132
:1036600023A3D3E90023FFF761FC48B1DDE90A0198
:1036700021A3D3E90023FFF745FC00287FF47CAEAB
:10368000BAF1000F3FF486AE139B002B3FF482AEDD
:103690000AF1FF3A7EE600221E4B40464946FFF7FC
:1036A00089FB0A4601460346CDE90E12013F114649
:1036B000C5E79FED137B17464FF004098DED0E7B98
:1036C00068E608F100430A970B933CE6AFF30080ED
:1036D00061436F63A787D23F71A379094F930A4073
:1036E0001655B5BBB16B0240EF39FAFE422EE63FEC
:1036F0002D431CEBE2361A3F0000000080842E416F
:1037000000000000000000000000F83F0000E03F63
:1037100000002C4000002440000018400000F03F52
:10372000FB799F501344D33FB3C8608B288AC63FB0
:103730002DE9F04F97B0DDE92089CDE90401DDE9FD
:10374000224BCDE90623404642464B464946DDF82A
:1037500090A0FFF7C5FB002840F0C58140464946D0
:103760004FF0FF326FF48013FFF7CCFB002840F0DE
:103770001D81404649464FF0FF32C14BFFF7EAFB3F
:10378000002840F0E380B8A3D3E90023404649462F
:10379000FFF7E0FB002840F0CB80B5A3D3E900237E
:1037A00040464946FFF7AEFB002840F0C180404646
:1037B000494600220023FFF7A5FB002840F0E080E7
:1037C0001AF480650D9000F0E980092C40F2968192
:1037D0000EAB1A460C9330210023A4F109050133E6
:1037E000202B02F8011BA4EB030600F03A81AB4248
:1037F000F5D19FED9D7B8DED087B49464046FFF757
:103800004BFB0446FFF724FB02460B464046494665
:10381000FFF796FADDE90823FFF7A6FA02460B4602
:10382000CDE90A23FFF74AFB0746FFF723FB0246D1
:103830000B46DDE90A01FFF783FA02460B46CDE9A4
:103840000A2300228F4BFFF785FB002800F0DB8066
:1038500001373846FFF70EFBDDE90823FFF766FB6B
:1038600008B100270134002E40F0B1802046FFF758
:10387000EFFA02460B4640464946FFF761FA00223E
:10388000804B06460F46FFF73DFB40B930463946B0
:1038900000227C4BFFF75EFB002800F015810C9B9B
:1038A000691E7948194410E080FB0462C3EBA2034F
:1038B00003EB8302A4EB420404F1300201351C4601
:1038C00001F8012F002B00F0AB80202D4FEAE473AC
:1038D000EAD10AF00303012B1CD1BBF1000F19D070
:1038E0000D9B002B40F0F9801AF00C0F40F0F58092
:1038F000AB4540F2D380202D0BD030220C996B1EAB
:103900000B4401355D4503F8012F00F08D80202D1B
:10391000F7D12025DDE90623DDE904010C9CCDE982
:1039200002BA01950094FFF727FB17B0BDE8F08FAE
:10393000CDE92089DDE90623DDE90401CDE923BADB
:10394000229417B0BDE8F04FFFF7C2BC4F4DCDF841
:103950008CA00AF0040ABAF1000F4D4C18BF2C4697
:10396000DDE90623DDE9040120940CBF03240424CF
:10397000CDF888B0219417B0BDE8F04FFFF7FCBA3E
:103980004B46424600200021FFF7DAF901231AF4E2
:103990008065804689460D937FF417AF9FED367B97
:1039A0000EAB06268DED087B0C9326E70424DDE99B
:1039B0000623DDE90401374DCDF88CA0CDF888B0A1
:1039C0002095219417B0BDE8F04FFFF7D5BA0C9BB6
:1039D000681EDFF8C4C018440DE0ACFB0721C9081D
:1039E00001EB8102A7EB42023032092F00F8012FD0
:1039F00027D90F461D46202D05F1010306F1FF369C
:103A0000EBD120254BE70022DDE90A011D4BFFF732
:103A100079FA00287FF427AF002F5AD1013722E727
:103A20000AF00303012B75D0202D3FF473AF0D9BDB
:103A3000BBB32D2205F158036B4403F8202C01354C
:103A400068E7202BDDD0AEB30C9A1E44154430221B
:103A500001E0B3422ED00133202B05F8012FF8D11D
:103A6000CFE71D46C5E600BF0000000065CDCD4193
:103A70000000000065CDCDC10000000080842E4113
:103A8000FFFFEF7F0000E03F676666666825011074
:103A90007025011078250110CDCCCCCC202D3FF421
:103AA00039AF1AF0040F0DD11AF0080F3FF432AFFE
:103AB0002022BFE72E2103F158026A4402F8201C9D
:103AC0005D1CECE62B22B5E7E3077FF5E8AE013499
:103AD000E5E6FA077FF5C7AEA0E70BF1FF3BAB4584
:103AE0003FF609AFA0E70324DDE90623DDE9040181
:103AF0000A4DCDF88CA0CDF888B061E7084B26467A
:103B000003EBC40393ED007B0EAB8DED087B00252A
:103B10000C9372E6BBF1000F86D0E1E6742501102C
:103B2000902F01102DE9F04F9A469BB0249C964DA2
:103B30000B94964C0B1E18BF834625609AF8000024
:103B4000934C0A9308BFA3460992002800F0BC8258
:103B50004FF000090AE04A46099B0A9909F1010958
:103B6000D8479AF80000002800F0CE8025280AF1F6
:103B7000010AF0D10023524612F8010BA0F12001F6
:103B800010290AD8DFE801F04009093C09090909B0
:103B900009090938093409093000A0F1300109295F
:103BA00040F28C802A2800F0F58000210C912E280C
:103BB00000F099800027A0F1680112292DD8DFE8D4
:103BC00011F057012C0051012C0045012C002C0054
:103BD0002C002C002C002C002C0027002C002C008A
:103BE0002C002C002C002700924643F00103C2E772
:103BF000924643F00203BEE7924643F00403BAE75D
:103C0000924643F01003B6E7924643F00803B2E74A
:103C10009AF8010043F4807301326728924600F25B
:103C20008280242840F2C680A0F12502422A00F2B8
:103C3000C180DFE812F05F01BF00BF00BF00BF001E
:103C4000BF00BF00BF00BF00BF00BF00BF00BF007C
:103C5000BF00BF00BF00BF00BF00BF00BF00BF006C
:103C6000BF00BF00BF00BF00BF00BF00BF00BF005C
:103C7000BF00BF00BF00260145012601BF00BF00F5
:103C8000BF00BF00BF00BF00BF00BF00BF00BF003C
:103C9000BF00BF00BF00BF00BF00BF00D301BF0017
:103CA000BF00BF00BF00BF00BF00BF00BF00BF001C
:103CB000D3016701D301260145012601002100E05F
:103CC000013201EB810100EB410110789246A0F135
:103CD0003004092CA1F13001F2D92E280C9102F107
:103CE00001027FF467AF9AF801001146A0F1300697
:103CF000092E43F4806340F231812A2800F03E818E
:103D000092460027013256E74C46099B994501D35C
:103D100003F1FF394A460020099B0A99D8472046FB
:103D20001BB0BDE8F08FA0F16902D2B20F2A41D8D2
:103D3000012649F2410196400E4040F001810A2AD5
:103D40003FD0072A36D10B9C54F8042B002A00F0F0
:103D5000288143F021010DF1480E704603E0202E2A
:103D600000F029811A4602F00F052B46092D94BF59
:103D7000303337330F2A00F8013B06F101064FEAD2
:103D80001213ECD817E100BF253B0010A834012026
:103D9000752F00100B9C9AF8010054F8045B9246B2
:103DA000002DBDBF694243F002030C910C950B94AA
:103DB0000132FCE64A46099B0A9909F10109D847F4
:103DC000CFE60B9951F8048B98F800201046002F8D
:103DD00040F0E18072B16FF0010C0CF1010C46462D
:103DE000C44401E0664503D016F8014F002CF9D118
:103DF000A6EB080613F4806C02D0BE4228BF3E46F4
:103E000013F0020400F08781002A00F02B81BCF13E
:103E1000000F00F041810B940D964A46DDE90954EC
:103E20000E464F4408E02B462146D84718F8010FAC
:103E300009F1010910B14A464F45F4D131460B9CB6
:103E40000D9E002C40F00E810B918AE69AF801003D
:103E50006C287FF4DFAE9AF8020043F440730AF155
:103E60000302DAE69AF8010043F400730132D4E663
:103E70009AF80100682800F0208143F080030132A5
:103E8000CBE6672800F0E780472800F0008145284E
:103E900000F0FF800B9C04930C9B0734CDE9027368
:103EA00024F007031C46DDE90931F4E802674A46BD
:103EB0005846CDE900670B94FFF70AFA814650E6B1
:103EC00046280B9C08BF43F0200304930C9B073447
:103ED000CDE9027324F007031C46DDE90931F4E85B
:103EE00002674A465846CDE900670B94FFF720FC6D
:103EF000814636E64A462520099B0A9909F10109BF
:103F0000D8472EE60B9A9C0702F1040709F1010637
:103F100040F1E6801078099B4A460A99D8470C9BE5
:103F2000012B40F22C81DDE90954994432462B469D
:103F3000214620200136D8474E45F7D10B9710E691
:103F40006F2800F08B8040F26581782800F00881AE
:103F50004FF00A0823F01003C44647E0002707EBA0
:103F6000870700EB4700A0F1300711F8010FA0F11F
:103F70003002092AF3D98A464A1C1CE60B9C9AF89F
:103F8000020054F8047B0AF1020A0AF101020B94C0
:103F900027EAE7770FE6002A3FF42CAF07F1FF3C52
:103FA0001BE723F0100113F4806241F021013FF47C
:103FB000D2AE0DF1480E08231020059300234A4687
:103FC000CDE9023006915846DDE90931CDE900E638
:103FD0000497FFF71FF80B948146C2E5582879D063
:103FE000622840F051824FF00208C44613F480600A
:103FF0006DD123F00C0313F4007240F0C2800B99D2
:1040000004310D9113F4807140F02E825E060B9AFC
:1040100040F1AA801278002A40F0DA8023F01003E1
:10402000002800F0D58011460DF1480E06930C9B38
:10403000CDF80CC0CDE90473019100234A460293E8
:104040005846DDE90931CDF800E0FEF7E3FF0D9BAE
:1040500081460B9385E543F400631BE74FF00808A6
:10406000C446C3E70C9B4C46B3427FF6EDAE0F4609
:104070004B44A3EB0609DDE9096522463346294690
:1040800020200134D8474C45F7D13946DCE643F4CB
:10409000006343F02003FDE60F460B94DDE909546D
:1040A0004A462B462146D84718F8010F09F1010965
:1040B0000028F5D139460B9CC3E69AF8020043F07C
:1040C000C0030AF10302A8E5044681461DE623F079
:1040D0000D0390E74FF0100843F02003C44685E736
:1040E0000C9B012B45D9DDE909544E4609F1FF38F7
:1040F000984432462B46214620200136D847464573
:10410000F7D10C9B324699440B9B1878DDE90931B5
:10411000D8470B9725E50C9BB34240F2EE81CDE9E1
:104120000D48DDE9095488464B449E1BCDF82CC050
:104130004A462B462146202009F10109D847B145BE
:10414000F6D14146DDF838800C9BDDF82CC00D9C83
:1041500098F800205E1C1046002A7FF458AE73E6E3
:104160004FF01008C44641E71D064CBF1288126884
:1041700051E713464A461878DDE90931D847B14678
:10418000DCE60B9C073424F007042246656852F8ED
:10419000084B0B9254EA050240F02C8123F01003E7
:1041A000002800F0278100260DF1480E06930C9B95
:1041B0004A46CDE904730023CDE900E6CDF80CC0F2
:1041C00002935846DDE90931FEF724FF8146C8E431
:1041D00013F0200F14BF412061200DF1480E7646E8
:1041E000A0F10A0803E020293FF420AF2246B2FBE9
:1041F000FCF40CFB1425E8B2092D00F130058ABF50
:104200004044E8B2C0B2624506F8010B01F1010179
:10421000E9D20BE723F0100269280D9240F06F817C
:1042200013F4806204D04FF4806223F011030D93E5
:104230000D9B13F4007640D10B9B03F104080D9BFA
:1042400013F4807040F09880590640F1C6800B9BB3
:1042500019780C46CB0F002900F0B98022460DF1E9
:10426000480E74461646DFF8A0C201E020280FD0A1
:104270003546ACFB0621C90801EB8102A6EB4202E0
:104280003032092D0E4600F1010004F8012BEDD863
:104290000D9ACDE9010306920C9ACDE904720A2326
:1042A0004A4603935846DDE90931CDF800E0FEF7B0
:1042B000B1FECDF82C80814653E40B9C073424F0EA
:1042C000070421460846636850F8081BDC0F0B9072
:1042D00051EA030000F0C3800A46191E48DB13466A
:1042E0000DF1480EF4460026CDE90E94DFF8188251
:1042F00001E0202E2DD05A1842F10002A8FB0259ED
:1043000029F0030505EB9905521B1C469B1A61F128
:10431000000508464FF0CC3101FB03F108FB051105
:10432000A3FB08531944052305F00109A9FB033930
:104330009B180A2C03F130034FEA550570F1000079
:104340000CF8013B06F1010645EAC1734FEA510141
:10435000CFD2DDE90E940D9B4A4606930C9BCDE926
:104360000164CDE904730A23CDF800E0039328E744
:10437000524261EB4101B2E70B9B1968CB0F002958
:1043800000F0AB8081EAE172A2EBE1720DF1480E20
:104390007046DFF874C101E0202E10D01546ACFB4A
:1043A0000241C90801EB8104A2EB440404F130028C
:1043B000092D00F8012B06F101060A46ECD80D9AEA
:1043C000CDE9016306920C9ACDE9047267E7002AF1
:1043D0003FF445AF0DF1480E5AE713F0800F0B9BE9
:1043E00000F08180B3F9001081EAE174A4EBE1747C
:1043F000A4B22FE713F0200F14BF412261220DF168
:10440000480E0A3ACDE90D97CDF844B0002677461C
:10441000F3469146CDE90F3C03E0202E17D0044629
:104420000D4629464246002320460DF0C1FDD2B27A
:10443000092A02F1300388BF02EB09034445DBB2CD
:1044400075F1000507F8013B06F10106E5D2DE46ED
:10445000DDE90D97DDE90F3CDDF844B0A6E6002A62
:1044600047D1134611463BE70B990968A1B923F0E0
:10447000100388B10DF1480E06930C9BCDF80CC0CB
:10448000CDE904730192D8E513F480627FF4CBAEDA
:1044900023F010030D93CBE613F0200F14BF41203F
:1044A00061200DF1480E7646A0F10A0802E0202AAC
:1044B000E2D02146B1FBFCF40CFB1415E8B2092D47
:1044C00000F130058ABF4044E8B2C0B2614506F849
:1044D000010B02F10102EAD2CEE7002A3FF456AF07
:1044E0000DF1480E6BE7196881EAE174A4EBE17401
:1044F000B0E600260DF1480E2DE701362BE64FF011
:104500000A081346C44671E5CDCCCCCC70B59446B0
:104510001E4605460C4684B04FF0FF32634602A9A2
:1045200000960348CDE90254FFF7FCFA04B070BDD1
:10453000C132001010B5094B84B01C684CB1034661
:1045400000914FF0FF3203A90548A047012004B0B5
:1045500010BD00F083F9204604B010BDA83401203E
:10456000B932001000BEFDE708B5FFF7FBFF00BF42
:1045700038B5064C064DFEF78FFAAC4204D254F81B
:10458000043B9847AC42FAD338BD00BF202001104D
:104590002C2001100368084611461847437D2DE979
:1045A000F04781460F461646002B43D0002A3BDDDC
:1045B000037D00204D1E014615F8012FDFF8848091
:1045C0000A2A01F101040ED0A6421CD02B78214604
:1045D000A3F10D03B3FA83F315F8012F5B090A2A3F
:1045E00001F10104F0D1002BEED18142A1EB0001D9
:1045F00038441BDC02214046D9F800309847A642D7
:1046000008D02046E2E7864204DD311AD9F80030AE
:1046100038449847374417F8013CA3F10D03B3FA27
:1046200083F35B0989F81430BDE8F087D9F80030CE
:104630009847DFE73846D9F800301146BDE8F04723
:10464000184700BFE02F01100B682DE9F041802BC7
:104650000D46064605D05A1C2B442A601E71BDE843
:10466000F0810F4B1C68A4B10E4F01F1040801E06A
:10467000246974B12368002BFAD03B680BB1A342C4
:10468000F6D1204641462A68FFF788FF2469002CAE
:10469000F0D1002301222B442A601E71BDE8F08175
:1046A000F0310120F43101202DE9F04782B00D46B0
:1046B000924699460746FDF7F5FD4FF0FF366FF03D
:1046C00000442F4A821841F10003964274EB030123
:1046D0003CBF324623462B480DF07AFC6B1C8046CB
:1046E00003D138460DF0DCFB0546274B274E1C68EE
:1046F000274BB9F1000F18BF1E46B4B1BAF1000F35
:104700001AD1DFF8909001E0246974B12368002B7E
:10471000FAD0D9F800300BB19C42F5D120462A4698
:104720003946B0472469002CF0D1B8F1000F1FD1F1
:10473000284602B0BDE8F0874FF00A0ADFF854902F
:1047400002E02469002CF0D02368002BF9D0D9F8BE
:1047500000300BB1A342F4D12A4639462046B04777
:10476000012220460DF107018DF807A0B047E8E7C8
:1047700004480DF021FC284602B0BDE8F08700BFD8
:1047800040420F00F00D0020F0310120954500104F
:104790009D450010F43101200A4A13684BB1834251
:1047A00002D109E0984207D003F110021B69002BE7
:1047B000F8D101B1106070470029FCD10369136082
:1047C00001617047F031012008B500F0A7F900F051
:1047D000DDFB012008BD00BFF0B583B006468DF8B3
:1047E0000700FDF75FFD4FF0FF356FF00044174AFB
:1047F000821841F10003954274EB03013CBF23464C
:104800002A4613480DF0E4FB124B07461C689CB186
:10481000114D01E024697CB12368002BFAD02B688C
:104820000BB19C42F6D1204601220DF10701FFF7A2
:10483000B5FE2469002CEFD117B9304603B0F0BDA6
:1048400003480DF0B9FB304603B0F0BD40420F0005
:10485000F00D0020F0310120F431012038B504467C
:104860000DF01EFB012305461A4620462946FFF798
:104870001BFF084B1C682CB163682BB19847246957
:10488000002CF9D1284638BD2469002CF4D12846E3
:1048900038BD00BFF03101202DE9F041A2B004463F
:1048A0000D46FDF7FFFC4FF0FF376FF00046274A3B
:1048B000821841F10003974276EB03013CBF3A4670
:1048C000334623480DF084FB00262B46074622463C
:1048D000204801A90196FFF719FE019B06467BB906
:1048E0001D4B1C682CB1636843B198472469002CA8
:1048F000F9D10FBB304622B0BDE8F0812469F1E761
:10490000DFF85480D8F80050EDB1144C01E02D6967
:1049100075B12B68002BFAD023680BB1AB42F6D1EE
:104920002846019A02A9FFF739FE2D69002DF0D122
:10493000D8F800400195D5E705480DF03DFB30461D
:1049400022B0BDE8F0810195D3E700BF40420F00DF
:10495000F00D002049460010F0310120F431012013
:104960000FB400B583B004A951F8040B0191FFF70F
:1049700093FF03B05DF804EB04B07047B1F1000C95
:104980001DDD0F4A0F4B126830B5D31AB3FA83F30B
:104990000D240D4D5B09411E35F913E08C4411F8CF
:1049A000010F864506D093699B06FCD461451060D3
:1049B000F5D130BD93699D06FCD41460F3E77047D0
:1049C00040A80120008007403CA80120224BB1F103
:1049D000000C10B41C682EDD034600201F4A591E2F
:1049E00012689369DB0617D401309369DB06FCD4A7
:1049F0001368844501F8013FF3D14CB150211346AF
:104A0000916353F8342F02F0380203F580531A6093
:104A100060465DF8044B70474CB1502113469163DA
:104A200053F8342F02F0380203F580531A6078B13E
:104A30005DF8044B70475CB1084B50211A6813466F
:104A4000916353F8342F02F0380203F580531A6053
:104A50006FF00200ECE700BF5431012040A80120B4
:104A6000054B1B6833B10021044A054812680068F1
:104A700091631847704700BF5431012040A80120BE
:104A80005C310120024B1A6893691B07FCD4704704
:104A900040A80120F8B51C4F1C4D3A681C4EAA4294
:104AA00014BF212522250446D6F800C018B1BCF158
:104AB000000F10D0F8BDBCF1000FFBD00146906391
:104AC0002846FCF7B7FB28461249FCF719FD124BA4
:104AD00034601C60F8BD0B460F4A0E493060284612
:104AE0001360FCF7E9FB01212846FCF7A3FB3A68B9
:104AF00050211346916353F8342F02F0380203F526
:104B000080531A60F8BD00BF40A801200080074014
:104B100054310120614A00105C31012010B50E496A
:104B20000E4C0F480F4A104B0078216000200221E4
:104B300012781B78FCF7D4F902210120FCF7D0F998
:104B40004FF4E1312068FDF7FBFBBDE81040012187
:104B50000648FFF721BE00BF0000074040A8012023
:104B600094330110903301108C330110840D002018
:104B7000704700BF0022014B1A70704777A80120D0
:104B80004B79FF2B0BD1887948B9CB79012B07D111
:104B9000082A05D9034B8A7809201A70704700202B
:104BA000704700BF77A8012001207047012901D07C
:104BB0000120704708B5104B91881B78994201D0AD
:104BC000002008BD5378012B08D0022BF8D100211A
:104BD00064220846FDF79CFE012008BD5188CB05E4
:104BE0004BBF4A0A4A0A10464FF0FF3002F001025A
:104BF00001F07F01FDF70AFF77A801200048704708
:104C0000CC300110012907D15378012B02D19388B0
:104C1000072B03D000207047012070471146A623C0
:104C2000014A01F0B1B900BF24300110034601224E
:104C300001481A70704700BF0030011008B50B68BA
:104C4000B3F5966F00D008BD00224FF0FF3011463B
:104C5000FDF7DCFE024A034B10601960704700BF8D
:104C60005831012060310120184B70B51A68002AB4
:104C700028D0EFF3108172B6D2E8CF4F0120002C7C
:104C8000FAD1C2E8440F002CF6D1BFF35F8F0022A7
:104C90000F4C186859602270C0E88F2F81F310887C
:104CA000002400250B4E3078FCF7DAFA20B90024F6
:104CB00000252046294670BD3078FCF7E1FA2046F1
:104CC000294670BD4FF47A740025EBE7F49F01206C
:104CD0007FA8012078A80120014B1878FCF7D0BAF2
:104CE00078A8012038B5044600200D4601F0AAFE40
:104CF000A8B3002001F0BAFE88B3FDF7D3FA4FF055
:104D0000FF3E6FF0004C174A821841F100039645B0
:104D10007CEB03013CBF7246634613480DF058F923
:104D2000E8B1002001F08EFE58B900214FF0FF30AD
:104D300001F02CFA6FF002040B480DF03DF920460B
:104D400038BD002001F092FE0028EED021462A4610
:104D5000002001F0A5FE04460028EDD1EAE76FF03F
:104D60000204ECE740420F00E0A7012008B5FDF780
:104D700099FA4FF0FF3E6FF0004C0F4A821841F154
:104D8000000396457CEB03013CBF724663460B482B
:104D90000DF01EF970B14FF0FF30002101F0F6F96F
:104DA000002001F08DFE0028F5D1BDE80840034841
:104DB0000DF002B908BD00BF40420F00E0A701207E
:104DC0002DE9F84307460E46FDF76CFA4FF0FF3524
:104DD0006FF00044334A821841F10003954274EBAE
:104DE00003013CBF2A4623462F480DF0F1F808B9CD
:104DF000BDE8F883002001F025FE002848D0002EF1
:104E000041DD0025DFF8A480DFF8A49013E02246FE
:104E1000002001F04DFE002104464FF0FF3001F06C
:104E2000B5F9002001F04CFEFDF73CFAC8E900019D
:104E30002544AE4227DD002001F04AFE741B844267
:104E4000A8BF04467919002CE1D121464FF0FF306C
:104E500001F09CF9204601F033FE204601F0F2FDFE
:104E600088B1204601F034FE0028E2D1FDF71AFA9D
:104E7000D8F80030D8F8042013EB090342F10002FF
:104E800083428A41D5D20848BDE8F8430DF094B872
:104E900000200021054BC3E90001BDE8F8430248AA
:104EA0000DF08AB840420F00E0A7012098220120AF
:104EB00020A1070030B5002185B02E480DF08CF8F8
:104EC000F0B92D4B1A68CAB1EFF3108172B6D2E86F
:104ED000CF5F0124002DFAD1C2E8454F002DF6D155
:104EE000BFF35F8F254C1D6822785960D3B2012231
:104EF0002270C5E88F0F81F31088CBB105B030BDAB
:104F000000214FF0FF3001F041F9002001F0AEFD2B
:104F1000044618480DF050F8002CEFD0184B1B68D1
:104F2000002BEBD0174A106805B0BDE83040184799
:104F3000FCF7BEFE0446FDF7B5F94FF0FF3C6FF0FD
:104F4000004510F57A7241F10003944575EB0301B9
:104F500038BF2B464FF000014FF0010520460A4CA8
:104F600038BF6246CDE901150094FCF7A5FE05B0F7
:104F700030BD00BFE0A70120F49F01207FA80120E1
:104F80005831012060310120694C00104FF050432E
:104F900030B585B01C68FCF78BFEFCF79FFFA04284
:104FA00002D0002005B030BD00212A4B08461B78F6
:104FB00002F040F828480368002B47D00120FCF796
:104FC000FBFB0346254C2649C0B22370FCF774F95D
:104FD00020780121FCF72EF90E20FCF75DF940BB8B
:104FE000204B0125C3E90000FCF762FE0446FDF7F3
:104FF00059F94FF0FF3E6FF0004C10F57A7241F115
:10500000000396457CEB03014FF000012046164C4F
:105010003CBF72466346CDE901150094FCF74CFE97
:105020000028BEDB01211148FFF7B6FB012005B0C7
:1050300030BD0120FCF7BAF801460A48FCF718FC1D
:1050400000220E200A49FCF767F9EBE7FCF7F4FBB6
:10505000B4E700BF98330110E0A7012078A8012031
:10506000B54E0010F49F0120694C00109C0D0020EB
:10507000D94C001000487047683101100048704753
:105080001431011038B5184B04461A780AB344B9E4
:1050900040F209424FF44173144D6A8013482B804B
:1050A00038BD052C1AD8124B104D53F82410284641
:1050B0000023013903E0132B20F8022F10D011F840
:1050C000012F0133DBB2002AF5D15B0043F44073BA
:1050D000E4E71121184600F02DF8D8E7002038BD8C
:1050E0004FF44A73DAE700BF48A801209831012045
:1050F000FC30011000B545F247308BB0FDF77AFC6B
:1051000001220346092101A89847DDE90332044939
:1051100012BA1BBAC1E900230BB05DF804FB00BF53
:105120009CA601200346024A03CA186059607047D2
:105130009CA60120012901F1FF3300F0B3805D49F5
:105140000A784FEA121C9F2A8CBF0CF1370C0CF125
:10515000300C012B80F800C000F0A78002F00F0295
:10516000092A8CBF37323032022B427000F09D800A
:105170004A784FEA121C9F2A8CBF0CF1370C0CF1B5
:10518000300C032B80F802C000F08F8002F00F0279
:10519000092A8CBF37323032042BC27000F0858070
:1051A0008A784FEA121C9F2A8CBF0CF1370C0CF145
:1051B000300C052B80F804C077D002F00F02092ACA
:1051C0008CBF37323032062B42716ED0CA784FEA2C
:1051D000121C9F2A8CBF0CF1370C0CF1300C072BE2
:1051E00080F806C061D002F00F02092A8CBF373266
:1051F0003032082BC27158D00A794FEA121C9F2A0C
:105200008CBF0CF1370C0CF1300C092B80F808C066
:105210004BD002F00F02092A8CBF373230320A2BF2
:10522000427242D04A794FEA121C9F2A8CBF0CF17D
:10523000370C0CF1300C0B2B80F80AC035D002F083
:105240000F02092A8CBF373230320C2BC2722CD09D
:105250008A794FEA121C9F2A8CBF0CF1370C0CF193
:10526000300C0D2B80F80CC01FD002F00F02092A61
:105270008CBF373230320E2B427316D0CA791109E7
:105280009F2A8CBF373130310F2B81730DD002F044
:105290000F02092A94BF30323732102BC27318BF65
:1052A000103002D0002303707047184400230370AD
:1052B000704700BF9CA601202DE9F04F9C4E8FB097
:1052C000D6F8984014F4003540F0C780E70638D48B
:1052D000E6032AD50DF12C0B4FF00109954E06F18E
:1052E000280AB77886F80190012F00F03381143630
:1052F000B245F6D14FF4C0628F4BADF82C2093E845
:1053000003000EAB03E90300012158460CF05CFEDC
:105310004FF40032894B1A653DB1894B1B7823B994
:105320004FF40032854BC3F89020E10400F1C580B2
:10533000620400F1B680230400F1A4800FB0BDE840
:10534000F08FD6F85880B8F1000FC1D098FAA8F3C2
:10535000B3FA83F3CDE90854DFF8E0B1012403EA9E
:10536000040282EA040123FA04F7561E059106F0AE
:10537000140607EB870106EBC1066E499C400E44FC
:105380005908069163D06F48013900EBC707783898
:1053900000EBC101002A58D001F104090437644D23
:1053A000A96D2142DAD06FEA040AD3B20293059BB9
:1053B0009B000793EB6D029A1C4214BF012300234C
:1053C000CBF858404946009230463A4608EA0A0867
:1053D00000F0CEFB50B9AB6D1C42EBD1B8F1000F21
:1053E0002DD098FAA8F3B3FA83F3B7E7069B059993
:1053F000079A03EB83030A44DB0003EB82034D4A65
:1054000030461A44528A0493039200F0CFFA039A6A
:10541000049B0D92474A0121D35C0BA88DF83030D4
:105420004FF4E063ADF82C3000238DF831300CF0F0
:10543000CBFDAB6D2342BDD1B8F1000FD1D1DDE979
:105440000854E0037FF568AF44E78946A7E7002AE0
:1054500000F09F8089463B4FA0E74FF44072B36C49
:105460000DF12C0BC3F30A0301215846ADF82C2093
:105470000C930CF0A9FDE20600F18E80E3033FF5EA
:105480002BAF4AE74FF4A06301210BA8ADF82C30F5
:105490000CF09AFD4FF40062284B1A650FB0BDE87E
:1054A000F08F4FF4806301210BA8ADF82C300CF085
:1054B0008BFD1022214B1A653DE700251E4B1C4930
:1054C0004FF416720D6020489D602946DD601D6115
:1054D0005D619D61DD611D625D629D62DD621D63D6
:1054E0005D639D63DD631D645D649D64DD641D65B6
:1054F0005D659D65DD651D665D669D66DD661D6796
:105500005D679D67DD670CF0CFFB4FF480730F4A3A
:105510000F490BA811600121ADF82C308DF83050E7
:105520000CF052FD4FF40022044B1A6500E700BF57
:1055300000001150FC3101200000105000301150CB
:105540006FA801208000105024320120F831012082
:10555000800110503178144AC80980F0010301F02D
:105560000F0143EA41039F401766A2F50052536EB4
:1055700037EA0303FBD10D4B03EBC10300B904333E
:10558000002230461A6000F011FA094B5F661F6670
:10559000ADE69146054F02E7D6F85880B8F1000F06
:1055A0007FF4D4AE6AE700BF002011508000105095
:1055B0000030115038B500F0D3F90C23274D284C9A
:1055C000AB67FF220E202749FBF7A6FE2822002109
:1055D00020460CF069FB802000214022224BA08253
:1055E0002248C3F88410E280C3F880106283996077
:1055F0004FF41672D960196159619961D9611962C4
:1056000059629962D962196359639963D9631964BC
:1056100059649964D964196559659965D96519669C
:1056200059669966A060E061D96604F1280019679F
:1056300059679967D9670CF037FB4FF00054012088
:105640004FF480320A4B0B4919600B490B4B28640D
:10565000EC64C5F89010DA6438BD00BF000011504A
:10566000FC310120B9520010000010500001105010
:10567000F83101208001105010D00100002011509D
:1056800001210E20FBF7D6BD002300B583B01946DB
:10569000CDE90033034A044800F08EF903B05DF809
:1056A00004FB00BF8000105010320120064B4FF465
:1056B0000032197019B1054BC3F890207047044BA4
:1056C000C3F89020704700BF6FA801200020115040
:1056D000003011500B785B0602D14B78052B00D0BF
:1056E00070474B88014ADBB21360704700001150CD
:1056F000F8B54FF0000E91F802C0CD780CF00F0312
:105700008E8803EB83024FEADC112848D20001EBBC
:10571000810702EB8702264C00F802C0C6F30A0696
:10572000024482F801E005F0030504EBC304D680CF
:105730004FEA810C4FEA830E01B904340022226043
:105740003BB91C4B8C4400EB8C0CCCF8083001208E
:10575000F8BD9E44AC06022D8C44174D4FEACE0E88
:1057600006F13F020EEB8C0E22F03F0200EB0E0C16
:10577000286808BF52000244CCF8080080F0A0401E
:10578000DB0080F4801003F1A043204303F5801375
:105790002A6040F0204001B90433084918608A4269
:1057A000D5D9FDF773F90120F8BD00BFFC31012008
:1057B0008000105000011050F8310120FF0F1050F0
:1057C000002108B5134B4FF4167299601248D96046
:1057D000196159619961D961196259629962D962F5
:1057E000196359639963D963196459649964D964D5
:1057F000196559659965D965196659669966D966B5
:10580000196759679967D9670CF04EFA034B044A38
:105810001A6008BD0000105024320120F831012028
:1058200080011050282070B51D46134641F3C01268
:1058300001F00F0402F0140210FB0420104E82B09D
:105840003044C909A4B10F4A02EBC402E40004F1D8
:10585000A04404F5801449B9211D043200240195A7
:10586000009400F0A9F8012002B070BD2146F5E7D0
:1058700011B92146034AF0E72146024AEEE700BF8C
:10588000FC31012080001050F8B541F3C01001F048
:105890000F061F4B00F0140006EB860200EBC2005F
:1058A000CD0911F00F01184403D11A4AC5F10204C1
:1058B0009466012401EB810105EB8502C90001EB2F
:1058C0008201595C134ACF0987EA040301F00F01F2
:1058D00043EA41039C401466A2F50052536E34EA39
:1058E0000303FBD10C4B03EBC10307B904330022C4
:1058F0001A6000F05BF8094A074B546603EBC603D5
:10590000146605B904334FF400621A60F8BD00BF95
:10591000FC31012000201150800010500030115047
:1059200011F00F0217D04FF0000CC90902EB8203EF
:1059300000B50948DB0001EB810E03EB8E03184430
:10594000064B80F801C003EBC20301B90433002207
:105950001A605DF804FB7047FC3101208000105094
:105960004FF080520B480C4908B50C4B02600A609E
:105970009968C94311F08051FAD14FF48052084818
:105980000CF092F90922074B07485A67BDE8084016
:10599000FBF760BF002002400030024000000240E0
:1059A0000000105000001150A8A601200023C0E9FB
:1059B00003338370704700BF2DE9F04F04464FF06A
:1059C00001084FF0000E1846DFF89CC184F80280F1
:1059D000DCF8403085B0BDF83C5094F8008003F00E
:1059E000020AF2450F46164614BF4FF00109F14670
:1059F000A168A4F812E02582E0604FEAD81804D12B
:105A000094F804B0BBF1000F75D1E0886378A84228
:105A100028BF28462D1AADB22582002B68D140F44C
:105A2000806C83F00103C845637012D078B1E568DB
:105A300005EB000E2A4612780135D2B275450A7080
:105A400001F10101F6D1E368258A0344E3604CF4D7
:105A5000004C002D66D04CF48053002F35D0E088E8
:105A600094F801C0A84228BF28462D1AADB23A6862
:105A7000A1682582BCF1000F5DD140F4806E8CF0EE
:105A8000010CC84584F801C017D0A0B101F140084D
:105A9000E16801EB00098C469CF800C001315FFA17
:105AA0008CFC494588F800C008F10108F3D1E16891
:105AB000258A0144E1604EF4004E0DB94EF4804E4B
:105AC00042F0804243EA0E433A6032681A4012F0D4
:105AD000042F45D1244A23F004213160126C92072F
