:020000041000EA
:10000000002008205D0100101B0100101D010010E0
:100010001101001011010010110100101101001058
:100020001901001019010010190100101F01001022
:10003000110100101901001021010010230100100E
:100040001101001011010010110100101101001028
:100050001101001011010010110100101101001018
:100060001101001011010010110100101101001008
:1000700011010010110100101101001011010010F8
:1000800011010010110100101101001011010010E8
:1000900011010010110100101101001011010010D8
:1000A00011010010110100101101001011010010C8
:1000B00011010010110100101101001011010010B8
:1000C00011010010110100101101001011010010A8
:1000D0001101001011010010110100101101001098
:1000E0001101001011010010110100101101001088
:1000F0001101001011010010110100101101001078
:100100001101001011010010110100101101001067
:10011000EFF30580103800BE00BE00BE00BE00BE7A
:1001200000BE00BEF2EB8871E01901100C1A01103C
:10013000A001001090A31AE7D3DEFFFF42012110B7
:10014000FF010000C4250100793512AB4FF000001B
:100150001E49086006C881F3088810474FF05040D8
:10016000006810B14FF00000F2E70DA40ECC00299A
:1001700002D000F012F8F9E71549164A002000E015
:1001800001C19142FCD11449884714498847144958
:10019000884700BEFDE701C901C29A42FBD3704700
:1001A0000C1A011010010020000E0020FC26011086
:1001B0000000082000000820FC2601100010082084
:1001C00000100820000000007047000008ED00E06B
:1001D000000E00204CB20020193A00104D03001010
:1001E000113A0010F8B500BF0348044B834202D017
:1001F000034B03B118477047000E0020000E00208B
:1002000000000000064B0749C91A891048BF013198
:10021000491003D0044B0BB101481847704700BF89
:10022000000E0020000E00200000000010B5064C5B
:10023000237843B9FFF7D8FF044B13B10448AFF359
:1002400000800123237010BD9032002000000000C8
:10025000CC0B011008B5044B1BB104490448AFF3A3
:100260000080BDE80840CDE7000000009432002087
:10027000CC0B011010B50C460021204609F094FB70
:100280002046002109F098FB2046024909F090FB26
:10029000002010BD9902001038B5144653B90D4620
:1002A0007AB10846118909F0E3F8204608F0A4FD68
:1002B000002038BD002AFBD0104608F09DFD00202C
:1002C00038BD1146284609F06FFB2146284609F043
:1002D00073FB2146284609F06BFB284609F096FF80
:1002E000002038BD10B509F091FD044641F2893275
:1002F000054908F0DBFFFF21204609F049F8BDE879
:100300001040024909F05CBBC419011075020010CD
:10031000024692F83920044B12F0040F03490448B6
:1003200018BF194603F070BDD00B0110D80B011097
:10033000E00B011008B504300FF006FCBDE80840E2
:100340000146014803F060BD000C011000B593B0F8
:1003500007F078FB154803F0D5FC07F097FF01A8DC
:1003600007F0FEFBC8B901A807F0AEFB104901A8D1
:1003700008F06CFB0F4901A808F030FB01A808F059
:1003800015FB01A808F018FB01A80DF0EFFFFFF71F
:10039000A9FF094806F06AFDFEE7084803F0B2FC31
:1003A0004FF0FF3013B05DF804FB00BF1C0C0110D0
:1003B0001103001035030010497E00103C0C0110A1
:1003C0004FF050402DE9F84F6549D0F800A0654A3C
:1003D000654B51F82A70BAF1000F0CBF9046984651
:1003E0004FB30026DFF884B1DFF88491F3080C33B3
:1003F00058F8234035460836CCB114F00F0110D020
:100400005BF82A2005F00703EA40E8089B00D207C2
:1004100001FA03F300F18C0C03D4284649F82C3080
:10042000B847240905F1010501D0B542E5D3202ED6
:10043000DCD1BDE8F88F4D48F90801F10C0358F8FC
:1004400023303A460837002B71D013F00F0508D03F
:1004500050F82A40D440E40703D4454C8C3144F88A
:100460002150190963D011F00F010BD050F82A4028
:10047000551CEC40E60705D4EC083D4D09018C34D1
:1004800045F82410190A52D011F00F010BD050F882
:100490002A40951CEC40E40705D4EC08344D0902D1
:1004A0008C3445F82410190B41D011F00F0105D000
:1004B00050F82A40D51CEC40E6073CD5190C36D044
:1004C00011F00F0106D0294C54F82A50141DE540B4
:1004D000ED0737D5190D2AD011F00F0106D0234CA6
:1004E00054F82A50541DE540EE0732D5190E1ED09F
:1004F00011F00F010CD01D4C54F82A50941DE5400A
:10050000ED0705D41A4DE40809068C3445F824108B
:100510001B0F02F107020AD050F82A10D140C90778
:1005200005D41349D2081B078C3241F82230202F02
:1005300082D1BDE8F88FEC080D4D09038C3445F8E5
:100540002410BBE70A4DE40809048C3445F8241054
:10055000C0E7074DE40809058C3445F82410C5E7C9
:100560001C3B0020488202409082024054B0002090
:100570000080024010B44FF480740C4B53F82020DC
:1005800003EB8003C00082F0400200F1804003F5DD
:10059000805C02F0C00200F5203003F54053CCF837
:1005A000002041601C605DF8044B704704800340EC
:1005B0002DE9F0434FF050491646DFF89C80D9F8FA
:1005C00000201F4658F8223004460D4683B053B32E
:1005D000002F34D04FF0504348F822701A681B495E
:1005E0001B4B002A18BF0B46E20804F00704A400C6
:1005F00005FA04F4A1F5247102F18C0041F82040C1
:1006000003EB82034EB10121152003F500531C605A
:1006100003B0BDE8F04300F043B903F540531C605C
:1006200003B0BDE8F083002FD9D048F82270152020
:100630001A46084900F0A6F9D9F80020CFE715209E
:100640000449019200F092FA019AC3E790820240B5
:1006500048820240C10300101C3B002030B44FF020
:10066000000343EC440043EC400005254FF4807444
:100670000B4BC20053F8201003EB800081F04001C7
:1006800002F1804303F5203301F0C00200F58051F0
:1006900000F540500A605D60046030BC704700BFE8
:1006A000048003400FB400B583B0049C074803F0F6
:1006B00029FB3CB105A92046019103F08FF90448BC
:1006C00003F020FB012003F0A1F900BF600C011032
:1006D000700C0110EFF3108072B6064BD3E8CF1FF9
:1006E00001220029FAD1C3E8412F0029F6D1BFF336
:1006F0005F8F7047EB3500200023034AC2E88F3F2D
:1007000080F31088704700BFEB35002070B5864637
:10071000EFF3108572B6124CD4E8CF6F0120002E93
:10072000FAD1C4E8460F002EF6D1BFF35F8F4FF029
:10073000010CC80801F007030CFA03F31EF800C00F
:100740001CEA030608D14CEA030C0EF800C0C4E80A
:100750008F6F85F3108870BD1046FFF7A3FF00BFB1
:10076000EB350020F8B5EFF3108572B6234CD4E8D2
:10077000CF7F0126002FFAD1C4E8476F002FF6D1B2
:10078000BFF35F8F9A4227D80126D70810F807E0F9
:1007900002F0070C06FA0CFC1EEA0C0F00EBD20765
:1007A0000DD125E04FEAD20E10F80EE002F0070C52
:1007B00006FA0CFC1EEA0C0F00EBD20718D001322F
:1007C0009342EFD24FF0FF300023C4E88F3F85F310
:1007D0001088984207DBF8BD0023C4E88F3F85F3FB
:1007E00010884FF0FF300029F5D00698FFF75AFF28
:1007F0004EEA0C0E104687F800E0E5E7EB350020E6
:10080000044A1078431CDBB2182B28BF1023137046
:10081000704700BF200D002010B5054C82B0014686
:100820001F23182200940348FFF79CFF02B010BD5D
:10083000740C0110343B00204FF0E022936843F029
:1008400000539360704700BF0021044B03F1200266
:10085000C3E88F1F01339342FAD17047E03500207F
:100860004FF0E0234FF08032C3F80024C3F8042493
:10087000C3F80824C3F80C24C3F81024C3F81424C4
:10088000C3F81824C3F81C24C3F82024C3F8242474
:10089000C3F82824C3F82C24C3F8302462B6704768
:1008A000012300F01F029340400941B1800000F194
:1008B000604000F56140C0F8803103607047024A33
:1008C000203042F82030704700E100E00123064A62
:1008D000410952F8212000F01F008340134214BF49
:1008E00001200020704700BF00E100E00122430921
:1008F000034900F01F008240403341F82320704735
:1009000000E100E0054A10309268054B52F82000E3
:10091000C01A2F288CBF00200120704700ED00E096
:10092000240D0020F8B50D46EFF3108772B6124E75
:10093000D6E8CF2F0123002AFAD1C6E8423F002A89
:10094000F6D1BFF35F8F0D4B00F110049B680C4A8A
:1009500053F82430934203D0994201D001F0ECFACD
:10096000064B9B6843F82450BFF35F8F0023C6E813
:100970008F3F87F31088F8BDE935002000ED00E0D7
:10098000110100102DE9F04F81468B46164683B0C9
:10099000EFF3108372B6DFF8D0A10093DAE8CF1F2F
:1009A00001230029FAD1CAE8413F0029F6D1BFF35B
:1009B0005F8F664B93F90040002CC0F2A080644D1D
:1009C00004EB440705EB870898F8061009F11009B5
:1009D0001970604BBF009B6853F829006300411BEE
:1009E0002F292FD95C49884240F0A4801C445B4BDE
:1009F00002372F44043BDB1BC3F34A036FEAC343B4
:100A00004FF421416FEAD34325F8241005EB840409
:100A100063804BF60153A380FF2348F00100E67189
:100A2000C4F808B0A3714B4B9B6843F82900BFF38F
:100A30005F8F0023CAE88F3F009B83F3108803B0C9
:100A4000BDE8F08F20F0010E9EF80710B1422ED8BD
:100A50004FF42143EB53414BB91C2944043B043769
:100A60005B1A2F44AEF104013D4CC91BC1F34A018E
:100A70002143A8F80410C3F34A033A492343A8F8D2
:100A800002304AF6AA2073465B1B5B415843000DB7
:100A900088F8076088F80600C8F808B048F0010038
:100AA000CEF80010BFE7D179B1422ED996469EF913
:100AB00006C00CEB4C02BCF1000F05EB8202F2DA2F
:100AC0004BF601510EF10402A8F10407BF1AC7F357
:100AD0004A076FEAC7476FEAD7478EF8064003EB2D
:100AE0000408204C05EB8803AEF8047045F8284054
:100AF000998083F806C0DE71C3F808B093E701F06F
:100B00001BFA124B93F9004059E7724632F8041F62
:100B1000490514D44915023102EB410101916FF0EE
:100B20000701C91B019F491B3944C1F34A0141F424
:100B30006041C9E7019301F0FFF9019B56E701F518
:100B4000FF1101F5FF511F31E4E700BF3BB2002068
:100B5000240D002000ED00E011010010540D0020D4
:100B600000E0FFFF01488047E93500202DE9F04F04
:100B700083B0EFF3108A72B6744ED6E8CF2F0123FC
:100B8000002AFAD1C6E8423F002AF6D1BFF35F8FB0
:100B90006F4B00F110089B686E4A53F8285095423D
:100BA0003FD08D420C464AD06B4FEB1B2F2B38D8D1
:100BB00001214FEA50194FEA890909F1604909F505
:100BC000614900F01F0301FA03F0D9F80030C9F8B9
:100BD000800000EA030BBFF35F8FEFF30581C9B21A
:100BE00079B3884577D125F0010EDEF808C0644559
:100BF00005D17CE0D3F808C0644532D09E469EF90A
:100C0000062002EB4203002A07EB8303F2DA644575
:100C100000F08180BBF1000F20D0C9F88001C9F835
:100C200000004B4B9B6843F82850BFF35F8F0023B5
:100C3000C6E88F3F8AF3108803B0BDE8F08F1546F1
:100C4000EFE725F0010EDEF808C06445D7D19EF924
:100C500006407346002C08DA154666E0C9F88000A5
:100C6000DFE793F90640002C56DB04EB440C07EB5E
:100C70008C0CDCF8082061009A609CF80720DA717F
:100C80009CF90620002A9A715DDBBCF8042052050D
:100C900004D502F5FF1202F5FF521F32521502F180
:100CA000020C4FF0040E0C2212FB04E202EB4C0289
:100CB0006FF0070C3A44ACEB030C6244C2F34A02F7
:100CC00042F460429A80254B21441A7807EB810157
:100CD0001C708A719EE7CDE9000101F02DF9DDE974
:100CE000000125F0010EDEF808C0644587D19EF9A9
:100CF00006407346002CB8DA194A1A4CD21A083A40
:100D0000C2F30A316FEA01516FEA115144EA52020B
:100D1000DA8099807EE773460029EDD1FF228EF8B4
:100D200006204BF60152AEF804200C4C4AF6AA22DB
:100D300094F800C01946C91B49414A43120D83F873
:100D400006C0227066E74BF60152BBE7E93500208A
:100D500000ED00E011010010240D00203BB2002046
:100D60005E0D002000F8FFFFF0B5EFF30585EDB252
:100D7000EFF3108C72B62649D1E8CF2F0123002A59
:100D8000FAD1C1E8423F002AF6D1BFF35F8F214E6E
:100D900040F0010EB4684AF6AA2354F825701E4AA2
:100DA0000446A41A644163431B0D77455BB21BD014
:100DB00092F906409C421CD092F912409C4223D0EA
:100DC00092F91E409C4221D092F92A409C4208BFD1
:100DD00003240FD0114A0024157813708571C1E8DF
:100DE0008F4F8CF31088F0BDB2680D4C42F825404F
:100DF000F0E7002404EB440402EB8402FF24947126
:100E00004BF601549480E5E70124F3E70224F1E76F
:100E1000E935002000ED00E0240D00203BB2002069
:100E20001101001010B5074C82B0014605230022C5
:100E300000940548FFF796FC0028A8BFC0F13300D6
:100E400002B010BD900C011048B20020014B0B44C1
:100E500003607047E035002070B5104C104DAC4277
:100E60000ED2FF26236863B1FFF7CAFC0146204675
:100E7000FFF7ECFFA680BFF35F8F0834AC42F1D3DD
:100E800070BDFFF7BDFC01462046FFF7DFFF26716E
:100E9000BFF35F8F0834AC42E4D370BDE80D00208F
:100EA000000E002010B50446FFF7AAFC01462046BC
:100EB000FFF7CCFFFF232371BFF35F8F10BD00BF8F
:100EC00010B504460120FFF7A7FC034B0344236041
:100ED000BFF35F8F10BD00BFE0350020024B0B4415
:100EE0000360BFF35F8F7047E03500200D4B1A6839
:100EF000EFF3108172B6D2E8CFCF0120BCF1000F22
:100F0000F9D1C2E84C0FBCF1000FF4D1BFF35F8FF1
:100F100000221B68C3E88F2F81F3108840BF002098
:100F200000217047A4B100202DE9F04F2DED028B78
:100F300085B0EFF30583DBB2103B9A0818BF01229E
:100F40004FF0010103F0030018BFAF4DAF4B08BFD6
:100F5000AF4D00EB820253F8226001FA00FB05F569
:100F600041539FEDA78B0190C3F804B02EE0B388E6
:100F7000180440F19280B379002B40F0DC80B6F980
:100F800008100029C0F21D81736901EB410103EBD8
:100F9000C103D3E90247B7F1FF3F08BFB4F1FF3FF8
:100FA0000DD0019B05EB8301AB6A0A69D21AE31AE3
:100FB000934203D32B6A13EA0B0F00D10C6128462E
:100FC00000F0BEFBA042B941C0F2FB80B6F9083088
:100FD000C5F83CB0002B0093C9DBD6F8149003EBA6
:100FE000430A284609EBCA07D7E9024800F0A8FBE4
:100FF000A04271EB0801BADBB8F1000FC0F2C38068
:10100000D7E90431834A934200F0ED807A88B6F93B
:10101000080092B242EA0040984702460B4652EA64
:10102000030100F0B080002B80F2D180B4EB020EFF
:1010300068EB030839F93A30C7E902E8002B96DB80
:10104000716903EB430201EBC202D2E90270BE45B3
:1010500078EB000C4FEA430289DBB4462CF8083FDA
:101060000BE031F93230A446002B0DDB03EB4300DB
:1010700001EBC0005A00D0E90270BE451A4478EB7B
:10108000000001EBC204ECDA29F83A30009BACF81E
:101090000030B38818043FF56EAF3369EFF3108268
:1010A00072B6D3E8CF0F01210028FAD1C3E8401F60
:1010B0000028F6D1BFF35F8F4FF6FF74B08800238E
:1010C000316900B2B480C1E88F3F82F31088984242
:1010D000FFF651AF0746A946746906F1080807EB09
:1010E000470E04EBCE03D3E90250B6F90830C446EC
:1010F000002B13DBB246009704E034F936309446F7
:10110000002B09DB03EB430604EBC602D2E90271B4
:10111000BD4270EB0101F0DA5646009FACF800705A
:1011200034F93E7024F83E30002FD8DAB3794D46BA
:10113000002B3FF424AF0023B371B6F9083006F159
:101140000808591C3DD01946776903E080465A1CAF
:101150003FF417AF03EB430207EBC200B0F802C045
:101160001C461CF4004F9E4637F93230EED08C42BC
:1011700080ED028B05D0A8F80030318927F83210B5
:1011800034817146E3E739F83A3033813369EFF35C
:10119000108272B6D3E8CF0F01210028FAD1C3E83C
:1011A000401F0028F6D1BFF35F8F7388316929F89B
:1011B0003A30009B73800023C1E88F3F82F3108890
:1011C000D5E640BF05B0BDEC028BBDE8F08F2846E8
:1011D000CDE9022300F0B4FA029A039B10EB020E51
:1011E00043EB010826E708460B690291984700285F
:1011F000C9D00299D1E9002311E700BFAFF3008005
:10120000FFFFFFFFFFFFFFFF00800B40D8A900207A
:1012100000000B40290F00102DE9F84F364C2569CE
:101220002DB1BDE8F84F0A213448FFF70FBEDFF8B3
:10123000E4800321404600F071FA0326C4F80C80D4
:10124000FFF7DEFA4FF0504C2D4B2670034423611C
:10125000DCF800300F216370636961801D834FF0FB
:101260000405A3F878504FF00505A3F890504FF00F
:101270000605A3F8A8504FF007050E214FF6FF72A0
:1012800008274FF00A0EA3F8C0504FF001094FF0A5
:101290000C0C4FF0020B4FF0090A0D204FF00B051C
:1012A000A3F868111749A280A3F808E1A160A3F888
:1012B00048B0A3F8F0A0A3F82051A3F838C1A3F8D0
:1012C0005001A3F83090A3F86060A3F8D8701A809A
:1012D0000D4B3046C8F820700C49DC60FFF722FB4C
:1012E00049463046FFF7DCFA094B0A211F640348E0
:1012F000BDE8F84FFFF7AABD6C0D0020A4B1002097
:10130000E0350020FFFF1000D8A90020290F0010B1
:1013100000200B4000000B40004870476C0D00207F
:10132000F8B59DF82070044616461D4637B900F002
:101330000FFA864265EB010100295CDB2369EFF3BC
:10134000108772B6D3E8CF1F01220029FAD1C3E873
:10135000412F0029F6D1BFF35F8FB4F902C0636952
:101360000CEB4C01BCF1000F4FEAC10203EBC101D1
:1013700038DB985A4FF0000E60802069C0E88FEF8C
:1013800087F310880698C1E90265086107984861EB
:1013900048880130C0F30E00012838BF0120488082
:1013A00040EA0C402169EFF3108572B6D1E8CF7F97
:1013B0000126002FFAD1C1E8476F002FF6D1BFF305
:1013C0005F8FA1889952A4F804C02369C3E88FEF06
:1013D00085F310880122E368217803F501538A40E0
:1013E0005A60F8BD00232269C2E88F3F87F3108856
:1013F0004FF0FF30F8BD3846F8BD00BF0146F0B5EC
:101400000069EFF3108772B6D0E8CF5F0124002D9A
:10141000FAD1C0E8454F002DF6D1BFF35F8FB1F987
:1014200002E04C690EEB4E0CBEF1000F4FEACC050A
:1014300004EBCC0C3DDB605B002648800869C0E80B
:101440008F6F87F31088BCF80200CCE902230130CB
:10145000C0F30E00012838BF0120059BACF8020044
:10146000CCF81030069B40EA0E40CCF814300B69E3
:10147000EFF3108272B6D3E8CFCF0127BCF1000F93
:10148000F9D1C3E84C7FBCF1000FF4D1BFF35F8FFB
:101490008B886353A1F804E00B69C3E88F6F82F374
:1014A00010880122CB68097803F501538A405A60FD
:1014B000F0BD00230A69C2E88F3F87F310884FF020
:1014C000FF30F0BD03464089B0EB214F37DD58694E
:1014D0000A1402EB420210B500EBC2001C69EFF3E4
:1014E000108C72B6D4E8CFEF0122BEF1000FF9D113
:1014F000C4E84E2FBEF1000FF4D1BFF35F8F4288D6
:1015000089B292B28A4207D000221B69C3E88F2FAA
:101510008CF31088002010BD42F40042428001216B
:10152000002218699971C0E88F2F8CF310881C78FD
:10153000DA68084602F50153A140596010BD002049
:10154000704700BF407870472DE9F041861F41F198
:10155000FF35B04271EB050338BF002682B038BFBB
:10156000354604460F4600F0F3F8301A65EB0103E8
:10157000012873F1000306DA2046394602B0BDE8BF
:10158000F04100F021B900F0E3F8864265EB01017B
:1015900000290ADB0021174B3246009316482B46E0
:1015A0000191FFF72BFF0028E6DB4FF0000C1348FA
:1015B000134A436A9D4204D8816AB142DCD29D42FB
:1015C000DAD11368EFF3108172B6D3E8CF8F5FF0F2
:1015D000010EB8F1000FF8D1C3E848EFB8F1000FE1
:1015E000F3D1BFF35F8F1368C3E88FCF81F3108807
:1015F00020BFDEE7ED0E00106C0D002000000B4058
:10160000A4B1002038B504460D4600F0A1F84FF013
:10161000FF326FF00043201845EB0101824273EB6B
:10162000010438BF1946BDE8384038BF1046FFF7FF
:101630008BBF00BF10B5044600F08AF84FF47A73F0
:101640004FF0FF3C6FF00042E4FB0301BDE81040A7
:10165000844572EB01033CBF60461146FFF774BF3F
:101660002DE9F04306460D4683B0EFF30584E4B25E
:101670003CB1274B586AA8421CD2002003B0BDE8F9
:10168000F083244FD7F80C9097F80080484600F07C
:1016900057F808F1040859F828301B1A301A65EB7E
:1016A0000101984271F1000111DB20BF184B586A0B
:1016B000A842E2D39B6AB34203D3012003B0BDE842
:1016C000F083401B18BF012003B0BDE8F08300F099
:1016D0003FF8864265EB01010029CADB0E4B384614
:1016E000CDE9003432462B46FFF788FE011EC0DDEF
:1016F000074B5A6AAA4208D39B6AB34203D30548F0
:10170000FFF7E0FEB5E7AA42F9D120BFF7E700BF37
:1017100000000B406C0D0020ED0E001010B4054BC6
:10172000054C064AA04214BF1846581C5DF8044BED
:10173000FEF7ECBF383B002000800B40AC0C0110E2
:101740000346416A0A46986A596A8A42FAD1704742
:10175000034B596A0A46986A596A9142FAD170470E
:1017600000000B4010B4174A536A9C46946A536AAF
:101770006345FAD1001959414FF0000228BF0122F8
:101780000346CAB10F4B596A4B1C08BF0B4608D021
:101790004FF0FF310B460B48426A8A42FCD38A4223
:1017A00007D1084A02E0506A884202D1906A984202
:1017B000F9D35DF8044B7047024A526A9142EAD865
:1017C000EDE700BF00000B40074A536A9942FCD87E
:1017D000994207D1044B02E05A6A914202D19A6AB7
:1017E0008242F9D3704700BF00000B40F8B50546B0
:1017F00006200E4600F0E4F8002842D0354A36486C
:10180000954214BF4FF080624FF00062334B344971
:1018100002601A608C6832EA0404FBD12D4B4FF44D
:101820008071EB1AB3FA83F32E4A5B09062022F883
:10183000131000F0C5F8C300B3FBF6F30133DA0967
:1018400020D1402601216962AA622F6BFB0722D4B6
:101850002B46002253F82C1F062003F580542260EB
:101860002F6300F0ADF840F2013103228000B0FB9D
:10187000F6F0EB6A83F0700303F07E0323602963C4
:10188000AA64F8BD4FF6FE718A421BD922464FF674
:10189000FF71154ED7E740F2013205F540531A6348
:1018A0006B6AAC6A062004EB831400F089F80F4BD6
:1018B000A402A3FB0023DB0A0021B4FBF3F0FFF733
:1018C00051FFC5E7C3F34503114603EB82161A46E1
:1018D000B9E700BF0080074000200240003002400E
:1018E0000000024004B20020C0FF3F00757B2B8F38
:1018F00000EB400C4FEA8C0C0CF1804C0CF5803C5A
:10190000F0B51646DCF80420051FB2F5803F38BF5D
:101910004FF48032EDB238BFCCF80420012D2AD923
:101920004FF40067254C0CF54052176054F8202006
:10193000B2B9DCF80020012D82EA461202F0E00282
:101940000CF5805632602AD94FF4006144F82030FB
:101950004FF480330CF500521160CCF80430F0BD28
:101960006769B7FBF2FE0EF1010E0EEB4E0EBEF1F3
:10197000030EFCD2DDE70129D2D103240CF540523D
:101980001460DCF80820D207FBD5DCF800200B4CF3
:1019900082EA461202F0E0020CF580563260012223
:1019A000DCF800504D4005F00305356002FA01F106
:1019B000DCF808200A42FBD0C6E700BF3C3B002011
:1019C000014B53F8200070473C3B0020584B2DE959
:1019D000F0431C6C1746B4F5803F38BF4FF480329B
:1019E0000E464FF00301804638BF1A64514A504BEF
:1019F00083B0D1635C6CE507FCD5DA6B4E4982F0AD
:101A0000200202F0E002CA63DB6B494D83F0010360
:101A100003F00303CB636C6CA407FCD54FF40062A6
:101A20004FF48039454B464CDA63464B424663617E
:101A300001213346C5F840904348009700F056F91D
:101A40004FF400616B6B07FB06F64B4538BFC5F8DA
:101A50003490384B2269B8FBF6F619633AB16369E2
:101A6000B3FBF2F3013303EB4303033BFDD2304BF3
:101A700031491A6B02F0E0020A631A6B82F002022B
:101A800002F003020A63996B4807FCD54FF4006526
:101A90004FF4803229490D632C495A632161196C36
:101AA00091424FF0030138BF1A64224B204AD96398
:101AB000536CD907FCD5D36B1F4D03F0E003EB63E8
:101AC000D36B1B4983F0010303F00303EB634B6CFF
:101AD0009B07FCD54FF480334FF40065174A6661CD
:101AE000D5630B64CA6C9A4238BFCB644FF4006173
:101AF000104BA26999643AB16369B3FBF2F3013305
:101B000003EB4303033BFDD24FF400604FF48031FD
:101B1000074A094D936C83F0400303F0E003AB6484
:101B2000064B084DA5619864D16403B0BDE8F0830D
:101B30000000014000300140001001400020014041
:101B40003C3B0020006CDC0200000540001BB7009D
:101B50002DE9F04F4FF4A078994685B0CDE90212F7
:101B60005F4CDFF884A154450AD908F1FF38A4F589
:101B70003B54B8F10F0FA4F12004F4D1002069E028
:101B8000072304F53722019403FB03F402F5D8720E
:101B9000B2FBF4FE70454FF0010C4FF002074FF01E
:101BA00003064FF004054FF005013FD0B3F1010EDD
:101BB00000F094800EFB03F4B2FBF4FB58454CD0CC
:101BC00019B301FB03F4B2FBF4FB58454FD0E5B168
:101BD00005FB03F4B2FBF4FB584553D0AEB106FB52
:101BE00003F4B2FBF4FB584557D077B107FB03F47D
:101BF000B2FBF4FB58455BD0BCF1000F05D00CFBE9
:101C000003F4B2FBF4FB83455DD0734603FB03F49E
:101C1000B2FBF4FE704501F1FF3105F1FF3506F12D
:101C2000FF3607F1FF370CF1FF3CBFD104FB102456
:101C3000002CBBD19E464A46DDF808B0DDF80C907A
:101C40000120284901FB08F1CBF80010C9F8003049
:101C5000C2F800E005B0BDE8F08F04FB1024002CB2
:101C6000AED14A46DDF808B0DDF80C90E8E704FB99
:101C70001024002CABD14A468E46DDF808B0DDF8C2
:101C80000C90DDE704FB1024002CA7D14A46AE4699
:101C9000DDF808B0DDF80C90D2E704FB1024002C2E
:101CA000A3D14A46B646DDF808B0DDF80C90C7E788
:101CB00004FB1024002C9FD14A46BE46DDF808B034
:101CC000DDF80C90BCE704FB1024002C9DD14A46A3
:101CD000E646DDF808B0DDF80C90B1E7019C44E77A
:101CE00050262F00001BB70050F80C0070B4039D65
:101CF00004682D0345EA03451B4B002CB3FBF1F3AD
:101D0000B2FBF3F61FDB194A194B904214BF4FF494
:101D100080424FF40042174C1A6003F580531A605A
:101D2000A36832EA0303FBD1212200F540530433B8
:101D3000016086601A600268002AFCDA0822C56029
:101D40001A6070BC7047036803F03F038B42DAD11E
:101D50008368C3F30B03B342D5D1C36803F4EE2306
:101D6000AB42D0D1EDE700BF001BB70000800540BB
:101D700000200240000002400A4B0B490B4A596008
:101D8000D3681904FCD40A4BD26843EA001309490A
:101D9000534009481940054AC160D3681B04FCD46C
:101DA000704700BF002010400020FE5A0000104085
:101DB0000000FE5AF001FE5A0010104030B44FF0FF
:101DC00080441C4B1C60E0B11B4CA3F54053DC610C
:101DD0001A4C40F0010044401C62596298624FF076
:101DE00080454FF0E061134B1548164C1D60846030
:101DF00019604AB930BC4FF00042A3F580531A6015
:101E00007047114BD861EAE74FF47A7303FB02F293
:101E1000B2F1807F2ABF6FF07F4313461A464FF01E
:101E200080410A4C08482360094B426030BC19606D
:101E3000704700BF00B00D40D3C007B02D3FF84F32
:101E400000A00140F3FFFF0100800D407C3E002018
:101E500000A00D40012300EB4000800000F1804015
:101E600000F5841041600360704700BF002370B527
:101E7000DB8A04460D46002242E800F2520254BFBB
:101E80001021042144F25220984786462B462246D0
:101E9000F446BDE870400A214FF48170604700BFEE
:101EA0000023DB8A002242E800F2520201D4102112
:101EB00018470421184700BF08B503460846191EF5
:101EC00002DB1AB140F03000FFF7D0FF40F02000F5
:101ED000FAE700BF034AD2F82838002BFBD0BFF343
:101EE0005F8F704700000E400021044B044ABFF38F
:101EF0005F8F43F8041B9342F9D170470C080E40E2
:101F00002C080E4010B44FF48D704FF42A64064A2A
:101F1000064B07491460D06019605368002BFCDA47
:101F20005DF8044B704700BF0080044000A00440EF
:101F300000B0FA00704700BF08B50148FEF7B2FBD9
:101F4000D00C011038B5054C054DAC4204D254F804
:101F5000043B9847AC42FAD338BD00BF800B011058
:101F6000C00B011038B5054C054DAC4204D254F8F5
:101F7000043B9847AC42FAD338BD00BFAC0B01100C
:101F8000C00B011010B40748074C084B084A094918
:101F900004601A608B6832EA0303FBD15DF8044BDE
:101FA000704700BF002002407F3BEFEF003002404F
:101FB000F6FFF30300000240044BDB6CB3F5004F67
:101FC00003D14FF48022024BDA64704700001150B5
:101FD000002011504FF0E022044BD2F8881D0B4333
:101FE000C2F8883D10EE3004704700BF0303300094
:101FF0006FF06041044B054A19609368DB4333F08E
:102000006043FAD1704700BF003002400000024038
:1020100010B545F25320FFF743FFBDE810400346DB
:102020000420184710B545F25320FFF739FFBDE8EB
:102030001040034601201847FEF706BC70B514494E
:10204000144C154D641AA610442E324628BF442263
:10205000284692000EF076FCB4F5867F13D80F4A1E
:10206000C6F1440112D02B19480803EBC000C3E9A4
:10207000002208338342FAD1CB0704D521F00103B3
:10208000334445F82320064B9D6070BD4323F8E799
:1020900000000010100100100000002011010010CD
:1020A00000ED00E0002370B52B4C82B0C4F8843002
:1020B000FFF728FF0122294BDA63636C012BFCD167
:1020C0000321264A244B11639C6B012CFCD1022670
:1020D000052521460523224A22480096FFF706FEE1
:1020E00021462B46204A21480095FFF7FFFD00229C
:1020F000042031461E4BFFF7FBFB214628460022F9
:102100001C4BFFF7F5FB0022082011461A4BFFF786
:10211000EFFB002209201146174BFFF7E9FB0022D5
:1021200006201146134BFFF7E3FB0022114B07205B
:102130001146FFF7DDFB0420FFF742FC00240F4BA4
:10214000A3FB0035AD0CE0B229460134FFF782FE57
:10215000062CF8D102B070BD0000014000300140F3
:10216000002F685900000540008C8647008005401C
:10217000001BB70080D1F008006CDC0283DE1B433B
:1021800086B003B451FC0804CDE9020151FC0904F6
:10219000CDE9040151EC0A04CDE9060103BCF04786
:1021A000BDE800504EEC00C4BDE800504EEC01C448
:1021B000BDE800504EEC02C400BD000000B5FFF7C2
:1021C000DFFF02E010FE30F4F8D441EC100443ECE1
:1021D000112400EE010410EE010480EE200451EC05
:1021E0001004704700B5FFF7CBFF02E010FE30F49B
:1021F000F8D441EC100443EC112400EE010410EE7D
:10220000210480EE200451EC3004704700B5FFF744
:10221000B7FF02E010FE30F4F8D410B541EC100422
:1022200043EC112451EC040453EC0524A0FB024CB4
:102230005FF0000EE0FB03CEE1FB02CE4CEC20444D
:102240000024E1FB03E444EC30E480EE200451EC94
:102250005004BDE81040704700B5FFF791FF02E061
:1022600010FE30F4F8D441EC100443EC112451EC8E
:102270002104A0FB01126FEA820252FB100052FB04
:1022800012F252FB1000A0EBD07C53EC04245CFB58
:1022900013F153EC1524A1FB022001FB030053ECC6
:1022A0004424A2EB000050FB1CF24FEA111312EB86
:1022B000017043EBE27140EA515020EA915020F066
:1022C000070053EC7524A0FB023C53EC752400FB83
:1022D00003CC01FB02CC53EC0424ACEB824C40EA6F
:1022E0005C70A0F1010041EC400480EE200451EC50
:1022F0007004704700B5FFF743FF02E010FE30F4B2
:10230000F8D440EC700400EE010410EE210480EEDD
:10231000200451EC3004704700B5FFF731FF02E0B4
:1023200010FE30F4F8D440EC600400EE010410EE2E
:10233000210480EE200451EC3004704700B5FFF713
:102340001FFF02E010FE30F4F8D441EC800400EEF0
:10235000010410EE010480EE400410EE13047047F7
:1023600000B5FFF70DFF02E010FE30F4F8D441ECA9
:10237000800400EE010410EE010480EE400410EE33
:102380003304704700B5FFF7FBFE02E010FE30F4A7
:10239000F8D441EC100443EC112400EE010410EEDB
:1023A0003004C0F30070704700B5FFF7E9FE02E0AB
:1023B00010FE30F4F8D443EC102441EC110400EE8C
:1023C000010410EE30F48CBF01200020704700BFE4
:1023D00000B5FFF7D5FE02E010FE30F4F8D441EC72
:1023E000100443EC112400EE010410EE30F42CBF75
:1023F00001200020704700BF00B5FFF7C1FE02E0DA
:1024000010FE30F4F8D441EC100443EC112400EE3B
:10241000010410EE30F48CBF01200020704700BF93
:10242000704700BF2DE9F04F83B09946DDE90DAB51
:102430000F9B884611469A07074616D1DA453AD2CD
:102440000C460D46ABEB0A060E4422464B4641466F
:1024500020200134B847B442F7D12946BAF1000F21
:1024600008D1204603B0BDE8F08F0C46BAF1000F4A
:1024700010D00E4655460C9B2E449A440191721B77
:102480004B46013D41461AF8010D3446B847002D30
:10249000F5D101990F9B9B07E3D5651AAB45E0D9B0
:1024A00022464B46414620200135B8475D4504F1A0
:1024B0000104F5D3D5E7BAF1000FDAD10C46D0E725
:1024C0002DE9F04F0F9FDDF824E017F0020F0A9C72
:1024D0009DF82C900E9DDDE90C8629D1002D6FD141
:1024E000B44225D2202C07F0010B00F0128104F138
:1024F000FF3C4FF0300AF44401E0202C7AD0013444
:10250000A6420CF801AFF8D8BBF1000F10D0AC42D6
:102510000ED2202C74D004F1FF3C4FF0300AF4446A
:1025200001E0202C29D00134AC420CF801AFF8D1E5
:1025300017F0100F3AD017F4806F28D11CBBB8F1F8
:10254000100F00F0CA80B8F1020F00F0D4803024E0
:102550008EF800400124B9F1000F67D17E0740F1E9
:10256000AA802B260EF804600134CDE90B57CDE983
:1025700009E4BDE8F04FFFF755BFFC0640F1898044
:102580007C0535D42024A6426AD0AC4268D0B8F18C
:10259000100F00F08780B8F1020F5AD0202CE4D041
:1025A000264601344FF0300C0EF806C0202CD2D154
:1025B000CDE90B57CDE909E4BDE8F04FFFF732BF95
:1025C00017F0010B3ED0B9F1000F47D117F00C0FF7
:1025D00044D1B4429BD2202C89D1202D10D8FC06A6
:1025E00057D57C0555D4202E00F0B980202D10D071
:1025F0002024CCE7BBF1000F00F0A580202DBCD932
:10260000FC0646D57C0544D4202E00F0A880202D61
:102610003FD12C461F26B8F1100F7FD0B8F1020F22
:10262000C0D14FF0620C0EF806C0B7E72D260EF8A9
:1026300004600134CDE90B57CDE909E4BDE8F04F62
:10264000FFF7F0BEB442BFF473AF202C7FF44FAF5E
:10265000D6E7202C89D026460134E2E7013DB8E7D1
:10266000661ED8D1B8F1100F64D0B8F1020F7FF414
:102670006EAF62268EF80060302644468EF8016008
:10268000B9F1000F3FF46AAFD0E7B8F1100F7FF453
:102690006CAF2024CDE90B57CDE909E4BDE8F04F3C
:1026A000FFF7C0BEBE060ED4202CF2D078260EF85E
:1026B0000460013472E73E077FF557AF20260EF81D
:1026C0000460013451E7202CE3D04FF0580C0EEB9E
:1026D000040686F800C0013460E7BE0617D558240A
:1026E0008EF8004030248EF801400224B9F1000F2A
:1026F0003FF434AF9AE762248EF8004030248EF81D
:1027000001400224B9F1000F3FF428AF8EE778248E
:10271000F2E7BBF1000F7FF462AF71E717F0200F13
:102720000CBF4FF0780C4FF0580CA61E0EF806C0E8
:10273000013C35E7BC06EAD558248EF80040302429
:102740008EF80140DDE717F0100F3FF40EAF17F4DD
:10275000806F9AD1202E7FF418AF1F265BE7344696
:102760001F2658E700B9704701F08ABA10B1D1E9C5
:1027700000311847704700BF2DE9F04F9FB09DED25
:10278000287BDDE92AA558EC177B83461E460D9170
:10279000109243463A46384641468DED087B2C9CC4
:1027A000FFF7F4FD002840F0D880384641464FF04E
:1027B000FF32754BFFF724FE002840F0CE803846EC
:1027C00041464FF0FF326FF48013FFF7F1FD002810
:1027D00040F0C380DDE908780022384641460023F6
:1027E000FFF7E6FD002840F0C081CDE90A78DDE979
:1027F0000A2390461F4614F4806308BF4FF0060A70
:10280000139304F4006258EA0703119240F0C08069
:10281000002A00F0A2819FED5A7B00278DED0E7BF0
:102820004FF00009BA45CCBFAAEB070A4FF0000AE7
:102830004F46C8BF0AF1FF3A44F480644D4594BF47
:102840004FF00008A5EB090814F00203119304D01F
:10285000B9F1000F18BF4FF000083FB1DDE90A01E0
:10286000DDE90E23FFF7FCFCCDE90A01DDE90801F3
:1028700000220023FFF79CFD30B1DDE90A0102468A
:1028800001F10043CDE90A239DED0A7BCDE902A8C1
:10289000DDF834A024F4006304938DED007B33460F
:1028A00051465846109A00F097F98046B9F1000F4A
:1028B0004FD014F0200F024600F1010433460CBF44
:1028C000652045205146D84709F1FF3087EAE77C6B
:1028D0000DF1580900224B46DFF8B080ACEBE77CE5
:1028E0004FEAD77E01E0202A10D0E246A8FB0C7107
:1028F000C90801EB8107ACEB47073037BAF1090F84
:102900008C4602F1010203F8017BECD80523059007
:10291000069300200A230D9FCDE90330CDE9012E57
:102920003346224639465846CDF80090FFF7C8FD99
:10293000119B80466BB1109BC41AA54209D942462F
:102940003346394620200134D847A54208F1010812
:10295000F5D840461FB0BDE8F08F9DED087B3346AB
:102960005846109A0D998DED287BCDE92B54CDF862
:10297000A8A01FB0BDE8F04F00F02EB9AFF3008063
:102980000000000000000000FFFFEF7FCDCCCCCCAA
:10299000C7F30A50A0F2FF30FFF7B0FC8AA3D3E9D7
:1029A0000023FFF737FC8AA3D3E90023FFF70AFCD3
:1029B000C7F31307CDE90E0147F07F5140460022CF
:1029C0007B4B41F44011FFF711FC6BA3D3E90023CB
:1029D000FFF720FC02460B46DDE90E01FFF7F2FB94
:1029E000FFF7B0FC0746FFF789FC65A3D3E9002396
:1029F00080468946FFF70EFC00226E4BFFF7E2FB94
:102A0000FFF7A0FC03464946404612935EA3D3E974
:102A10000023FFF7FFFB804612988946FFF76EFC04
:102A20005BA3D3E90023FFF7F5FB02460B464046C4
:102A30004946FFF7DBFB02460B4680468946FFF717
:102A4000E9FB42464B46CDE90E0140464946FFF7B9
:102A5000B9FB0022CDE91401DDE90E01564BFFF769
:102A6000FFFB0022554BFFF7ADFB02460B46DDE9AD
:102A70000E01FFF7F5FB0022514BFFF7A3FB0246C7
:102A80000B46DDE90E01FFF7EBFB42464B46804665
:102A9000894600204FF08041FFF7A8FB02460B4615
:102AA00040464946FFF78EFB02460B46DDE914011E
:102AB000FFF7D6FB0022434BFFF784FB129B00225B
:102AC00003F2FF3C4FEA0C53FFF7A4FB8046894614
:102AD000DDE90A0142464B46CDE90E89FFF768FC65
:102AE00068BB4346494607F16302C62A119A8CBF68
:102AF0004FF005094FF00409002A3FF49FAE0B4345
:102B00003FF48EAEDDE90A0123A3D3E90023FFF7EA
:102B100063FC48B1DDE90A0121A3D3E90023FFF7F3
:102B200047FC00287FF47CAEBAF1000F3FF486AE7C
:102B3000139B002B3FF482AE0AF1FF3A7EE600229F
:102B40001E4B40464946FFF78BFB0A4601460346AB
:102B5000CDE90E12013F1146C5E79FED137B1746E5
:102B60004FF004098DED0E7B68E608F100430A97EB
:102B70000B933CE6AFF3008061436F63A787D23FBE
:102B800071A379094F930A401655B5BBB16B02404A
:102B9000EF39FAFE422EE63F2D431CEBE2361A3F98
:102BA0000000000080842E410000000000000000B2
:102BB0000000F83F0000E03F00002C4000002440EF
:102BC000000018400000F03FFB799F501344D33FB2
:102BD000B3C8608B288AC63F2DE9F04F97B0DDE976
:102BE0002089CDE90401DDE9224BCDE906234046E9
:102BF00042464B464946DDF890A0FFF7C7FB002848
:102C000040F0C581404649464FF0FF326FF48013D3
:102C1000FFF7CEFB002840F01D81404649464FF0AB
:102C2000FF32C14BFFF7ECFB002840F0E380B8A374
:102C3000D3E9002340464946FFF7E2FB002840F075
:102C4000CB80B5A3D3E9002340464946FFF7B0FB4C
:102C5000002840F0C1804046494600220023FFF78B
:102C6000A7FB002840F0E0801AF480650D9000F08A
:102C7000E980092C40F296810EAB1A460C93302164
:102C80000023A4F109050133202B02F8011BA4EB5A
:102C9000030600F03A81AB42F5D19FED9D7B8DEDAF
:102CA000087B49464046FFF74DFB0446FFF726FBED
:102CB00002460B4640464946FFF798FADDE90823ED
:102CC000FFF7A8FA02460B46CDE90A23FFF74CFBB3
:102CD0000746FFF725FB02460B46DDE90A01FFF731
:102CE00085FA02460B46CDE90A2300228F4BFFF7F7
:102CF00087FB002800F0DB8001373846FFF710FB28
:102D0000DDE90823FFF768FB08B100270134002E36
:102D100040F0B1802046FFF7F1FA02460B464046EC
:102D20004946FFF763FA0022804B06460F46FFF73D
:102D30003FFB40B93046394600227C4BFFF760FB31
:102D4000002800F015810C9B691E7948194410E099
:102D500080FB0462C3EBA20303EB8302A4EB4204F7
:102D600004F1300201351C4601F8012F002B00F060
:102D7000AB80202D4FEAE473EAD10AF00303012B64
:102D80001CD1BBF1000F19D00D9B002B40F0F98036
:102D90001AF00C0F40F0F580AB4540F2D380202DA7
:102DA0000BD030220C996B1E0B4401355D4503F8A6
:102DB000012F00F08D80202DF7D12025DDE906239D
:102DC000DDE904010C9CCDE902BA01950094FFF7FE
:102DD00029FB17B0BDE8F08FCDE92089DDE9062396
:102DE000DDE90401CDE923BA229417B0BDE8F04F24
:102DF000FFF7C2BC4F4DCDF88CA00AF0040ABAF11F
:102E0000000F4D4C18BF2C46DDE90623DDE9040117
:102E100020940CBF03240424CDF888B0219417B06B
:102E2000BDE8F04FFFF7FEBA4B46424600200021B6
:102E3000FFF7DCF901231AF48065804689460D937B
:102E40007FF417AF9FED367B0EAB06268DED087B2A
:102E50000C9326E70424DDE90623DDE90401374D60
:102E6000CDF88CA0CDF888B02095219417B0BDE89E
:102E7000F04FFFF7D7BA0C9B681EDFF8C4C01844A8
:102E80000DE0ACFB0721C90801EB8102A7EB420270
:102E90003032092F00F8012F27D90F461D46202D6B
:102EA00005F1010306F1FF36EBD120254BE70022A7
:102EB000DDE90A011D4BFFF77BFA00287FF427AFFD
:102EC000002F5AD1013722E70AF00303012B75D0F6
:102ED000202D3FF473AF0D9BBBB32D2205F158039A
:102EE0006B4403F8202C013568E7202BDDD0AEB30E
:102EF0000C9A1E441544302201E0B3422ED0013317
:102F0000202B05F8012FF8D1CFE71D46C5E600BFFD
:102F10000000000065CDCD410000000065CDCDC1B1
:102F20000000000080842E41FFFFEF7F0000E03FA3
:102F300067666666300D0110380D0110400D0110F6
:102F4000CDCCCCCC202D3FF439AF1AF0040F0DD1ED
:102F50001AF0080F3FF432AF2022BFE72E2103F111
:102F600058026A4402F8201C5D1CECE62B22B5E7EF
:102F7000E3077FF5E8AE0134E5E6FA077FF5C7AE73
:102F8000A0E70BF1FF3BAB453FF609AFA0E70324F9
:102F9000DDE90623DDE904010A4DCDF88CA0CDF86A
:102FA00088B061E7084B264603EBC40393ED007B32
:102FB0000EAB8DED087B00250C9372E6BBF1000F84
:102FC00086D0E1E63C0D0110001601102DE9F04F0E
:102FD0009A469BB0249C964D0B94964C0B1E18BFA2
:102FE000834625609AF80000934C0A9308BFA346D5
:102FF0000992002800F0BC824FF000090AE04A461E
:10300000099B0A9909F10109D8479AF8000000289C
:1030100000F0CE8025280AF1010AF0D100235246A3
:1030200012F8010BA0F1200110290AD8DFE801F005
:103030004009093C0909090909090938093409093C
:103040003000A0F13001092940F28C802A2800F0DC
:10305000F58000210C912E2800F099800027A0F126
:10306000680112292DD8DFE811F057012C00510119
:103070002C0045012C002C002C002C002C002C00D6
:103080002C0027002C002C002C002C002C002700EA
:10309000924643F00103C2E7924643F00203BEE7C3
:1030A000924643F00403BAE7924643F01003B6E7B2
:1030B000924643F00803B2E79AF8010043F48073A4
:1030C00001326728924600F28280242840F2C680AE
:1030D000A0F12502422A00F2C180DFE812F05F0170
:1030E000BF00BF00BF00BF00BF00BF00BF00BF00E8
:1030F000BF00BF00BF00BF00BF00BF00BF00BF00D8
:10310000BF00BF00BF00BF00BF00BF00BF00BF00C7
:10311000BF00BF00BF00BF00BF00BF00BF0026014F
:1031200045012601BF00BF00BF00BF00BF00BF00B8
:10313000BF00BF00BF00BF00BF00BF00BF00BF0097
:10314000BF00BF00D301BF00BF00BF00BF00BF0072
:10315000BF00BF00BF00BF00D3016701D30126013C
:1031600045012601002100E0013201EB810100EB65
:10317000410110789246A0F13004092CA1F13001F0
:10318000F2D92E280C9102F101027FF467AF9AF870
:1031900001001146A0F13006092E43F4806340F28D
:1031A00031812A2800F03E8192460027013256E7FD
:1031B0004C46099B994501D303F1FF394A4600204B
:1031C000099B0A99D84720461BB0BDE8F08FA0F1B3
:1031D0006902D2B20F2A41D8012649F24101964034
:1031E0000E4040F001810A2A3FD0072A36D10B9CBD
:1031F00054F8042B002A00F0288143F021010DF13E
:10320000480E704603E0202E00F029811A4602F095
:103210000F052B46092D94BF303337330F2A00F8A2
:10322000013B06F101064FEA1213ECD817E100BF8B
:10323000CD2F0010743E0020212400100B9C9AF822
:10324000010054F8045B9246002DBDBF694243F073
:1032500002030C910C950B940132FCE64A46099B43
:103260000A9909F10109D847CFE60B9951F8048B67
:1032700098F800201046002F40F0E18072B16FF006
:10328000010C0CF1010C4646C44401E0664503D034
:1032900016F8014F002CF9D1A6EB080613F4806C48
:1032A00002D0BE4228BF3E4613F0020400F08781E0
:1032B000002A00F02B81BCF1000F00F041810B943B
:1032C0000D964A46DDE909540E464F4408E02B4668
:1032D0002146D84718F8010F09F1010910B14A46F3
:1032E0004F45F4D131460B9C0D9E002C40F00E81D1
:1032F0000B918AE69AF801006C287FF4DFAE9AF809
:10330000020043F440730AF10302DAE69AF801007E
:1033100043F400730132D4E69AF80100682800F003
:10332000208143F080030132CBE6672800F0E7807C
:10333000472800F00081452800F0FF800B9C049393
:103340000C9B0734CDE9027324F007031C46DDE92A
:103350000931F4E802674A465846CDE900670B9404
:10336000FFF70AFA814650E646280B9C08BF43F057
:10337000200304930C9B0734CDE9027324F0070368
:103380001C46DDE90931F4E802674A465846CDE9B2
:1033900000670B94FFF720FC814636E64A4625205D
:1033A000099B0A9909F10109D8472EE60B9A9C0757
:1033B00002F1040709F1010640F1E6801078099B4B
:1033C0004A460A99D8470C9B012B40F22C81DDE933
:1033D0000954994432462B46214620200136D847CD
:1033E0004E45F7D10B9710E66F2800F08B8040F226
:1033F0006581782800F008814FF00A0823F0100357
:10340000C44647E0002707EB870700EB4700A0F121
:10341000300711F8010FA0F13002092AF3D98A46CA
:103420004A1C1CE60B9C9AF8020054F8047B0AF133
:10343000020A0AF101020B9427EAE7770FE6002A55
:103440003FF42CAF07F1FF3C1BE723F0100113F40E
:10345000806241F021013FF4D2AE0DF1480E082305
:103460001020059300234A46CDE9023006915846C4
:10347000DDE90931CDE900E60497FFF721F80B9467
:103480008146C2E5582879D0622840F051824FF039
:103490000208C44613F480606DD123F00C0313F4CA
:1034A000007240F0C2800B9904310D9113F48071C9
:1034B00040F02E825E060B9A40F1AA801278002A14
:1034C00040F0DA8023F01003002800F0D580114688
:1034D0000DF1480E06930C9BCDF80CC0CDE904739A
:1034E000019100234A4602935846DDE90931CDF89F
:1034F00000E0FEF7E5FF0D9B81460B9385E543F465
:1035000000631BE74FF00808C446C3E70C9B4C461A
:10351000B3427FF6EDAE0F464B44A3EB0609DDE95F
:10352000096522463346294620200134D8474C45B8
:10353000F7D13946DCE643F4006343F02003FDE6AF
:103540000F460B94DDE909544A462B462146D847DD
:1035500018F8010F09F101090028F5D139460B9C33
:10356000C3E69AF8020043F0C0030AF10302A8E59B
:10357000044681461DE623F00D0390E74FF0100846
:1035800043F02003C44685E70C9B012B45D9DDE9B8
:1035900009544E4609F1FF38984432462B462146DD
:1035A00020200136D8474645F7D10C9B3246994436
:1035B0000B9B1878DDE90931D8470B9725E50C9B63
:1035C000B34240F2EE81CDE90D48DDE90954884669
:1035D0004B449E1BCDF82CC04A462B46214620204A
:1035E00009F10109D847B145F6D14146DDF83880E7
:1035F0000C9BDDF82CC00D9C98F800205E1C10463A
:10360000002A7FF458AE73E64FF01008C44641E735
:103610001D064CBF1288126851E713464A461878B7
:10362000DDE90931D847B146DCE60B9C073424F0CC
:1036300007042246656852F8084B0B9254EA0502CB
:1036400040F02C8123F01003002800F02781002691
:103650000DF1480E06930C9B4A46CDE904730023F6
:10366000CDE900E6CDF80CC002935846DDE90931FA
:10367000FEF726FF8146C8E413F0200F14BF412057
:1036800061200DF1480E7646A0F10A0803E02029DA
:103690003FF420AF2246B2FBFCF40CFB1425E8B249
:1036A000092D00F130058ABF4044E8B2C0B262453E
:1036B00006F8010B01F10101E9D20BE723F010023A
:1036C00069280D9240F06F8113F4806204D04FF4AA
:1036D000806223F011030D930D9B13F4007640D10B
:1036E0000B9B03F104080D9B13F4807040F098804D
:1036F000590640F1C6800B9B19780C46CB0F002968
:1037000000F0B98022460DF1480E74461646DFF8E7
:10371000A0C201E020280FD03546ACFB0621C90825
:1037200001EB8102A6EB42023032092D0E4600F178
:10373000010004F8012BEDD80D9ACDE901030692A2
:103740000C9ACDE904720A234A4603935846DDE9F0
:103750000931CDF800E0FEF7B3FECDF82C808146AC
:1037600053E40B9C073424F00704214608466368A1
:1037700050F8081BDC0F0B9051EA030000F0C380E7
:103780000A46191E48DB13460DF1480EF446002682
:10379000CDE90E94DFF8188201E0202E2DD05A18C2
:1037A00042F10002A8FB025929F0030505EB990537
:1037B000521B1C469B1A61F1000508464FF0CC31A4
:1037C00001FB03F108FB0511A3FB08531944052372
:1037D00005F00109A9FB03399B180A2C03F13003FA
:1037E0004FEA550570F100000CF8013B06F10106A7
:1037F00045EAC1734FEA5101CFD2DDE90E940D9B2A
:103800004A4606930C9BCDE90164CDE904730A2373
:10381000CDF800E0039328E7524261EB4101B2E7A3
:103820000B9B1968CB0F002900F0AB8081EAE17295
:10383000A2EBE1720DF1480E7046DFF874C101E0B1
:10384000202E10D01546ACFB0241C90801EB8104C3
:10385000A2EB440404F13002092D00F8012B06F11B
:1038600001060A46ECD80D9ACDE9016306920C9A3E
:10387000CDE9047267E7002A3FF445AF0DF1480E29
:103880005AE713F0800F0B9B00F08180B3F9001012
:1038900081EAE174A4EBE174A4B22FE713F0200FE6
:1038A00014BF412261220DF1480E0A3ACDE90D976D
:1038B000CDF844B000267746F3469146CDE90F3C5B
:1038C00003E0202E17D004460D4629464246002329
:1038D00020460DF03DF9D2B2092A02F1300388BF2B
:1038E00002EB09034445DBB275F1000507F8013B23
:1038F00006F10106E5D2DE46DDE90D97DDE90F3C74
:10390000DDF844B0A6E6002A47D1134611463BE74E
:103910000B990968A1B923F0100388B10DF1480E85
:1039200006930C9BCDF80CC0CDE904730192D8E549
:1039300013F480627FF4CBAE23F010030D93CBE63B
:1039400013F0200F14BF412061200DF1480E764680
:10395000A0F10A0802E0202AE2D02146B1FBFCF4E3
:103960000CFB1415E8B2092D00F130058ABF404464
:10397000E8B2C0B2614506F8010B02F10102EAD2D9
:10398000CEE7002A3FF456AF0DF1480E6BE71968F9
:1039900081EAE174A4EBE174B0E600260DF1480E73
:1039A0002DE701362BE64FF00A081346C44671E5B1
:1039B000CDCCCCCC70B594461E4605460C4684B0A2
:1039C0004FF0FF32634602A900960348CDE9025446
:1039D000FFF7FCFA04B070BD6D27001010B5094B5D
:1039E00084B01C684CB1034600914FF0FF3203A92C
:1039F0000548A047012004B010BD00F083F920461F
:103A000004B010BD743E00206527001000BEFDE725
:103A100008B5FFF7FBFF00BF38B5064C064DFEF7B3
:103A200091FAAC4204D254F8043B9847AC42FAD322
:103A300038BD00BFC00B0110CC0B01100368084655
:103A400011461847437D2DE9F04781460F4616463B
:103A5000002B43D0002A3BDD037D00204D1E014694
:103A600015F8012FDFF884800A2A01F101040ED035
:103A7000A6421CD02B782146A3F10D03B3FA83F3A1
:103A800015F8012F5B090A2A01F10104F0D1002B7E
:103A9000EED18142A1EB000138441BDC02214046FB
:103AA000D9F800309847A64208D02046E2E786427F
:103AB00004DD311AD9F8003038449847374417F8F4
:103AC000013CA3F10D03B3FA83F35B0989F81430C9
:103AD000BDE8F087D9F800309847DFE73846D9F8D5
:103AE00000301146BDE8F047184700BF50160110DE
:103AF0000B682DE9F041802B0D46064605D05A1C77
:103B00002B442A601E71BDE8F0810F4B1C68A4B1E4
:103B10000E4F01F1040801E0246974B12368002B01
:103B2000FAD03B680BB1A342F6D1204641462A6841
:103B3000FFF788FF2469002CF0D1002301222B44D9
:103B40002A601E71BDE8F081BC3B0020C03B002014
:103B50002DE9F04782B00D46924699460746FDF79B
:103B6000F7FD4FF0FF366FF000442F4A821841F105
:103B70000003964274EB03013CBF324623462B48B8
:103B80000CF0F6FF6B1C804603D138460CF056FF54
:103B90000546274B274E1C68274BB9F1000F18BF6D
:103BA0001E46B4B1BAF1000F1AD1DFF8909001E0CF
:103BB000246974B12368002BFAD0D9F800300BB116
:103BC0009C42F5D120462A463946B0472469002C4C
:103BD000F0D1B8F1000F1FD1284602B0BDE8F08740
:103BE0004FF00A0ADFF8549002E02469002CF0D06C
:103BF0002368002BF9D0D9F800300BB1A342F4D1DF
:103C00002A4639462046B047012220460DF10701D9
:103C10008DF807A0B047E8E704480CF09DFF284660
:103C200002B0BDE8F08700BF40420F00F00D002059
:103C3000BC3B00203D3A0010453A0010C03B00203C
:103C40000A4A13684BB1834202D109E0984207D077
:103C500003F110021B69002BF8D101B1106070470D
:103C60000029FCD10369136001617047BC3B00204F
:103C700008B500F0A7F900F0DDFB012008BD00BF8A
:103C8000F0B583B006468DF80700FDF761FD4FF0F3
:103C9000FF356FF00044174A821841F10003954246
:103CA00074EB03013CBF23462A4613480CF060FF27
:103CB000124B07461C689CB1114D01E024697CB190
:103CC0002368002BFAD02B680BB19C42F6D120461A
:103CD00001220DF10701FFF7B5FE2469002CEFD199
:103CE00017B9304603B0F0BD03480CF035FF30463D
:103CF00003B0F0BD40420F00F00D0020BC3B00209F
:103D0000C03B002038B504460CF098FE0123054660
:103D10001A4620462946FFF71BFF084B1C682CB1AA
:103D200063682BB198472469002CF9D1284638BD27
:103D30002469002CF4D1284638BD00BFBC3B0020CC
:103D40002DE9F041A2B004460D46FDF701FD4FF00C
:103D5000FF376FF00046274A821841F1000397426F
:103D600076EB03013CBF3A46334623480CF000FF94
:103D700000262B4607462246204801A90196FFF758
:103D800019FE019B06467BB91D4B1C682CB163686C
:103D900043B198472469002CF9D10FBB304622B0BB
:103DA000BDE8F0812469F1E7DFF85480D8F80050CD
:103DB000EDB1144C01E02D6975B12B68002BFAD0E0
:103DC00023680BB1AB42F6D12846019A02A9FFF74E
:103DD00039FE2D69002DF0D1D8F800400195D5E7C6
:103DE00005480CF0B9FE304622B0BDE8F0810195DF
:103DF000D3E700BF40420F00F00D0020F13A001061
:103E0000BC3B0020C03B00200FB400B583B004A928
:103E100051F8040B0191FFF793FF03B05DF804EB39
:103E200004B07047B1F1000C1DDD0F4A0F4B126852
:103E300030B5D31AB3FA83F30D240D4D5B09411E3F
:103E400035F913E08C4411F8010F864506D09369CB
:103E50009B06FCD461451060F5D130BD93699D0689
:103E6000FCD41460F3E7704708B2002000800740DC
:103E700004B20020224BB1F1000C10B41C682EDDFE
:103E8000034600201F4A591E12689369DB0617D4A7
:103E900001309369DB06FCD41368844501F8013FC7
:103EA000F3D14CB150211346916353F8342F02F0F3
:103EB000380203F580531A6060465DF8044B704782
:103EC0004CB150211346916353F8342F02F038025D
:103ED00003F580531A6078B15DF8044B70475CB10C
:103EE000084B50211A681346916353F8342F02F09F
:103EF000380203F580531A606FF00200ECE700BF50
:103F0000243B002008B20020054B1B6833B1002180
:103F1000044A05481268006891631847704700BF5B
:103F2000243B002008B200202C3B0020024B1A68E2
:103F300093691B07FCD4704708B20020F8B51C4FEA
:103F40001C4D3A681C4EAA4214BF21252225044666
:103F5000D6F800C018B1BCF1000F10D0F8BDBCF10C
:103F6000000FFBD0014690632846FCF799FC2846D9
:103F70001249FCF7FBFD124B34601C60F8BD0B4688
:103F80000F4A0E49306028461360FCF7CBFC012134
:103F90002846FCF785FC3A6850211346916353F894
:103FA000342F02F0380203F580531A60F8BD00BFC9
:103FB00008B2002000800740243B0020093F001089
:103FC0002C3B002010B50E490E4C0F480F4A104BE9
:103FD000007821601020022112781B78FCF7CAFAC1
:103FE00002211120FCF7C6FA4FF4E1312068FDF7F9
:103FF000FDFBBDE8104001210648FFF721BE00BFD0
:104000000000074008B20020041A0110001A011035
:10401000FC190110840D0020704700BF0022014BE5
:104020001A7070473CB200204B79FF2B0BD1887976
:1040300048B9CB79012B07D1082A05D9034B8A78D7
:1040400009201A7070470020704700BF3CB2002062
:1040500001207047012901D00120704708B5104B9D
:1040600091881B78994201D0002008BD5378012B1C
:1040700008D0022BF8D1002164220846FDF79EFEED
:10408000012008BD5188CB054BBF4A0A4A0A104699
:104090004FF0FF3002F0010201F07F01FDF70CFF4D
:1040A0003CB20020004870473C170110012907D19D
:1040B0005378012B02D19388072B03D0002070473F
:1040C000012070471146A623014A01F0B1B900BF93
:1040D000941601100346012201481A70704700BF70
:1040E0007016011008B50B68B3F5966F00D008BDC7
:1040F00000224FF0FF301146FDF7DEFE024A034B6F
:1041000010601960704700BF283B0020303B002042
:10411000184B70B51A68002A28D0EFF3108172B6D8
:10412000D2E8CF4F0120002CFAD1C2E8440F002C76
:10413000F6D1BFF35F8F00220F4C186859602270D0
:10414000C0E88F2F81F31088002400250B4E3078B3
:10415000FCF7BCFB20B9002400252046294670BD91
:104160003078FCF7C3FB2046294670BD4FF47A74C3
:104170000025EBE7C0A9002042B200203DB200209C
:10418000014B1878FCF7B2BB3DB2002038B50446AD
:1041900000200D4601F0AAFEA8B3002001F0BAFEEF
:1041A00088B3FDF7D5FA4FF0FF3E6FF0004C174A89
:1041B000821841F1000396457CEB03013CBF724637
:1041C000634613480CF0D4FCE8B1002001F08EFEE9
:1041D00058B900214FF0FF3001F02CFA6FF00204C3
:1041E0000B480CF0B9FC204638BD002001F092FECF
:1041F0000028EED021462A46002001F0A5FE044604
:104200000028EDD1EAE76FF00204ECE740420F002E
:10421000A8B1002008B5FDF79BFA4FF0FF3E6FF004
:10422000004C0F4A821841F1000396457CEB0301D4
:104230003CBF724663460B480CF09AFC70B14FF0DD
:10424000FF30002101F0F6F9002001F08DFE00287A
:10425000F5D1BDE8084003480CF07EBC08BD00BFA6
:1042600040420F00A8B100202DE9F84307460E4652
:10427000FDF76EFA4FF0FF356FF00044334A8218B5
:1042800041F10003954274EB03013CBF2A462346EB
:104290002F480CF06DFC08B9BDE8F883002001F050
:1042A00025FE002848D0002E41DD0025DFF8A4803F
:1042B000DFF8A49013E02246002001F04DFE00211B
:1042C00004464FF0FF3001F0B5F9002001F04CFE3C
:1042D000FDF73EFAC8E900012544AE4227DD002083
:1042E00001F04AFE741B8442A8BF04467919002CD1
:1042F000E1D121464FF0FF3001F09CF9204601F05A
:1043000033FE204601F0F2FD88B1204601F034FE74
:104310000028E2D1FDF71CFAD8F80030D8F80420C4
:1043200013EB090342F1000283428A41D5D20848C7
:10433000BDE8F8430CF010BC00200021054BC3E998
:104340000001BDE8F84302480CF006BC40420F00F3
:10435000A8B100208032002020A1070030B5002144
:1043600085B02E480CF008FCF0B92D4B1A68CAB184
:10437000EFF3108172B6D2E8CF5F0124002DFAD19D
:10438000C2E8454F002DF6D1BFF35F8F254C1D6865
:1043900022785960D3B201222270C5E88F0F81F3D1
:1043A0001088CBB105B030BD00214FF0FF3001F0D7
:1043B00041F9002001F0AEFD044618480CF0CCFB9A
:1043C000002CEFD0184B1B68002BEBD0174A10685D
:1043D00005B0BDE830401847FCF79EFF0446FDF7E6
:1043E000B7F94FF0FF3C6FF0004510F57A7241F1DC
:1043F0000003944575EB030138BF2B464FF00001D5
:104400004FF0010520460A4C38BF6246CDE9011540
:104410000094FCF785FF05B030BD00BFA8B10020B7
:10442000C0A9002042B20020283B0020303B0020E1
:10443000114100104FF0504330B585B01C68FCF7B7
:104440006BFFFDF77FF8A04202D0002005B030BD21
:1044500000212A4B08461B7802F040F828480368E0
:10446000002B47D00120FCF7DDFC0346254C2649F4
:10447000C0B22370FCF756FA20780121FCF710FA3D
:104480000E20FCF73FFA40BB204B0125C3E900009A
:10449000FCF742FF0446FDF75BF94FF0FF3E6FF07B
:1044A000004C10F57A7241F1000396457CEB030154
:1044B0004FF000012046164C3CBF72466346CDE9E2
:1044C00001150094FCF72CFF0028BEDB01211148E8
:1044D000FFF7B6FB012005B030BD0120FCF79CF9C9
:1044E00001460A48FCF7FAFC00220E200A49FCF7B4
:1044F00049FAEBE7FCF7D6FCB4E700BF081A011055
:10450000A8B100203DB200205D430010C0A90020EA
:10451000114100109C0D002081410010004870479F
:10452000D8170110004870478417011038B5184B90
:1045300004461A780AB344B940F209424FF4417371
:10454000144D6A8013482B8038BD052C1AD8124BA5
:10455000104D53F8241028460023013903E0132B93
:1045600020F8022F10D011F8012F0133DBB2002AFE
:10457000F5D15B0043F44073E4E71121184600F0E5
:104580002DF8D8E7002038BD4FF44A73DAE700BFB2
:1045900010B20020683B00206C17011000B545F2F6
:1045A00047308BB0FDF77CFC01220346092101A8AE
:1045B0009847DDE90332044912BA1BBAC1E9002366
:1045C0000BB05DF804FB00BF68B000200346024A50
:1045D00003CA18605960704768B00020012901F1D2
:1045E000FF3300F0B3805D490A784FEA121C9F2A1E
:1045F0008CBF0CF1370C0CF1300C012B80F800C093
:1046000000F0A78002F00F02092A8CBF3732303247
:10461000022B427000F09D804A784FEA121C9F2ABC
:104620008CBF0CF1370C0CF1300C032B80F802C05E
:1046300000F08F8002F00F02092A8CBF373230322F
:10464000042BC27000F085808A784FEA121C9F2AE2
:104650008CBF0CF1370C0CF1300C052B80F804C02A
:1046600077D002F00F02092A8CBF37323032062B86
:1046700042716ED0CA784FEA121C9F2A8CBF0CF18F
:10468000370C0CF1300C072B80F806C061D002F01B
:104690000F02092A8CBF37323032082BC27158D032
:1046A0000A794FEA121C9F2A8CBF0CF1370C0CF1CF
:1046B000300C092B80F808C04BD002F00F02092AF9
:1046C0008CBF373230320A2B427242D04A794FEADD
:1046D000121C9F2A8CBF0CF1370C0CF1300C0B2BE9
:1046E00080F80AC035D002F00F02092A8CBF373299
:1046F00030320C2BC2722CD08A794FEA121C9F2ABE
:104700008CBF0CF1370C0CF1300C0D2B80F80CC069
:104710001FD002F00F02092A8CBF373230320E2B25
:10472000427316D0CA7911099F2A8CBF37313031B4
:104730000F2B81730DD002F00F02092A94BF303283
:104740003732102BC27318BF103002D00023037011
:104750007047184400230370704700BF68B0002002
:104760002DE9F04F9C4E8FB0D6F8984014F40035E8
:1047700040F0C780E70638D4E6032AD50DF12C0BAC
:104780004FF00109954E06F1280AB77886F8019096
:10479000012F00F033811436B245F6D14FF4C062D8
:1047A0008F4BADF82C2093E803000EAB03E9030018
:1047B000012158460CF0D8F94FF40032894B1A65A4
:1047C0003DB1894B1B7823B94FF40032854BC3F8B8
:1047D0009020E10400F1C580620400F1B68023045A
:1047E00000F1A4800FB0BDE8F08FD6F85880B8F182
:1047F000000FC1D098FAA8F3B3FA83F3CDE90854B7
:10480000DFF8E0B1012403EA040282EA040123FA9A
:1048100004F7561E059106F0140607EB870106EB18
:10482000C1066E499C400E445908069163D06F48FA
:10483000013900EBC707783800EBC101002A58D0D6
:1048400001F104090437644DA96D2142DAD06FEA01
:10485000040AD3B20293059B9B000793EB6D029A67
:104860001C4214BF01230023CBF858404946009254
:1048700030463A4608EA0A0800F0CEFB50B9AB6D64
:104880001C42EBD1B8F1000F2DD098FAA8F3B3FA7F
:1048900083F3B7E7069B0599079A03EB83030A4462
:1048A000DB0003EB82034D4A30461A44528A0493DC
:1048B000039200F0CFFA039A049B0D92474A01211C
:1048C000D35C0BA88DF830304FF4E063ADF82C309A
:1048D00000238DF831300CF047F9AB6D2342BDD188
:1048E000B8F1000FD1D1DDE90854E0037FF568AFDE
:1048F00044E78946A7E7002A00F09F8089463B4F9E
:10490000A0E74FF44072B36C0DF12C0BC3F30A0314
:1049100001215846ADF82C200C930CF025F9E20645
:1049200000F18E80E3033FF52BAF4AE74FF4A0631D
:1049300001210BA8ADF82C300CF016F94FF40062F1
:10494000284B1A650FB0BDE8F08F4FF4806301214A
:104950000BA8ADF82C300CF007F91022214B1A658A
:104960003DE700251E4B1C494FF416720D60204890
:104970009D602946DD601D615D619D61DD611D6297
:104980005D629D62DD621D635D639D63DD631D6429
:104990005D649D64DD641D655D659D65DD651D6609
:1049A0005D669D66DD661D675D679D67DD670BF073
:1049B00049FF4FF480730F4A0F490BA81160012182
:1049C000ADF82C308DF830500CF0CEF84FF40022BA
:1049D000044B1A6500E700BF00001150C83B0020DF
:1049E000000010500030115035B2002080001050EF
:1049F000F03B0020C43B0020800110503178144A65
:104A0000C80980F0010301F00F0143EA41039F4010
:104A10001766A2F50052536E37EA0303FBD10D4B24
:104A200003EBC10300B90433002230461A6000F0E2
:104A300011FA094B5F661F66ADE69146054F02E726
:104A4000D6F85880B8F1000F7FF4D4AE6AE700BF03
:104A500000201150800010500030115038B500F087
:104A6000D3F90C23274D284CAB67FF220E20274992
:104A7000FBF788FF2822002120460BF0E3FE802070
:104A800000214022224BA0822248C3F88410E280F9
:104A9000C3F88010628399604FF41672D96019616F
:104AA00059619961D961196259629962D962196330
:104AB00059639963D963196459649964D964196510
:104AC00059659965D965196659669966A060E0616E
:104AD000D96604F12800196759679967D9670BF0FF
:104AE000B1FE4FF0005401204FF480320A4B0B49C5
:104AF00019600B490B4B2864EC64C5F89010DA641C
:104B000038BD00BF00001150C83B002061470010B5
:104B10000000105000011050C43B002080011050D4
:104B200010D001000020115001210E20FBF7B8BE6B
:104B3000002300B583B01946CDE90033034A044889
:104B400000F08EF903B05DF804FB00BF8000105048
:104B5000DC3B0020064B4FF40032197019B1054BB5
:104B6000C3F890207047044BC3F89020704700BFF3
:104B700035B2002000201150003011500B785B0638
:104B800002D14B78052B00D070474B88014ADBB22D
:104B90001360704700001150F8B54FF0000E91F807
:104BA00002C0CD780CF00F038E8803EB83024FEA2E
:104BB000DC112848D20001EB810702EB8702264C6A
:104BC00000F802C0C6F30A06024482F801E005F0CC
:104BD000030504EBC304D6804FEA810C4FEA830E31
:104BE00001B90434002222603BB91C4B8C4400EB19
:104BF0008C0CCCF808300120F8BD9E44AC06022D88
:104C00008C44174D4FEACE0E06F13F020EEB8C0E90
:104C100022F03F0200EB0E0C286808BF520002444D
:104C2000CCF8080080F0A040DB0080F4801003F195
:104C3000A043204303F580132A6040F0204001B9CF
:104C40000433084918608A42D5D9FDF775F9012067
:104C5000F8BD00BFC83B002080001050000110507C
:104C6000C43B0020FF0F1050002108B5134B4FF438
:104C7000167299601248D960196159619961D961B8
:104C8000196259629962D962196359639963D96348
:104C9000196459649964D964196559659965D96528
:104CA000196659669966D966196759679967D96708
:104CB0000BF0C8FD034B044A1A6008BD00001050F9
:104CC000F03B0020C43B002080011050282070B52C
:104CD0001D46134641F3C01201F00F0402F0140206
:104CE00010FB0420104E82B03044C909A4B10F4A11
:104CF00002EBC402E40004F1A04404F5801449B9B5
:104D0000211D043200240195009400F0A9F801202F
:104D100002B070BD2146F5E711B92146034AF0E71C
:104D20002146024AEEE700BFC83B00208000105039
:104D3000F8B541F3C01001F00F061F4B00F014004E
:104D400006EB860200EBC200CD0911F00F011844FA
:104D500003D11A4AC5F102049466012401EB8101D2
:104D600005EB8502C90001EB8201595C134ACF09AA
:104D700087EA040301F00F0143EA41039C401466F3
:104D8000A2F50052536E34EA0303FBD10C4B03EB44
:104D9000C10307B9043300221A6000F05BF8094A26
:104DA000074B546603EBC603146605B904334FF48E
:104DB00000621A60F8BD00BFC83B002000201150FF
:104DC000800010500030115011F00F0217D04FF03A
:104DD000000CC90902EB820300B50948DB0001EBB6
:104DE000810E03EB8E031844064B80F801C003EBE1
:104DF000C20301B9043300221A605DF804FB704756
:104E0000C83B0020800010504FF080520B480C49E6
:104E100008B50C4B02600A609968C94311F08051D3
:104E2000FAD14FF4805208480BF00CFD0922074BD1
:104E300007485A67BDE80840FCF742B80020024026
:104E400000300240000002400000105000001150ED
:104E500074B000200023C0E903338370704700BFA3
:104E60002DE9F04F04464FF001084FF0000E1846B0
:104E7000DFF89CC184F80280DCF8403085B0BDF8D2
:104E80003C5094F8008003F0020AF2450F461646A3
:104E900014BF4FF00109F146A168A4F812E0258281
:104EA000E0604FEAD81804D194F804B0BBF1000FC9
:104EB00075D1E0886378A84228BF28462D1AADB284
:104EC0002582002B68D140F4806C83F00103C84533
:104ED000637012D078B1E56805EB000E2A461278AF
:104EE0000135D2B275450A7001F10101F6D1E368CE
:104EF000258A0344E3604CF4004C002D66D04CF44A
:104F00008053002F35D0E08894F801C0A84228BF14
:104F100028462D1AADB23A68A1682582BCF1000F6F
:104F20005DD140F4806E8CF0010CC84584F801C05E
:104F300017D0A0B101F14008E16801EB00098C46EF
:104F40009CF800C001315FFA8CFC494588F800C02C
:104F500008F10108F3D1E168258A0144E1604EF4CB
:104F6000004E0DB94EF4804E42F0804243EA0E43AB
:104F70003A6032681A4012F0042F45D1244A23F0D7
:104F800004213160126C920702D40C22033AFDD244
:104F9000336005B0BDE8F08F40F4105C95E7E3782E
:104FA0005A4601EB83110BF0CDFC628A258AE36837
:104FB0005A44A5EB0B0592B2ADB25B44A4F803A032
:104FC00062822582E3606DB1A16872E74CF4A04370
:104FD000002FCED03A6822F080423A60C9E740F410
:104FE000105EA0E74FF4E063207829468DF80800B2
:104FF000C4E90355A57001A803928DF80950ADF8D6
:1050000004300BF0B1FDC4E731460248FBF74AFB20
:1050100000001150B40D01102DE9F04F847883B0D9
:105020009DF83090002C5DD0624CD4F840B011B1A6
:105030000968C1F38071D0F808800BB108F140080D
:105040000FFA83FA32F81A5002EB430CAFB2C5F3F1
:105050000905B9F1000F16D0C46895B1C646CDE96F
:1050600000C86619A0469EF800C001345FFA8CFCA7
:10507000B4420EF1010E88F800C0F3D1DDE900C89A
:10508000C4682C44C460448A07F480472C4444829A
:10509000C488A54222D200240482E9B1B9F1000FEC
:1050A0001AD0CFB91BF0020F01785DD0414C4249B4
:1050B000E56C294041F01001E164E16C11F0100150
:1050C000FBD183F0010332F813301B0403D443787F
:1050D00083F0010343701160012004E0002FFBD135
:1050E000038A1BB9002003B0BDE8F08F9C4228BFA3
:1050F0001C4641781B1B9BB20382002931D144F42A
:10510000806581F001014170B9F1000F12D17CB1CD
:10511000C3681F191E4636780133F6B2BB4288F8C1
:10512000006008F10108F5D1C3682344C360038A15
:1051300045F400450BB945F4804532F81A302B4050
:105140005B0533D425F480639BB21A4922F81A30E8
:105150000B6C9F0702D40C23033BFDD222F81A509C
:10516000C0E744F41055CCE7012401F00F01134EC1
:10517000A1408C400F4D3466696E34EA0101FBD1C9
:1051800083F0010132F811301E049DB209D40021D0
:10519000437883F0010343701160094B5C661C6621
:1051A0009AE700230571C1701360F6E76146054870
:1051B000FBF778FA00001150008600200020115003
:1051C00000301150B40D01102DE9F041234D2A7823
:1051D000FE2A1BD04FF0000804464146204F214EC6
:1051E0008B1A8A42DBB208EBC80027D9336813EB6D
:1051F00080032AD0DB68204698472A7808F1010806
:10520000931CDBB25FFA88F18B42E9D8164B6C2213
:10521000002118460BF016FB4FF0FF340346C3F88D
:105220001B40C3F81F40C3F82340C3F82740202287
:10523000BDE8F041FF212B300BF004BB012B03EB49
:10524000C30302D807EB8303D4E74FF0E023D3F87E
:10525000F03DDB0700D500BEBDE8F08134B2002090
:10526000EC170110403400200C360020704700BFBE
:10527000704700BF0020704700207047704700BF94
:10528000704700BF704700BF704700BF024B187ED9
:10529000003818BF012070470C360020024B987D63
:1052A000003818BF012070470C3600202DE9F84F58
:1052B000334E3378FF2B02D00120BDE8F88F0C4627
:1052C00000294CD04FF000096C22002105462D48E2
:1052D0000BF0B8FA2C4F2D4B2D4883F80090FBF7BC
:1052E000EFFD3846FBF7DEFD2A4B2B481F60FBF72E
:1052F000E7FD2A4F2A4801F0D1FB2A4A2A4B3846BB
:105300001A60FEF7E7FE3A78DFF8A0B0FD2ACBF886
:10531000000024D8CA464946DFF894808B1A8A4296
:10532000DBB225D9DBF8003013EB090317D05B683B
:10533000ABB198473A780AF1010A931CDBB25FFAE5
:105340008AF18B4209F12409E8D8214628463570B4
:10535000FFF784FB18B12846FFF7E6FBACE74FF0F8
:10536000E023D3F8F03DDB0700D500BE0020A4E722
:10537000012BF4D803EBC30308EB8303D7E700BF8B
:10538000D40D00200C3600200436002036B2002058
:105390004037002078360020CC0D002034B20020A9
:1053A000B80D0020B40D00207C36002040340020D1
:1053B000EC17011010B51C4C82B0E38883B323783E
:1053C000DB4303F08001C3F3C0131C4494F84B305B
:1053D000164A13F00103107809D04FF0E023D3F8F8
:1053E000F03DDA0700D500BE002002B010BD94F8F1
:1053F0004B20009342F0010284F84B201A46FFF73D
:1054000065FC0028F1D14FF0E02294F84B3003F016
:10541000FA0384F84B30D2F8F03DDB07E4D5E2E73D
:1054200001238021D1E700BF0C360020D40D0020DD
:1054300030B5454C85B0E588A260AB4228BF2B460D
:10544000A381002D39D0114618460BB1002A42D055
:10545000E58994F90020431B9BB2402B28BF4023D1
:10546000002A1BDBA8424FF0000069D00146374AF2
:10547000044494F84B50364815F00105007823D1C8
:10548000009594F84B5045F0010584F84B50FFF718
:105490001DFC002843D0012005B030BDA8424BD0F0
:1054A0002A48814205D0B1B11A4603930BF04AFA5B
:1054B000039B01208021254ADAE794F84C30244AE6
:1054C00013F00103107810D04FF0E023D3F8F03D33
:1054D000DA0700D500BE4FF0E023D3F8F03DD9073E
:1054E00000D500BE002005B030BD94F84C101A461F
:1054F00041F00101009384F84C108021FFF7E6FB96
:105500000028C8D14FF0E02294F84C3003F0FA03A1
:1055100084F84C30D2F8F03DDB07DCD5DAE74FF009
:10552000E02294F84B3003F0FA0384F84B30D2F8C1
:10553000F03DD807CFD5CDE701208021002297E7A5
:105540000146024694E700BF0C360020A03500203B
:10555000D40D0020084B18788B88C3F30A0343B995
:105560004FF0E023D3F8F03DDB0700D500BE00206C
:105570007047FFF711BB00BFD40D00200B46064A51
:1055800006481168DA094B3203F00F0302EB4303BC
:10559000184400F0D3BF00BF783600200C3600203E
:1055A0000B46064A06481168DA094B3203F00F032E
:1055B00002EB4303184400F0E1BF00BF783600203F
:1055C0000C36002030B5194C01F00F0E04EB4E04E0
:1055D00004EBD11494F84BC0154883B01CF0010FB4
:1055E0009DF81850007809D04FF0E023D3F8F03D33
:1055F000DA0700D500BE002003B030BD009594F856
:105600004BC04CF0010C84F84BC0FFF75FFB002847
:10561000F2D14FF0E02294F84B3003F0FA0384F813
:105620004B30D2F8F03DDB07E5D5E3E70C36002040
:10563000D40D00202DE9F04FDFF8E0B28DB09BF8DB
:105640000030FF2B3ED010240026AE4DAE4FDFF8C9
:10565000D0A20294D5F80080D8F81830EFF3108269
:1056600072B6D3E8CF0F01210028FAD1C3E8401F5A
:105670000028F6D1BFF35F8F4046C8F81C200023F6
:1056800030F8042B09A901F043FAD8F81830C3E820
:105690008F6FD8F81C3083F3108898B19DF82530AF
:1056A000013B072B00F20581DFE803F0AAA39B91E1
:1056B0008A390F040A9B0BB10B989847029B013B58
:1056C0000293C7D10DB0BDE8F08F9DF8281001F00E
:1056D0000F0807EB480303EBD11393F84B2002F0BC
:1056E000FA0283F84B20B8F1000F00F09B80874A44
:1056F00093F82B301278934280F08A80844A03EB2F
:10570000C303126812EB830300F0DC80D3F8188027
:105710009DF829200B9B9DF82400C047CEE79AF8FE
:105720000030002BCAD09AF80030013BDBB28AF877
:1057300000309AF8003003F0FF02002BBED14FF08A
:10574000010CDFF8C4810CAB13E9030088E8030007
:1057500098F8003088F814C003F06000602888F8DA
:105760004B20C8E902229DF82490C8F8102088F840
:105770004C2000F0D780402800F0448203F01F0343
:10578000012B00F0BD81022B00F0DF80002B40F0E8
:10579000C980202800F03F82002840F0C38098F89C
:1057A0000130092B00F2BE80DFE813F071016101C6
:1057B000BC005101BC0048011E01BC001201FD00EB
:1057C0003B7D002B3FF47AAFFFF75EFD76E73B7D34
:1057D000002B3FF473AFF87DC0F34000FFF752FD9C
:1057E0006CE7BB7EDA077FF569AF0A98FFF740FDEB
:1057F00064E79DF82400FFF7E7FCFFF741FD5DE754
:105800009DF82400FFF7E0FC9DF828307B7655E7F3
:105810009B1ADBB2012B55D83E4A03EBC30302EBC4
:10582000830373E7B7F806C09DF824300B9ABCF1E8
:10583000000F50D097F800906FEA090909F080092D
:1058400049454BD097F90010B86800290EDB0028B5
:105850003FF434AF3049884208D0CDE903230BF040
:1058600071F8DDE90323B868B7F806C08118F88934
:10587000B960104480B26045F88102D03F2A00F23E
:105880001281D7F81080B8F1000F08D01846022115
:105890001D4A0393C047039B002800F02681184649
:1058A000002349461A460093FFF78CFE00287FF438
:1058B00005AF4FF0E023D3F8F03DDB077FF5FEAEF8
:1058C00000BEFBE64FF0E023D3F8F03DD9077FF5AB
:1058D000F9AE00BEF6E64FF08009B1E7002AE8D144
:1058E000184609490393FFF749F9D7F81080B8F132
:1058F000000F3FF4E3AE039B03211846024AC04762
:10590000DCE600BF7C3600200C36002034B20020DC
:1059100040340020EC170110A0350020D40D0020E9
:1059200036B200204FF0E023D3F8F03DDB0702D57C
:1059300000BE9DF8249048460021FFF7F9F9802128
:105940009DF82400FFF7F4F9B8E698F80410C64A69
:1059500001F00F0408EB440303EBD11392F800C0ED
:1059600093F82B206300624503934FEAD11380F034
:105970002181DFF800C302EBC202DCF8004004EB37
:105980008204002800F02481002CD4D063694846AA
:105990000121B64AC8F81030984700287FF48EAE2F
:1059A0009DF82490C7E798F8022098F818309A429A
:1059B00009D0002B40F02D8288F81820002A40F0F2
:1059C000AF81FFF75DFC4846A849FFF7F3FC75E699
:1059D00098F818308DF8223048460123A3490DF17C
:1059E0002202FFF725FD69E6B8F80200030A013B31
:1059F000020AC0B20E2B9ED801A151F823F000BFBD
:105A00008D5E00107B5E00106B5E00103759001039
:105A100037590010535E00107B5E0010375900109C
:105A200037590010375900103759001037590010F6
:105A30003759001037590010095D0010484698F892
:105A40000210FFF775F8012388F8153036E6B8F82C
:105A50000230012B7FF46FAF98F81730484643F0BF
:105A60000203824988F81730FFF7A4FC26E6B8F84D
:105A70000230012B7FF45FAF98F81730484623F0CF
:105A800002037A4988F81730FFF794FC16E698F875
:105A900017304846ADF82230744902230DF1220236
:105AA000FFF7C6FC0AE6BA8997F900C0131A9BB241
:105AB000402B28BF4023BCF1000F6BDB90424FF01E
:105AC000000900F0C8806A4AB94499F84B109BF865
:105AD000000011F0010142D04FF0E023D3F8F03D77
